{
	"Challenges/Challenge 2/Solution 2.sol": {
		"CryptosToken": {
			"abi": [
				{
					"inputs": [],
					"stateMutability": "nonpayable",
					"type": "constructor"
				},
				{
					"inputs": [],
					"name": "getSupply",
					"outputs": [
						{
							"internalType": "uint256",
							"name": "",
							"type": "uint256"
						}
					],
					"stateMutability": "view",
					"type": "function"
				},
				{
					"inputs": [],
					"name": "name",
					"outputs": [
						{
							"internalType": "string",
							"name": "",
							"type": "string"
						}
					],
					"stateMutability": "view",
					"type": "function"
				},
				{
					"inputs": [],
					"name": "owner",
					"outputs": [
						{
							"internalType": "address",
							"name": "",
							"type": "address"
						}
					],
					"stateMutability": "view",
					"type": "function"
				},
				{
					"inputs": [
						{
							"internalType": "uint256",
							"name": "s",
							"type": "uint256"
						}
					],
					"name": "setSupply",
					"outputs": [],
					"stateMutability": "nonpayable",
					"type": "function"
				}
			],
			"devdoc": {
				"kind": "dev",
				"methods": {},
				"version": 1
			},
			"evm": {
				"assembly": "    /* \"Challenges/Challenge 2/Solution 2.sol\":69:396  contract CryptosToken{... */\n  mstore(0x40, 0x80)\n    /* \"Challenges/Challenge 2/Solution 2.sol\":185:233  constructor(){... */\n  callvalue\n  dup1\n  iszero\n  tag_1\n  jumpi\n  0x00\n  dup1\n  revert\ntag_1:\n  pop\n    /* \"Challenges/Challenge 2/Solution 2.sol\":216:226  msg.sender */\n  caller\n    /* \"Challenges/Challenge 2/Solution 2.sol\":208:213  owner */\n  0x01\n  0x00\n    /* \"Challenges/Challenge 2/Solution 2.sol\":208:226  owner = msg.sender */\n  0x0100\n  exp\n  dup2\n  sload\n  dup2\n  0xffffffffffffffffffffffffffffffffffffffff\n  mul\n  not\n  and\n  swap1\n  dup4\n  0xffffffffffffffffffffffffffffffffffffffff\n  and\n  mul\n  or\n  swap1\n  sstore\n  pop\n    /* \"Challenges/Challenge 2/Solution 2.sol\":69:396  contract CryptosToken{... */\n  dataSize(sub_0)\n  dup1\n  dataOffset(sub_0)\n  0x00\n  codecopy\n  0x00\n  return\nstop\n\nsub_0: assembly {\n        /* \"Challenges/Challenge 2/Solution 2.sol\":69:396  contract CryptosToken{... */\n      mstore(0x40, 0x80)\n      callvalue\n      dup1\n      iszero\n      tag_1\n      jumpi\n      0x00\n      dup1\n      revert\n    tag_1:\n      pop\n      jumpi(tag_2, lt(calldatasize, 0x04))\n      shr(0xe0, calldataload(0x00))\n      dup1\n      0x06fdde03\n      eq\n      tag_3\n      jumpi\n      dup1\n      0x3b4c4b25\n      eq\n      tag_4\n      jumpi\n      dup1\n      0x6c9c2faf\n      eq\n      tag_5\n      jumpi\n      dup1\n      0x8da5cb5b\n      eq\n      tag_6\n      jumpi\n    tag_2:\n      0x00\n      dup1\n      revert\n        /* \"Challenges/Challenge 2/Solution 2.sol\":96:135  string constant public name = \"Cryptos\" */\n    tag_3:\n      tag_7\n      tag_8\n      jump\t// in\n    tag_7:\n      mload(0x40)\n      tag_9\n      swap2\n      swap1\n      tag_10\n      jump\t// in\n    tag_9:\n      mload(0x40)\n      dup1\n      swap2\n      sub\n      swap1\n      return\n        /* \"Challenges/Challenge 2/Solution 2.sol\":248:308  function setSupply(uint s) public{... */\n    tag_4:\n      tag_11\n      0x04\n      dup1\n      calldatasize\n      sub\n      dup2\n      add\n      swap1\n      tag_12\n      swap2\n      swap1\n      tag_13\n      jump\t// in\n    tag_12:\n      tag_14\n      jump\t// in\n    tag_11:\n      stop\n        /* \"Challenges/Challenge 2/Solution 2.sol\":318:394  function getSupply() public view returns(uint){... */\n    tag_5:\n      tag_15\n      tag_16\n      jump\t// in\n    tag_15:\n      mload(0x40)\n      tag_17\n      swap2\n      swap1\n      tag_18\n      jump\t// in\n    tag_17:\n      mload(0x40)\n      dup1\n      swap2\n      sub\n      swap1\n      return\n        /* \"Challenges/Challenge 2/Solution 2.sol\":158:178  address public owner */\n    tag_6:\n      tag_19\n      tag_20\n      jump\t// in\n    tag_19:\n      mload(0x40)\n      tag_21\n      swap2\n      swap1\n      tag_22\n      jump\t// in\n    tag_21:\n      mload(0x40)\n      dup1\n      swap2\n      sub\n      swap1\n      return\n        /* \"Challenges/Challenge 2/Solution 2.sol\":96:135  string constant public name = \"Cryptos\" */\n    tag_8:\n      mload(0x40)\n      dup1\n      0x40\n      add\n      0x40\n      mstore\n      dup1\n      0x07\n      dup2\n      mstore\n      0x20\n      add\n      0x43727970746f7300000000000000000000000000000000000000000000000000\n      dup2\n      mstore\n      pop\n      dup2\n      jump\t// out\n        /* \"Challenges/Challenge 2/Solution 2.sol\":248:308  function setSupply(uint s) public{... */\n    tag_14:\n        /* \"Challenges/Challenge 2/Solution 2.sol\":300:301  s */\n      dup1\n        /* \"Challenges/Challenge 2/Solution 2.sol\":291:297  supply */\n      0x00\n        /* \"Challenges/Challenge 2/Solution 2.sol\":291:301  supply = s */\n      dup2\n      swap1\n      sstore\n      pop\n        /* \"Challenges/Challenge 2/Solution 2.sol\":248:308  function setSupply(uint s) public{... */\n      pop\n      jump\t// out\n        /* \"Challenges/Challenge 2/Solution 2.sol\":318:394  function getSupply() public view returns(uint){... */\n    tag_16:\n        /* \"Challenges/Challenge 2/Solution 2.sol\":359:363  uint */\n      0x00\n        /* \"Challenges/Challenge 2/Solution 2.sol\":381:387  supply */\n      dup1\n      sload\n        /* \"Challenges/Challenge 2/Solution 2.sol\":374:387  return supply */\n      swap1\n      pop\n        /* \"Challenges/Challenge 2/Solution 2.sol\":318:394  function getSupply() public view returns(uint){... */\n      swap1\n      jump\t// out\n        /* \"Challenges/Challenge 2/Solution 2.sol\":158:178  address public owner */\n    tag_20:\n      0x01\n      0x00\n      swap1\n      sload\n      swap1\n      0x0100\n      exp\n      swap1\n      div\n      0xffffffffffffffffffffffffffffffffffffffff\n      and\n      dup2\n      jump\t// out\n        /* \"#utility.yul\":7:106   */\n    tag_25:\n        /* \"#utility.yul\":59:65   */\n      0x00\n        /* \"#utility.yul\":93:98   */\n      dup2\n        /* \"#utility.yul\":87:99   */\n      mload\n        /* \"#utility.yul\":77:99   */\n      swap1\n      pop\n        /* \"#utility.yul\":7:106   */\n      swap2\n      swap1\n      pop\n      jump\t// out\n        /* \"#utility.yul\":112:281   */\n    tag_26:\n        /* \"#utility.yul\":196:207   */\n      0x00\n        /* \"#utility.yul\":230:236   */\n      dup3\n        /* \"#utility.yul\":225:228   */\n      dup3\n        /* \"#utility.yul\":218:237   */\n      mstore\n        /* \"#utility.yul\":270:274   */\n      0x20\n        /* \"#utility.yul\":265:268   */\n      dup3\n        /* \"#utility.yul\":261:275   */\n      add\n        /* \"#utility.yul\":246:275   */\n      swap1\n      pop\n        /* \"#utility.yul\":112:281   */\n      swap3\n      swap2\n      pop\n      pop\n      jump\t// out\n        /* \"#utility.yul\":287:533   */\n    tag_27:\n        /* \"#utility.yul\":368:369   */\n      0x00\n        /* \"#utility.yul\":378:491   */\n    tag_44:\n        /* \"#utility.yul\":392:398   */\n      dup4\n        /* \"#utility.yul\":389:390   */\n      dup2\n        /* \"#utility.yul\":386:399   */\n      lt\n        /* \"#utility.yul\":378:491   */\n      iszero\n      tag_46\n      jumpi\n        /* \"#utility.yul\":477:478   */\n      dup1\n        /* \"#utility.yul\":472:475   */\n      dup3\n        /* \"#utility.yul\":468:479   */\n      add\n        /* \"#utility.yul\":462:480   */\n      mload\n        /* \"#utility.yul\":458:459   */\n      dup2\n        /* \"#utility.yul\":453:456   */\n      dup5\n        /* \"#utility.yul\":449:460   */\n      add\n        /* \"#utility.yul\":442:481   */\n      mstore\n        /* \"#utility.yul\":414:416   */\n      0x20\n        /* \"#utility.yul\":411:412   */\n      dup2\n        /* \"#utility.yul\":407:417   */\n      add\n        /* \"#utility.yul\":402:417   */\n      swap1\n      pop\n        /* \"#utility.yul\":378:491   */\n      jump(tag_44)\n    tag_46:\n        /* \"#utility.yul\":525:526   */\n      0x00\n        /* \"#utility.yul\":516:522   */\n      dup5\n        /* \"#utility.yul\":511:514   */\n      dup5\n        /* \"#utility.yul\":507:523   */\n      add\n        /* \"#utility.yul\":500:527   */\n      mstore\n        /* \"#utility.yul\":349:533   */\n      pop\n        /* \"#utility.yul\":287:533   */\n      pop\n      pop\n      pop\n      jump\t// out\n        /* \"#utility.yul\":539:641   */\n    tag_28:\n        /* \"#utility.yul\":580:586   */\n      0x00\n        /* \"#utility.yul\":631:633   */\n      0x1f\n        /* \"#utility.yul\":627:634   */\n      not\n        /* \"#utility.yul\":622:624   */\n      0x1f\n        /* \"#utility.yul\":615:620   */\n      dup4\n        /* \"#utility.yul\":611:625   */\n      add\n        /* \"#utility.yul\":607:635   */\n      and\n        /* \"#utility.yul\":597:635   */\n      swap1\n      pop\n        /* \"#utility.yul\":539:641   */\n      swap2\n      swap1\n      pop\n      jump\t// out\n        /* \"#utility.yul\":647:1024   */\n    tag_29:\n        /* \"#utility.yul\":735:738   */\n      0x00\n        /* \"#utility.yul\":763:802   */\n      tag_49\n        /* \"#utility.yul\":796:801   */\n      dup3\n        /* \"#utility.yul\":763:802   */\n      tag_25\n      jump\t// in\n    tag_49:\n        /* \"#utility.yul\":818:889   */\n      tag_50\n        /* \"#utility.yul\":882:888   */\n      dup2\n        /* \"#utility.yul\":877:880   */\n      dup6\n        /* \"#utility.yul\":818:889   */\n      tag_26\n      jump\t// in\n    tag_50:\n        /* \"#utility.yul\":811:889   */\n      swap4\n      pop\n        /* \"#utility.yul\":898:963   */\n      tag_51\n        /* \"#utility.yul\":956:962   */\n      dup2\n        /* \"#utility.yul\":951:954   */\n      dup6\n        /* \"#utility.yul\":944:948   */\n      0x20\n        /* \"#utility.yul\":937:942   */\n      dup7\n        /* \"#utility.yul\":933:949   */\n      add\n        /* \"#utility.yul\":898:963   */\n      tag_27\n      jump\t// in\n    tag_51:\n        /* \"#utility.yul\":988:1017   */\n      tag_52\n        /* \"#utility.yul\":1010:1016   */\n      dup2\n        /* \"#utility.yul\":988:1017   */\n      tag_28\n      jump\t// in\n    tag_52:\n        /* \"#utility.yul\":983:986   */\n      dup5\n        /* \"#utility.yul\":979:1018   */\n      add\n        /* \"#utility.yul\":972:1018   */\n      swap2\n      pop\n        /* \"#utility.yul\":739:1024   */\n      pop\n        /* \"#utility.yul\":647:1024   */\n      swap3\n      swap2\n      pop\n      pop\n      jump\t// out\n        /* \"#utility.yul\":1030:1343   */\n    tag_10:\n        /* \"#utility.yul\":1143:1147   */\n      0x00\n        /* \"#utility.yul\":1181:1183   */\n      0x20\n        /* \"#utility.yul\":1170:1179   */\n      dup3\n        /* \"#utility.yul\":1166:1184   */\n      add\n        /* \"#utility.yul\":1158:1184   */\n      swap1\n      pop\n        /* \"#utility.yul\":1230:1239   */\n      dup2\n        /* \"#utility.yul\":1224:1228   */\n      dup2\n        /* \"#utility.yul\":1220:1240   */\n      sub\n        /* \"#utility.yul\":1216:1217   */\n      0x00\n        /* \"#utility.yul\":1205:1214   */\n      dup4\n        /* \"#utility.yul\":1201:1218   */\n      add\n        /* \"#utility.yul\":1194:1241   */\n      mstore\n        /* \"#utility.yul\":1258:1336   */\n      tag_54\n        /* \"#utility.yul\":1331:1335   */\n      dup2\n        /* \"#utility.yul\":1322:1328   */\n      dup5\n        /* \"#utility.yul\":1258:1336   */\n      tag_29\n      jump\t// in\n    tag_54:\n        /* \"#utility.yul\":1250:1336   */\n      swap1\n      pop\n        /* \"#utility.yul\":1030:1343   */\n      swap3\n      swap2\n      pop\n      pop\n      jump\t// out\n        /* \"#utility.yul\":1430:1547   */\n    tag_31:\n        /* \"#utility.yul\":1539:1540   */\n      0x00\n        /* \"#utility.yul\":1536:1537   */\n      dup1\n        /* \"#utility.yul\":1529:1541   */\n      revert\n        /* \"#utility.yul\":1676:1753   */\n    tag_33:\n        /* \"#utility.yul\":1713:1720   */\n      0x00\n        /* \"#utility.yul\":1742:1747   */\n      dup2\n        /* \"#utility.yul\":1731:1747   */\n      swap1\n      pop\n        /* \"#utility.yul\":1676:1753   */\n      swap2\n      swap1\n      pop\n      jump\t// out\n        /* \"#utility.yul\":1759:1881   */\n    tag_34:\n        /* \"#utility.yul\":1832:1856   */\n      tag_60\n        /* \"#utility.yul\":1850:1855   */\n      dup2\n        /* \"#utility.yul\":1832:1856   */\n      tag_33\n      jump\t// in\n    tag_60:\n        /* \"#utility.yul\":1825:1830   */\n      dup2\n        /* \"#utility.yul\":1822:1857   */\n      eq\n        /* \"#utility.yul\":1812:1875   */\n      tag_61\n      jumpi\n        /* \"#utility.yul\":1871:1872   */\n      0x00\n        /* \"#utility.yul\":1868:1869   */\n      dup1\n        /* \"#utility.yul\":1861:1873   */\n      revert\n        /* \"#utility.yul\":1812:1875   */\n    tag_61:\n        /* \"#utility.yul\":1759:1881   */\n      pop\n      jump\t// out\n        /* \"#utility.yul\":1887:2026   */\n    tag_35:\n        /* \"#utility.yul\":1933:1938   */\n      0x00\n        /* \"#utility.yul\":1971:1977   */\n      dup2\n        /* \"#utility.yul\":1958:1978   */\n      calldataload\n        /* \"#utility.yul\":1949:1978   */\n      swap1\n      pop\n        /* \"#utility.yul\":1987:2020   */\n      tag_63\n        /* \"#utility.yul\":2014:2019   */\n      dup2\n        /* \"#utility.yul\":1987:2020   */\n      tag_34\n      jump\t// in\n    tag_63:\n        /* \"#utility.yul\":1887:2026   */\n      swap3\n      swap2\n      pop\n      pop\n      jump\t// out\n        /* \"#utility.yul\":2032:2361   */\n    tag_13:\n        /* \"#utility.yul\":2091:2097   */\n      0x00\n        /* \"#utility.yul\":2140:2142   */\n      0x20\n        /* \"#utility.yul\":2128:2137   */\n      dup3\n        /* \"#utility.yul\":2119:2126   */\n      dup5\n        /* \"#utility.yul\":2115:2138   */\n      sub\n        /* \"#utility.yul\":2111:2143   */\n      slt\n        /* \"#utility.yul\":2108:2227   */\n      iszero\n      tag_65\n      jumpi\n        /* \"#utility.yul\":2146:2225   */\n      tag_66\n      tag_31\n      jump\t// in\n    tag_66:\n        /* \"#utility.yul\":2108:2227   */\n    tag_65:\n        /* \"#utility.yul\":2266:2267   */\n      0x00\n        /* \"#utility.yul\":2291:2344   */\n      tag_67\n        /* \"#utility.yul\":2336:2343   */\n      dup5\n        /* \"#utility.yul\":2327:2333   */\n      dup3\n        /* \"#utility.yul\":2316:2325   */\n      dup6\n        /* \"#utility.yul\":2312:2334   */\n      add\n        /* \"#utility.yul\":2291:2344   */\n      tag_35\n      jump\t// in\n    tag_67:\n        /* \"#utility.yul\":2281:2344   */\n      swap2\n      pop\n        /* \"#utility.yul\":2237:2354   */\n      pop\n        /* \"#utility.yul\":2032:2361   */\n      swap3\n      swap2\n      pop\n      pop\n      jump\t// out\n        /* \"#utility.yul\":2367:2485   */\n    tag_36:\n        /* \"#utility.yul\":2454:2478   */\n      tag_69\n        /* \"#utility.yul\":2472:2477   */\n      dup2\n        /* \"#utility.yul\":2454:2478   */\n      tag_33\n      jump\t// in\n    tag_69:\n        /* \"#utility.yul\":2449:2452   */\n      dup3\n        /* \"#utility.yul\":2442:2479   */\n      mstore\n        /* \"#utility.yul\":2367:2485   */\n      pop\n      pop\n      jump\t// out\n        /* \"#utility.yul\":2491:2713   */\n    tag_18:\n        /* \"#utility.yul\":2584:2588   */\n      0x00\n        /* \"#utility.yul\":2622:2624   */\n      0x20\n        /* \"#utility.yul\":2611:2620   */\n      dup3\n        /* \"#utility.yul\":2607:2625   */\n      add\n        /* \"#utility.yul\":2599:2625   */\n      swap1\n      pop\n        /* \"#utility.yul\":2635:2706   */\n      tag_71\n        /* \"#utility.yul\":2703:2704   */\n      0x00\n        /* \"#utility.yul\":2692:2701   */\n      dup4\n        /* \"#utility.yul\":2688:2705   */\n      add\n        /* \"#utility.yul\":2679:2685   */\n      dup5\n        /* \"#utility.yul\":2635:2706   */\n      tag_36\n      jump\t// in\n    tag_71:\n        /* \"#utility.yul\":2491:2713   */\n      swap3\n      swap2\n      pop\n      pop\n      jump\t// out\n        /* \"#utility.yul\":2719:2845   */\n    tag_37:\n        /* \"#utility.yul\":2756:2763   */\n      0x00\n        /* \"#utility.yul\":2796:2838   */\n      0xffffffffffffffffffffffffffffffffffffffff\n        /* \"#utility.yul\":2789:2794   */\n      dup3\n        /* \"#utility.yul\":2785:2839   */\n      and\n        /* \"#utility.yul\":2774:2839   */\n      swap1\n      pop\n        /* \"#utility.yul\":2719:2845   */\n      swap2\n      swap1\n      pop\n      jump\t// out\n        /* \"#utility.yul\":2851:2947   */\n    tag_38:\n        /* \"#utility.yul\":2888:2895   */\n      0x00\n        /* \"#utility.yul\":2917:2941   */\n      tag_74\n        /* \"#utility.yul\":2935:2940   */\n      dup3\n        /* \"#utility.yul\":2917:2941   */\n      tag_37\n      jump\t// in\n    tag_74:\n        /* \"#utility.yul\":2906:2941   */\n      swap1\n      pop\n        /* \"#utility.yul\":2851:2947   */\n      swap2\n      swap1\n      pop\n      jump\t// out\n        /* \"#utility.yul\":2953:3071   */\n    tag_39:\n        /* \"#utility.yul\":3040:3064   */\n      tag_76\n        /* \"#utility.yul\":3058:3063   */\n      dup2\n        /* \"#utility.yul\":3040:3064   */\n      tag_38\n      jump\t// in\n    tag_76:\n        /* \"#utility.yul\":3035:3038   */\n      dup3\n        /* \"#utility.yul\":3028:3065   */\n      mstore\n        /* \"#utility.yul\":2953:3071   */\n      pop\n      pop\n      jump\t// out\n        /* \"#utility.yul\":3077:3299   */\n    tag_22:\n        /* \"#utility.yul\":3170:3174   */\n      0x00\n        /* \"#utility.yul\":3208:3210   */\n      0x20\n        /* \"#utility.yul\":3197:3206   */\n      dup3\n        /* \"#utility.yul\":3193:3211   */\n      add\n        /* \"#utility.yul\":3185:3211   */\n      swap1\n      pop\n        /* \"#utility.yul\":3221:3292   */\n      tag_78\n        /* \"#utility.yul\":3289:3290   */\n      0x00\n        /* \"#utility.yul\":3278:3287   */\n      dup4\n        /* \"#utility.yul\":3274:3291   */\n      add\n        /* \"#utility.yul\":3265:3271   */\n      dup5\n        /* \"#utility.yul\":3221:3292   */\n      tag_39\n      jump\t// in\n    tag_78:\n        /* \"#utility.yul\":3077:3299   */\n      swap3\n      swap2\n      pop\n      pop\n      jump\t// out\n\n    auxdata: 0xa264697066735822122058382604c8c1b62f4b0cecd4c5ce4805659bb2dd508d0dda12b5a1427b549e5364736f6c63430008120033\n}\n",
				"bytecode": {
					"linkReferences": {},
					"object": "608060405234801561001057600080fd5b5033600160006101000a81548173ffffffffffffffffffffffffffffffffffffffff021916908373ffffffffffffffffffffffffffffffffffffffff16021790555061030f806100616000396000f3fe608060405234801561001057600080fd5b506004361061004c5760003560e01c806306fdde03146100515780633b4c4b251461006f5780636c9c2faf1461008b5780638da5cb5b146100a9575b600080fd5b6100596100c7565b60405161006691906101c9565b60405180910390f35b61008960048036038101906100849190610226565b610100565b005b61009361010a565b6040516100a09190610262565b60405180910390f35b6100b1610113565b6040516100be91906102be565b60405180910390f35b6040518060400160405280600781526020017f43727970746f730000000000000000000000000000000000000000000000000081525081565b8060008190555050565b60008054905090565b600160009054906101000a900473ffffffffffffffffffffffffffffffffffffffff1681565b600081519050919050565b600082825260208201905092915050565b60005b83811015610173578082015181840152602081019050610158565b60008484015250505050565b6000601f19601f8301169050919050565b600061019b82610139565b6101a58185610144565b93506101b5818560208601610155565b6101be8161017f565b840191505092915050565b600060208201905081810360008301526101e38184610190565b905092915050565b600080fd5b6000819050919050565b610203816101f0565b811461020e57600080fd5b50565b600081359050610220816101fa565b92915050565b60006020828403121561023c5761023b6101eb565b5b600061024a84828501610211565b91505092915050565b61025c816101f0565b82525050565b60006020820190506102776000830184610253565b92915050565b600073ffffffffffffffffffffffffffffffffffffffff82169050919050565b60006102a88261027d565b9050919050565b6102b88161029d565b82525050565b60006020820190506102d360008301846102af565b9291505056fea264697066735822122058382604c8c1b62f4b0cecd4c5ce4805659bb2dd508d0dda12b5a1427b549e5364736f6c63430008120033",
					"opcodes": "PUSH1 0x80 PUSH1 0x40 MSTORE CALLVALUE DUP1 ISZERO PUSH2 0x10 JUMPI PUSH1 0x0 DUP1 REVERT JUMPDEST POP CALLER PUSH1 0x1 PUSH1 0x0 PUSH2 0x100 EXP DUP2 SLOAD DUP2 PUSH20 0xFFFFFFFFFFFFFFFFFFFFFFFFFFFFFFFFFFFFFFFF MUL NOT AND SWAP1 DUP4 PUSH20 0xFFFFFFFFFFFFFFFFFFFFFFFFFFFFFFFFFFFFFFFF AND MUL OR SWAP1 SSTORE POP PUSH2 0x30F DUP1 PUSH2 0x61 PUSH1 0x0 CODECOPY PUSH1 0x0 RETURN INVALID PUSH1 0x80 PUSH1 0x40 MSTORE CALLVALUE DUP1 ISZERO PUSH2 0x10 JUMPI PUSH1 0x0 DUP1 REVERT JUMPDEST POP PUSH1 0x4 CALLDATASIZE LT PUSH2 0x4C JUMPI PUSH1 0x0 CALLDATALOAD PUSH1 0xE0 SHR DUP1 PUSH4 0x6FDDE03 EQ PUSH2 0x51 JUMPI DUP1 PUSH4 0x3B4C4B25 EQ PUSH2 0x6F JUMPI DUP1 PUSH4 0x6C9C2FAF EQ PUSH2 0x8B JUMPI DUP1 PUSH4 0x8DA5CB5B EQ PUSH2 0xA9 JUMPI JUMPDEST PUSH1 0x0 DUP1 REVERT JUMPDEST PUSH2 0x59 PUSH2 0xC7 JUMP JUMPDEST PUSH1 0x40 MLOAD PUSH2 0x66 SWAP2 SWAP1 PUSH2 0x1C9 JUMP JUMPDEST PUSH1 0x40 MLOAD DUP1 SWAP2 SUB SWAP1 RETURN JUMPDEST PUSH2 0x89 PUSH1 0x4 DUP1 CALLDATASIZE SUB DUP2 ADD SWAP1 PUSH2 0x84 SWAP2 SWAP1 PUSH2 0x226 JUMP JUMPDEST PUSH2 0x100 JUMP JUMPDEST STOP JUMPDEST PUSH2 0x93 PUSH2 0x10A JUMP JUMPDEST PUSH1 0x40 MLOAD PUSH2 0xA0 SWAP2 SWAP1 PUSH2 0x262 JUMP JUMPDEST PUSH1 0x40 MLOAD DUP1 SWAP2 SUB SWAP1 RETURN JUMPDEST PUSH2 0xB1 PUSH2 0x113 JUMP JUMPDEST PUSH1 0x40 MLOAD PUSH2 0xBE SWAP2 SWAP1 PUSH2 0x2BE JUMP JUMPDEST PUSH1 0x40 MLOAD DUP1 SWAP2 SUB SWAP1 RETURN JUMPDEST PUSH1 0x40 MLOAD DUP1 PUSH1 0x40 ADD PUSH1 0x40 MSTORE DUP1 PUSH1 0x7 DUP2 MSTORE PUSH1 0x20 ADD PUSH32 0x43727970746F7300000000000000000000000000000000000000000000000000 DUP2 MSTORE POP DUP2 JUMP JUMPDEST DUP1 PUSH1 0x0 DUP2 SWAP1 SSTORE POP POP JUMP JUMPDEST PUSH1 0x0 DUP1 SLOAD SWAP1 POP SWAP1 JUMP JUMPDEST PUSH1 0x1 PUSH1 0x0 SWAP1 SLOAD SWAP1 PUSH2 0x100 EXP SWAP1 DIV PUSH20 0xFFFFFFFFFFFFFFFFFFFFFFFFFFFFFFFFFFFFFFFF AND DUP2 JUMP JUMPDEST PUSH1 0x0 DUP2 MLOAD SWAP1 POP SWAP2 SWAP1 POP JUMP JUMPDEST PUSH1 0x0 DUP3 DUP3 MSTORE PUSH1 0x20 DUP3 ADD SWAP1 POP SWAP3 SWAP2 POP POP JUMP JUMPDEST PUSH1 0x0 JUMPDEST DUP4 DUP2 LT ISZERO PUSH2 0x173 JUMPI DUP1 DUP3 ADD MLOAD DUP2 DUP5 ADD MSTORE PUSH1 0x20 DUP2 ADD SWAP1 POP PUSH2 0x158 JUMP JUMPDEST PUSH1 0x0 DUP5 DUP5 ADD MSTORE POP POP POP POP JUMP JUMPDEST PUSH1 0x0 PUSH1 0x1F NOT PUSH1 0x1F DUP4 ADD AND SWAP1 POP SWAP2 SWAP1 POP JUMP JUMPDEST PUSH1 0x0 PUSH2 0x19B DUP3 PUSH2 0x139 JUMP JUMPDEST PUSH2 0x1A5 DUP2 DUP6 PUSH2 0x144 JUMP JUMPDEST SWAP4 POP PUSH2 0x1B5 DUP2 DUP6 PUSH1 0x20 DUP7 ADD PUSH2 0x155 JUMP JUMPDEST PUSH2 0x1BE DUP2 PUSH2 0x17F JUMP JUMPDEST DUP5 ADD SWAP2 POP POP SWAP3 SWAP2 POP POP JUMP JUMPDEST PUSH1 0x0 PUSH1 0x20 DUP3 ADD SWAP1 POP DUP2 DUP2 SUB PUSH1 0x0 DUP4 ADD MSTORE PUSH2 0x1E3 DUP2 DUP5 PUSH2 0x190 JUMP JUMPDEST SWAP1 POP SWAP3 SWAP2 POP POP JUMP JUMPDEST PUSH1 0x0 DUP1 REVERT JUMPDEST PUSH1 0x0 DUP2 SWAP1 POP SWAP2 SWAP1 POP JUMP JUMPDEST PUSH2 0x203 DUP2 PUSH2 0x1F0 JUMP JUMPDEST DUP2 EQ PUSH2 0x20E JUMPI PUSH1 0x0 DUP1 REVERT JUMPDEST POP JUMP JUMPDEST PUSH1 0x0 DUP2 CALLDATALOAD SWAP1 POP PUSH2 0x220 DUP2 PUSH2 0x1FA JUMP JUMPDEST SWAP3 SWAP2 POP POP JUMP JUMPDEST PUSH1 0x0 PUSH1 0x20 DUP3 DUP5 SUB SLT ISZERO PUSH2 0x23C JUMPI PUSH2 0x23B PUSH2 0x1EB JUMP JUMPDEST JUMPDEST PUSH1 0x0 PUSH2 0x24A DUP5 DUP3 DUP6 ADD PUSH2 0x211 JUMP JUMPDEST SWAP2 POP POP SWAP3 SWAP2 POP POP JUMP JUMPDEST PUSH2 0x25C DUP2 PUSH2 0x1F0 JUMP JUMPDEST DUP3 MSTORE POP POP JUMP JUMPDEST PUSH1 0x0 PUSH1 0x20 DUP3 ADD SWAP1 POP PUSH2 0x277 PUSH1 0x0 DUP4 ADD DUP5 PUSH2 0x253 JUMP JUMPDEST SWAP3 SWAP2 POP POP JUMP JUMPDEST PUSH1 0x0 PUSH20 0xFFFFFFFFFFFFFFFFFFFFFFFFFFFFFFFFFFFFFFFF DUP3 AND SWAP1 POP SWAP2 SWAP1 POP JUMP JUMPDEST PUSH1 0x0 PUSH2 0x2A8 DUP3 PUSH2 0x27D JUMP JUMPDEST SWAP1 POP SWAP2 SWAP1 POP JUMP JUMPDEST PUSH2 0x2B8 DUP2 PUSH2 0x29D JUMP JUMPDEST DUP3 MSTORE POP POP JUMP JUMPDEST PUSH1 0x0 PUSH1 0x20 DUP3 ADD SWAP1 POP PUSH2 0x2D3 PUSH1 0x0 DUP4 ADD DUP5 PUSH2 0x2AF JUMP JUMPDEST SWAP3 SWAP2 POP POP JUMP INVALID LOG2 PUSH5 0x6970667358 0x22 SLT KECCAK256 PC CODESIZE 0x26 DIV 0xC8 0xC1 0xB6 0x2F 0x4B 0xC 0xEC 0xD4 0xC5 0xCE BASEFEE SDIV PUSH6 0x9BB2DD508D0D 0xDA SLT 0xB5 LOG1 TIMESTAMP PUSH28 0x549E5364736F6C634300081200330000000000000000000000000000 "
				},
				"gasEstimates": {
					"creation": {
						"codeDepositCost": "156600",
						"executionCost": "24468",
						"totalCost": "181068"
					},
					"external": {
						"getSupply()": "2459",
						"name()": "infinite",
						"owner()": "2558",
						"setSupply(uint256)": "22520"
					}
				},
				"methodIdentifiers": {
					"getSupply()": "6c9c2faf",
					"name()": "06fdde03",
					"owner()": "8da5cb5b",
					"setSupply(uint256)": "3b4c4b25"
				}
			},
			"storageLayout": {
				"storage": [
					{
						"astId": 6,
						"contract": "Challenges/Challenge 2/Solution 2.sol:CryptosToken",
						"label": "supply",
						"offset": 0,
						"slot": "0",
						"type": "t_uint256"
					},
					{
						"astId": 8,
						"contract": "Challenges/Challenge 2/Solution 2.sol:CryptosToken",
						"label": "owner",
						"offset": 0,
						"slot": "1",
						"type": "t_address"
					}
				],
				"types": {
					"t_address": {
						"encoding": "inplace",
						"label": "address",
						"numberOfBytes": "20"
					},
					"t_uint256": {
						"encoding": "inplace",
						"label": "uint256",
						"numberOfBytes": "32"
					}
				}
			},
			"userdoc": {
				"kind": "user",
				"methods": {},
				"version": 1
			}
		}
	}
}