{
	"Challenges/Challenge 2/Question 2.sol": {
		"CryptosToken": {
			"abi": [
				{
					"inputs": [],
					"name": "getSupply",
					"outputs": [
						{
							"internalType": "uint256",
							"name": "",
							"type": "uint256"
						}
					],
					"stateMutability": "view",
					"type": "function"
				},
				{
					"inputs": [],
					"name": "name",
					"outputs": [
						{
							"internalType": "string",
							"name": "",
							"type": "string"
						}
					],
					"stateMutability": "view",
					"type": "function"
				},
				{
					"inputs": [
						{
							"internalType": "uint256",
							"name": "s",
							"type": "uint256"
						}
					],
					"name": "setSupply",
					"outputs": [],
					"stateMutability": "nonpayable",
					"type": "function"
				}
			],
			"devdoc": {
				"kind": "dev",
				"methods": {},
				"version": 1
			},
			"evm": {
				"assembly": "    /* \"Challenges/Challenge 2/Question 2.sol\":467:714  contract CryptosToken{... */\n  mstore(0x40, 0x80)\n  callvalue\n  dup1\n  iszero\n  tag_1\n  jumpi\n  0x00\n  dup1\n  revert\ntag_1:\n  pop\n  dataSize(sub_0)\n  dup1\n  dataOffset(sub_0)\n  0x00\n  codecopy\n  0x00\n  return\nstop\n\nsub_0: assembly {\n        /* \"Challenges/Challenge 2/Question 2.sol\":467:714  contract CryptosToken{... */\n      mstore(0x40, 0x80)\n      callvalue\n      dup1\n      iszero\n      tag_1\n      jumpi\n      0x00\n      dup1\n      revert\n    tag_1:\n      pop\n      jumpi(tag_2, lt(calldatasize, 0x04))\n      shr(0xe0, calldataload(0x00))\n      dup1\n      0x06fdde03\n      eq\n      tag_3\n      jumpi\n      dup1\n      0x3b4c4b25\n      eq\n      tag_4\n      jumpi\n      dup1\n      0x6c9c2faf\n      eq\n      tag_5\n      jumpi\n    tag_2:\n      0x00\n      dup1\n      revert\n        /* \"Challenges/Challenge 2/Question 2.sol\":494:533  string constant public name = \"Cryptos\" */\n    tag_3:\n      tag_6\n      tag_7\n      jump\t// in\n    tag_6:\n      mload(0x40)\n      tag_8\n      swap2\n      swap1\n      tag_9\n      jump\t// in\n    tag_8:\n      mload(0x40)\n      dup1\n      swap2\n      sub\n      swap1\n      return\n        /* \"Challenges/Challenge 2/Question 2.sol\":566:626  function setSupply(uint s) public{... */\n    tag_4:\n      tag_10\n      0x04\n      dup1\n      calldatasize\n      sub\n      dup2\n      add\n      swap1\n      tag_11\n      swap2\n      swap1\n      tag_12\n      jump\t// in\n    tag_11:\n      tag_13\n      jump\t// in\n    tag_10:\n      stop\n        /* \"Challenges/Challenge 2/Question 2.sol\":636:712  function getSupply() public view returns(uint){... */\n    tag_5:\n      tag_14\n      tag_15\n      jump\t// in\n    tag_14:\n      mload(0x40)\n      tag_16\n      swap2\n      swap1\n      tag_17\n      jump\t// in\n    tag_16:\n      mload(0x40)\n      dup1\n      swap2\n      sub\n      swap1\n      return\n        /* \"Challenges/Challenge 2/Question 2.sol\":494:533  string constant public name = \"Cryptos\" */\n    tag_7:\n      mload(0x40)\n      dup1\n      0x40\n      add\n      0x40\n      mstore\n      dup1\n      0x07\n      dup2\n      mstore\n      0x20\n      add\n      0x43727970746f7300000000000000000000000000000000000000000000000000\n      dup2\n      mstore\n      pop\n      dup2\n      jump\t// out\n        /* \"Challenges/Challenge 2/Question 2.sol\":566:626  function setSupply(uint s) public{... */\n    tag_13:\n        /* \"Challenges/Challenge 2/Question 2.sol\":618:619  s */\n      dup1\n        /* \"Challenges/Challenge 2/Question 2.sol\":609:615  supply */\n      0x00\n        /* \"Challenges/Challenge 2/Question 2.sol\":609:619  supply = s */\n      dup2\n      swap1\n      sstore\n      pop\n        /* \"Challenges/Challenge 2/Question 2.sol\":566:626  function setSupply(uint s) public{... */\n      pop\n      jump\t// out\n        /* \"Challenges/Challenge 2/Question 2.sol\":636:712  function getSupply() public view returns(uint){... */\n    tag_15:\n        /* \"Challenges/Challenge 2/Question 2.sol\":677:681  uint */\n      0x00\n        /* \"Challenges/Challenge 2/Question 2.sol\":699:705  supply */\n      dup1\n      sload\n        /* \"Challenges/Challenge 2/Question 2.sol\":692:705  return supply */\n      swap1\n      pop\n        /* \"Challenges/Challenge 2/Question 2.sol\":636:712  function getSupply() public view returns(uint){... */\n      swap1\n      jump\t// out\n        /* \"#utility.yul\":7:106   */\n    tag_20:\n        /* \"#utility.yul\":59:65   */\n      0x00\n        /* \"#utility.yul\":93:98   */\n      dup2\n        /* \"#utility.yul\":87:99   */\n      mload\n        /* \"#utility.yul\":77:99   */\n      swap1\n      pop\n        /* \"#utility.yul\":7:106   */\n      swap2\n      swap1\n      pop\n      jump\t// out\n        /* \"#utility.yul\":112:281   */\n    tag_21:\n        /* \"#utility.yul\":196:207   */\n      0x00\n        /* \"#utility.yul\":230:236   */\n      dup3\n        /* \"#utility.yul\":225:228   */\n      dup3\n        /* \"#utility.yul\":218:237   */\n      mstore\n        /* \"#utility.yul\":270:274   */\n      0x20\n        /* \"#utility.yul\":265:268   */\n      dup3\n        /* \"#utility.yul\":261:275   */\n      add\n        /* \"#utility.yul\":246:275   */\n      swap1\n      pop\n        /* \"#utility.yul\":112:281   */\n      swap3\n      swap2\n      pop\n      pop\n      jump\t// out\n        /* \"#utility.yul\":287:533   */\n    tag_22:\n        /* \"#utility.yul\":368:369   */\n      0x00\n        /* \"#utility.yul\":378:491   */\n    tag_36:\n        /* \"#utility.yul\":392:398   */\n      dup4\n        /* \"#utility.yul\":389:390   */\n      dup2\n        /* \"#utility.yul\":386:399   */\n      lt\n        /* \"#utility.yul\":378:491   */\n      iszero\n      tag_38\n      jumpi\n        /* \"#utility.yul\":477:478   */\n      dup1\n        /* \"#utility.yul\":472:475   */\n      dup3\n        /* \"#utility.yul\":468:479   */\n      add\n        /* \"#utility.yul\":462:480   */\n      mload\n        /* \"#utility.yul\":458:459   */\n      dup2\n        /* \"#utility.yul\":453:456   */\n      dup5\n        /* \"#utility.yul\":449:460   */\n      add\n        /* \"#utility.yul\":442:481   */\n      mstore\n        /* \"#utility.yul\":414:416   */\n      0x20\n        /* \"#utility.yul\":411:412   */\n      dup2\n        /* \"#utility.yul\":407:417   */\n      add\n        /* \"#utility.yul\":402:417   */\n      swap1\n      pop\n        /* \"#utility.yul\":378:491   */\n      jump(tag_36)\n    tag_38:\n        /* \"#utility.yul\":525:526   */\n      0x00\n        /* \"#utility.yul\":516:522   */\n      dup5\n        /* \"#utility.yul\":511:514   */\n      dup5\n        /* \"#utility.yul\":507:523   */\n      add\n        /* \"#utility.yul\":500:527   */\n      mstore\n        /* \"#utility.yul\":349:533   */\n      pop\n        /* \"#utility.yul\":287:533   */\n      pop\n      pop\n      pop\n      jump\t// out\n        /* \"#utility.yul\":539:641   */\n    tag_23:\n        /* \"#utility.yul\":580:586   */\n      0x00\n        /* \"#utility.yul\":631:633   */\n      0x1f\n        /* \"#utility.yul\":627:634   */\n      not\n        /* \"#utility.yul\":622:624   */\n      0x1f\n        /* \"#utility.yul\":615:620   */\n      dup4\n        /* \"#utility.yul\":611:625   */\n      add\n        /* \"#utility.yul\":607:635   */\n      and\n        /* \"#utility.yul\":597:635   */\n      swap1\n      pop\n        /* \"#utility.yul\":539:641   */\n      swap2\n      swap1\n      pop\n      jump\t// out\n        /* \"#utility.yul\":647:1024   */\n    tag_24:\n        /* \"#utility.yul\":735:738   */\n      0x00\n        /* \"#utility.yul\":763:802   */\n      tag_41\n        /* \"#utility.yul\":796:801   */\n      dup3\n        /* \"#utility.yul\":763:802   */\n      tag_20\n      jump\t// in\n    tag_41:\n        /* \"#utility.yul\":818:889   */\n      tag_42\n        /* \"#utility.yul\":882:888   */\n      dup2\n        /* \"#utility.yul\":877:880   */\n      dup6\n        /* \"#utility.yul\":818:889   */\n      tag_21\n      jump\t// in\n    tag_42:\n        /* \"#utility.yul\":811:889   */\n      swap4\n      pop\n        /* \"#utility.yul\":898:963   */\n      tag_43\n        /* \"#utility.yul\":956:962   */\n      dup2\n        /* \"#utility.yul\":951:954   */\n      dup6\n        /* \"#utility.yul\":944:948   */\n      0x20\n        /* \"#utility.yul\":937:942   */\n      dup7\n        /* \"#utility.yul\":933:949   */\n      add\n        /* \"#utility.yul\":898:963   */\n      tag_22\n      jump\t// in\n    tag_43:\n        /* \"#utility.yul\":988:1017   */\n      tag_44\n        /* \"#utility.yul\":1010:1016   */\n      dup2\n        /* \"#utility.yul\":988:1017   */\n      tag_23\n      jump\t// in\n    tag_44:\n        /* \"#utility.yul\":983:986   */\n      dup5\n        /* \"#utility.yul\":979:1018   */\n      add\n        /* \"#utility.yul\":972:1018   */\n      swap2\n      pop\n        /* \"#utility.yul\":739:1024   */\n      pop\n        /* \"#utility.yul\":647:1024   */\n      swap3\n      swap2\n      pop\n      pop\n      jump\t// out\n        /* \"#utility.yul\":1030:1343   */\n    tag_9:\n        /* \"#utility.yul\":1143:1147   */\n      0x00\n        /* \"#utility.yul\":1181:1183   */\n      0x20\n        /* \"#utility.yul\":1170:1179   */\n      dup3\n        /* \"#utility.yul\":1166:1184   */\n      add\n        /* \"#utility.yul\":1158:1184   */\n      swap1\n      pop\n        /* \"#utility.yul\":1230:1239   */\n      dup2\n        /* \"#utility.yul\":1224:1228   */\n      dup2\n        /* \"#utility.yul\":1220:1240   */\n      sub\n        /* \"#utility.yul\":1216:1217   */\n      0x00\n        /* \"#utility.yul\":1205:1214   */\n      dup4\n        /* \"#utility.yul\":1201:1218   */\n      add\n        /* \"#utility.yul\":1194:1241   */\n      mstore\n        /* \"#utility.yul\":1258:1336   */\n      tag_46\n        /* \"#utility.yul\":1331:1335   */\n      dup2\n        /* \"#utility.yul\":1322:1328   */\n      dup5\n        /* \"#utility.yul\":1258:1336   */\n      tag_24\n      jump\t// in\n    tag_46:\n        /* \"#utility.yul\":1250:1336   */\n      swap1\n      pop\n        /* \"#utility.yul\":1030:1343   */\n      swap3\n      swap2\n      pop\n      pop\n      jump\t// out\n        /* \"#utility.yul\":1430:1547   */\n    tag_26:\n        /* \"#utility.yul\":1539:1540   */\n      0x00\n        /* \"#utility.yul\":1536:1537   */\n      dup1\n        /* \"#utility.yul\":1529:1541   */\n      revert\n        /* \"#utility.yul\":1676:1753   */\n    tag_28:\n        /* \"#utility.yul\":1713:1720   */\n      0x00\n        /* \"#utility.yul\":1742:1747   */\n      dup2\n        /* \"#utility.yul\":1731:1747   */\n      swap1\n      pop\n        /* \"#utility.yul\":1676:1753   */\n      swap2\n      swap1\n      pop\n      jump\t// out\n        /* \"#utility.yul\":1759:1881   */\n    tag_29:\n        /* \"#utility.yul\":1832:1856   */\n      tag_52\n        /* \"#utility.yul\":1850:1855   */\n      dup2\n        /* \"#utility.yul\":1832:1856   */\n      tag_28\n      jump\t// in\n    tag_52:\n        /* \"#utility.yul\":1825:1830   */\n      dup2\n        /* \"#utility.yul\":1822:1857   */\n      eq\n        /* \"#utility.yul\":1812:1875   */\n      tag_53\n      jumpi\n        /* \"#utility.yul\":1871:1872   */\n      0x00\n        /* \"#utility.yul\":1868:1869   */\n      dup1\n        /* \"#utility.yul\":1861:1873   */\n      revert\n        /* \"#utility.yul\":1812:1875   */\n    tag_53:\n        /* \"#utility.yul\":1759:1881   */\n      pop\n      jump\t// out\n        /* \"#utility.yul\":1887:2026   */\n    tag_30:\n        /* \"#utility.yul\":1933:1938   */\n      0x00\n        /* \"#utility.yul\":1971:1977   */\n      dup2\n        /* \"#utility.yul\":1958:1978   */\n      calldataload\n        /* \"#utility.yul\":1949:1978   */\n      swap1\n      pop\n        /* \"#utility.yul\":1987:2020   */\n      tag_55\n        /* \"#utility.yul\":2014:2019   */\n      dup2\n        /* \"#utility.yul\":1987:2020   */\n      tag_29\n      jump\t// in\n    tag_55:\n        /* \"#utility.yul\":1887:2026   */\n      swap3\n      swap2\n      pop\n      pop\n      jump\t// out\n        /* \"#utility.yul\":2032:2361   */\n    tag_12:\n        /* \"#utility.yul\":2091:2097   */\n      0x00\n        /* \"#utility.yul\":2140:2142   */\n      0x20\n        /* \"#utility.yul\":2128:2137   */\n      dup3\n        /* \"#utility.yul\":2119:2126   */\n      dup5\n        /* \"#utility.yul\":2115:2138   */\n      sub\n        /* \"#utility.yul\":2111:2143   */\n      slt\n        /* \"#utility.yul\":2108:2227   */\n      iszero\n      tag_57\n      jumpi\n        /* \"#utility.yul\":2146:2225   */\n      tag_58\n      tag_26\n      jump\t// in\n    tag_58:\n        /* \"#utility.yul\":2108:2227   */\n    tag_57:\n        /* \"#utility.yul\":2266:2267   */\n      0x00\n        /* \"#utility.yul\":2291:2344   */\n      tag_59\n        /* \"#utility.yul\":2336:2343   */\n      dup5\n        /* \"#utility.yul\":2327:2333   */\n      dup3\n        /* \"#utility.yul\":2316:2325   */\n      dup6\n        /* \"#utility.yul\":2312:2334   */\n      add\n        /* \"#utility.yul\":2291:2344   */\n      tag_30\n      jump\t// in\n    tag_59:\n        /* \"#utility.yul\":2281:2344   */\n      swap2\n      pop\n        /* \"#utility.yul\":2237:2354   */\n      pop\n        /* \"#utility.yul\":2032:2361   */\n      swap3\n      swap2\n      pop\n      pop\n      jump\t// out\n        /* \"#utility.yul\":2367:2485   */\n    tag_31:\n        /* \"#utility.yul\":2454:2478   */\n      tag_61\n        /* \"#utility.yul\":2472:2477   */\n      dup2\n        /* \"#utility.yul\":2454:2478   */\n      tag_28\n      jump\t// in\n    tag_61:\n        /* \"#utility.yul\":2449:2452   */\n      dup3\n        /* \"#utility.yul\":2442:2479   */\n      mstore\n        /* \"#utility.yul\":2367:2485   */\n      pop\n      pop\n      jump\t// out\n        /* \"#utility.yul\":2491:2713   */\n    tag_17:\n        /* \"#utility.yul\":2584:2588   */\n      0x00\n        /* \"#utility.yul\":2622:2624   */\n      0x20\n        /* \"#utility.yul\":2611:2620   */\n      dup3\n        /* \"#utility.yul\":2607:2625   */\n      add\n        /* \"#utility.yul\":2599:2625   */\n      swap1\n      pop\n        /* \"#utility.yul\":2635:2706   */\n      tag_63\n        /* \"#utility.yul\":2703:2704   */\n      0x00\n        /* \"#utility.yul\":2692:2701   */\n      dup4\n        /* \"#utility.yul\":2688:2705   */\n      add\n        /* \"#utility.yul\":2679:2685   */\n      dup5\n        /* \"#utility.yul\":2635:2706   */\n      tag_31\n      jump\t// in\n    tag_63:\n        /* \"#utility.yul\":2491:2713   */\n      swap3\n      swap2\n      pop\n      pop\n      jump\t// out\n\n    auxdata: 0xa264697066735822122005d2dace6f0d6af1035558443c9d5ba320fe2cfcb35a9a7ed6c58992caebb83f64736f6c63430008120033\n}\n",
				"bytecode": {
					"linkReferences": {},
					"object": "608060405234801561001057600080fd5b50610264806100206000396000f3fe608060405234801561001057600080fd5b50600436106100415760003560e01c806306fdde03146100465780633b4c4b25146100645780636c9c2faf14610080575b600080fd5b61004e61009e565b60405161005b919061017a565b60405180910390f35b61007e600480360381019061007991906101d7565b6100d7565b005b6100886100e1565b6040516100959190610213565b60405180910390f35b6040518060400160405280600781526020017f43727970746f730000000000000000000000000000000000000000000000000081525081565b8060008190555050565b60008054905090565b600081519050919050565b600082825260208201905092915050565b60005b83811015610124578082015181840152602081019050610109565b60008484015250505050565b6000601f19601f8301169050919050565b600061014c826100ea565b61015681856100f5565b9350610166818560208601610106565b61016f81610130565b840191505092915050565b600060208201905081810360008301526101948184610141565b905092915050565b600080fd5b6000819050919050565b6101b4816101a1565b81146101bf57600080fd5b50565b6000813590506101d1816101ab565b92915050565b6000602082840312156101ed576101ec61019c565b5b60006101fb848285016101c2565b91505092915050565b61020d816101a1565b82525050565b60006020820190506102286000830184610204565b9291505056fea264697066735822122005d2dace6f0d6af1035558443c9d5ba320fe2cfcb35a9a7ed6c58992caebb83f64736f6c63430008120033",
					"opcodes": "PUSH1 0x80 PUSH1 0x40 MSTORE CALLVALUE DUP1 ISZERO PUSH2 0x10 JUMPI PUSH1 0x0 DUP1 REVERT JUMPDEST POP PUSH2 0x264 DUP1 PUSH2 0x20 PUSH1 0x0 CODECOPY PUSH1 0x0 RETURN INVALID PUSH1 0x80 PUSH1 0x40 MSTORE CALLVALUE DUP1 ISZERO PUSH2 0x10 JUMPI PUSH1 0x0 DUP1 REVERT JUMPDEST POP PUSH1 0x4 CALLDATASIZE LT PUSH2 0x41 JUMPI PUSH1 0x0 CALLDATALOAD PUSH1 0xE0 SHR DUP1 PUSH4 0x6FDDE03 EQ PUSH2 0x46 JUMPI DUP1 PUSH4 0x3B4C4B25 EQ PUSH2 0x64 JUMPI DUP1 PUSH4 0x6C9C2FAF EQ PUSH2 0x80 JUMPI JUMPDEST PUSH1 0x0 DUP1 REVERT JUMPDEST PUSH2 0x4E PUSH2 0x9E JUMP JUMPDEST PUSH1 0x40 MLOAD PUSH2 0x5B SWAP2 SWAP1 PUSH2 0x17A JUMP JUMPDEST PUSH1 0x40 MLOAD DUP1 SWAP2 SUB SWAP1 RETURN JUMPDEST PUSH2 0x7E PUSH1 0x4 DUP1 CALLDATASIZE SUB DUP2 ADD SWAP1 PUSH2 0x79 SWAP2 SWAP1 PUSH2 0x1D7 JUMP JUMPDEST PUSH2 0xD7 JUMP JUMPDEST STOP JUMPDEST PUSH2 0x88 PUSH2 0xE1 JUMP JUMPDEST PUSH1 0x40 MLOAD PUSH2 0x95 SWAP2 SWAP1 PUSH2 0x213 JUMP JUMPDEST PUSH1 0x40 MLOAD DUP1 SWAP2 SUB SWAP1 RETURN JUMPDEST PUSH1 0x40 MLOAD DUP1 PUSH1 0x40 ADD PUSH1 0x40 MSTORE DUP1 PUSH1 0x7 DUP2 MSTORE PUSH1 0x20 ADD PUSH32 0x43727970746F7300000000000000000000000000000000000000000000000000 DUP2 MSTORE POP DUP2 JUMP JUMPDEST DUP1 PUSH1 0x0 DUP2 SWAP1 SSTORE POP POP JUMP JUMPDEST PUSH1 0x0 DUP1 SLOAD SWAP1 POP SWAP1 JUMP JUMPDEST PUSH1 0x0 DUP2 MLOAD SWAP1 POP SWAP2 SWAP1 POP JUMP JUMPDEST PUSH1 0x0 DUP3 DUP3 MSTORE PUSH1 0x20 DUP3 ADD SWAP1 POP SWAP3 SWAP2 POP POP JUMP JUMPDEST PUSH1 0x0 JUMPDEST DUP4 DUP2 LT ISZERO PUSH2 0x124 JUMPI DUP1 DUP3 ADD MLOAD DUP2 DUP5 ADD MSTORE PUSH1 0x20 DUP2 ADD SWAP1 POP PUSH2 0x109 JUMP JUMPDEST PUSH1 0x0 DUP5 DUP5 ADD MSTORE POP POP POP POP JUMP JUMPDEST PUSH1 0x0 PUSH1 0x1F NOT PUSH1 0x1F DUP4 ADD AND SWAP1 POP SWAP2 SWAP1 POP JUMP JUMPDEST PUSH1 0x0 PUSH2 0x14C DUP3 PUSH2 0xEA JUMP JUMPDEST PUSH2 0x156 DUP2 DUP6 PUSH2 0xF5 JUMP JUMPDEST SWAP4 POP PUSH2 0x166 DUP2 DUP6 PUSH1 0x20 DUP7 ADD PUSH2 0x106 JUMP JUMPDEST PUSH2 0x16F DUP2 PUSH2 0x130 JUMP JUMPDEST DUP5 ADD SWAP2 POP POP SWAP3 SWAP2 POP POP JUMP JUMPDEST PUSH1 0x0 PUSH1 0x20 DUP3 ADD SWAP1 POP DUP2 DUP2 SUB PUSH1 0x0 DUP4 ADD MSTORE PUSH2 0x194 DUP2 DUP5 PUSH2 0x141 JUMP JUMPDEST SWAP1 POP SWAP3 SWAP2 POP POP JUMP JUMPDEST PUSH1 0x0 DUP1 REVERT JUMPDEST PUSH1 0x0 DUP2 SWAP1 POP SWAP2 SWAP1 POP JUMP JUMPDEST PUSH2 0x1B4 DUP2 PUSH2 0x1A1 JUMP JUMPDEST DUP2 EQ PUSH2 0x1BF JUMPI PUSH1 0x0 DUP1 REVERT JUMPDEST POP JUMP JUMPDEST PUSH1 0x0 DUP2 CALLDATALOAD SWAP1 POP PUSH2 0x1D1 DUP2 PUSH2 0x1AB JUMP JUMPDEST SWAP3 SWAP2 POP POP JUMP JUMPDEST PUSH1 0x0 PUSH1 0x20 DUP3 DUP5 SUB SLT ISZERO PUSH2 0x1ED JUMPI PUSH2 0x1EC PUSH2 0x19C JUMP JUMPDEST JUMPDEST PUSH1 0x0 PUSH2 0x1FB DUP5 DUP3 DUP6 ADD PUSH2 0x1C2 JUMP JUMPDEST SWAP2 POP POP SWAP3 SWAP2 POP POP JUMP JUMPDEST PUSH2 0x20D DUP2 PUSH2 0x1A1 JUMP JUMPDEST DUP3 MSTORE POP POP JUMP JUMPDEST PUSH1 0x0 PUSH1 0x20 DUP3 ADD SWAP1 POP PUSH2 0x228 PUSH1 0x0 DUP4 ADD DUP5 PUSH2 0x204 JUMP JUMPDEST SWAP3 SWAP2 POP POP JUMP INVALID LOG2 PUSH5 0x6970667358 0x22 SLT KECCAK256 SDIV 0xD2 0xDA 0xCE PUSH16 0xD6AF1035558443C9D5BA320FE2CFCB3 GAS SWAP11 PUSH31 0xD6C58992CAEBB83F64736F6C63430008120033000000000000000000000000 "
				},
				"gasEstimates": {
					"creation": {
						"codeDepositCost": "122400",
						"executionCost": "171",
						"totalCost": "122571"
					},
					"external": {
						"getSupply()": "2459",
						"name()": "infinite",
						"setSupply(uint256)": "22520"
					}
				},
				"methodIdentifiers": {
					"getSupply()": "6c9c2faf",
					"name()": "06fdde03",
					"setSupply(uint256)": "3b4c4b25"
				}
			},
			"storageLayout": {
				"storage": [
					{
						"astId": 6,
						"contract": "Challenges/Challenge 2/Question 2.sol:CryptosToken",
						"label": "supply",
						"offset": 0,
						"slot": "0",
						"type": "t_uint256"
					}
				],
				"types": {
					"t_uint256": {
						"encoding": "inplace",
						"label": "uint256",
						"numberOfBytes": "32"
					}
				}
			},
			"userdoc": {
				"kind": "user",
				"methods": {},
				"version": 1
			}
		}
	}
}