{
	"contracts/12-Variables and Function Visibilty.sol": {
		"A": {
			"abi": [
				{
					"inputs": [],
					"name": "f2",
					"outputs": [
						{
							"internalType": "int256",
							"name": "",
							"type": "int256"
						}
					],
					"stateMutability": "view",
					"type": "function"
				},
				{
					"inputs": [],
					"name": "f4",
					"outputs": [
						{
							"internalType": "int256",
							"name": "",
							"type": "int256"
						}
					],
					"stateMutability": "view",
					"type": "function"
				},
				{
					"inputs": [],
					"name": "f5",
					"outputs": [
						{
							"internalType": "int256",
							"name": "",
							"type": "int256"
						}
					],
					"stateMutability": "pure",
					"type": "function"
				},
				{
					"inputs": [],
					"name": "get_y",
					"outputs": [
						{
							"internalType": "int256",
							"name": "",
							"type": "int256"
						}
					],
					"stateMutability": "view",
					"type": "function"
				},
				{
					"inputs": [],
					"name": "x",
					"outputs": [
						{
							"internalType": "int256",
							"name": "",
							"type": "int256"
						}
					],
					"stateMutability": "view",
					"type": "function"
				}
			],
			"devdoc": {
				"kind": "dev",
				"methods": {},
				"version": 1
			},
			"evm": {
				"assembly": "    /* \"contracts/12-Variables and Function Visibilty.sol\":91:1019  contract A{... */\n  mstore(0x40, 0x80)\n    /* \"contracts/12-Variables and Function Visibilty.sol\":126:128  10 */\n  0x0a\n    /* \"contracts/12-Variables and Function Visibilty.sol\":111:128  int public x = 10 */\n  0x00\n  sstore\n    /* \"contracts/12-Variables and Function Visibilty.sol\":146:148  20 */\n  0x14\n    /* \"contracts/12-Variables and Function Visibilty.sol\":138:148  int y = 20 */\n  0x01\n  sstore\n    /* \"contracts/12-Variables and Function Visibilty.sol\":91:1019  contract A{... */\n  callvalue\n  dup1\n  iszero\n  tag_1\n  jumpi\n  0x00\n  dup1\n  revert\ntag_1:\n  pop\n  dataSize(sub_0)\n  dup1\n  dataOffset(sub_0)\n  0x00\n  codecopy\n  0x00\n  return\nstop\n\nsub_0: assembly {\n        /* \"contracts/12-Variables and Function Visibilty.sol\":91:1019  contract A{... */\n      mstore(0x40, 0x80)\n      callvalue\n      dup1\n      iszero\n      tag_1\n      jumpi\n      0x00\n      dup1\n      revert\n    tag_1:\n      pop\n      jumpi(tag_2, lt(calldatasize, 0x04))\n      shr(0xe0, calldataload(0x00))\n      dup1\n      0x0c55699c\n      eq\n      tag_3\n      jumpi\n      dup1\n      0x28d69c6d\n      eq\n      tag_4\n      jumpi\n      dup1\n      0x3c9d377d\n      eq\n      tag_5\n      jumpi\n      dup1\n      0x9942ec6f\n      eq\n      tag_6\n      jumpi\n      dup1\n      0xc3f90202\n      eq\n      tag_7\n      jumpi\n    tag_2:\n      0x00\n      dup1\n      revert\n        /* \"contracts/12-Variables and Function Visibilty.sol\":111:128  int public x = 10 */\n    tag_3:\n      tag_8\n      tag_9\n      jump\t// in\n    tag_8:\n      mload(0x40)\n      tag_10\n      swap2\n      swap1\n      tag_11\n      jump\t// in\n    tag_10:\n      mload(0x40)\n      dup1\n      swap2\n      sub\n      swap1\n      return\n        /* \"contracts/12-Variables and Function Visibilty.sol\":190:264  function get_y() public view returns(int){... */\n    tag_4:\n      tag_12\n      tag_13\n      jump\t// in\n    tag_12:\n      mload(0x40)\n      tag_14\n      swap2\n      swap1\n      tag_11\n      jump\t// in\n    tag_14:\n      mload(0x40)\n      dup1\n      swap2\n      sub\n      swap1\n      return\n        /* \"contracts/12-Variables and Function Visibilty.sol\":684:1013  function f5() public pure returns(int){... */\n    tag_5:\n      tag_15\n      tag_16\n      jump\t// in\n    tag_15:\n      mload(0x40)\n      tag_17\n      swap2\n      swap1\n      tag_11\n      jump\t// in\n    tag_17:\n      mload(0x40)\n      dup1\n      swap2\n      sub\n      swap1\n      return\n        /* \"contracts/12-Variables and Function Visibilty.sol\":372:484  function f2() public view returns(int){... */\n    tag_6:\n      tag_18\n      tag_19\n      jump\t// in\n    tag_18:\n      mload(0x40)\n      tag_20\n      swap2\n      swap1\n      tag_11\n      jump\t// in\n    tag_20:\n      mload(0x40)\n      dup1\n      swap2\n      sub\n      swap1\n      return\n        /* \"contracts/12-Variables and Function Visibilty.sol\":593:666  function f4() external view returns(int){... */\n    tag_7:\n      tag_21\n      tag_22\n      jump\t// in\n    tag_21:\n      mload(0x40)\n      tag_23\n      swap2\n      swap1\n      tag_11\n      jump\t// in\n    tag_23:\n      mload(0x40)\n      dup1\n      swap2\n      sub\n      swap1\n      return\n        /* \"contracts/12-Variables and Function Visibilty.sol\":111:128  int public x = 10 */\n    tag_9:\n      sload(0x00)\n      dup2\n      jump\t// out\n        /* \"contracts/12-Variables and Function Visibilty.sol\":190:264  function get_y() public view returns(int){... */\n    tag_13:\n        /* \"contracts/12-Variables and Function Visibilty.sol\":227:230  int */\n      0x00\n        /* \"contracts/12-Variables and Function Visibilty.sol\":252:253  y */\n      sload(0x01)\n        /* \"contracts/12-Variables and Function Visibilty.sol\":245:253  return y */\n      swap1\n      pop\n        /* \"contracts/12-Variables and Function Visibilty.sol\":190:264  function get_y() public view returns(int){... */\n      swap1\n      jump\t// out\n        /* \"contracts/12-Variables and Function Visibilty.sol\":684:1013  function f5() public pure returns(int){... */\n    tag_16:\n        /* \"contracts/12-Variables and Function Visibilty.sol\":718:721  int */\n      0x00\n        /* \"contracts/12-Variables and Function Visibilty.sol\":736:741  int b */\n      dup1\n        /* \"contracts/12-Variables and Function Visibilty.sol\":1001:1002  b */\n      dup1\n        /* \"contracts/12-Variables and Function Visibilty.sol\":994:1002  return b */\n      swap2\n      pop\n      pop\n        /* \"contracts/12-Variables and Function Visibilty.sol\":684:1013  function f5() public pure returns(int){... */\n      swap1\n      jump\t// out\n        /* \"contracts/12-Variables and Function Visibilty.sol\":372:484  function f2() public view returns(int){... */\n    tag_19:\n        /* \"contracts/12-Variables and Function Visibilty.sol\":406:409  int */\n      0x00\n        /* \"contracts/12-Variables and Function Visibilty.sol\":424:429  int a */\n      dup1\n        /* \"contracts/12-Variables and Function Visibilty.sol\":447:451  f1() */\n      tag_27\n        /* \"contracts/12-Variables and Function Visibilty.sol\":447:449  f1 */\n      tag_28\n        /* \"contracts/12-Variables and Function Visibilty.sol\":447:451  f1() */\n      jump\t// in\n    tag_27:\n        /* \"contracts/12-Variables and Function Visibilty.sol\":443:451  a = f1() */\n      swap1\n      pop\n        /* \"contracts/12-Variables and Function Visibilty.sol\":472:473  a */\n      dup1\n        /* \"contracts/12-Variables and Function Visibilty.sol\":465:473  return a */\n      swap2\n      pop\n      pop\n        /* \"contracts/12-Variables and Function Visibilty.sol\":372:484  function f2() public view returns(int){... */\n      swap1\n      jump\t// out\n        /* \"contracts/12-Variables and Function Visibilty.sol\":593:666  function f4() external view returns(int){... */\n    tag_22:\n        /* \"contracts/12-Variables and Function Visibilty.sol\":629:632  int */\n      0x00\n        /* \"contracts/12-Variables and Function Visibilty.sol\":654:655  x */\n      dup1\n      sload\n        /* \"contracts/12-Variables and Function Visibilty.sol\":647:655  return x */\n      swap1\n      pop\n        /* \"contracts/12-Variables and Function Visibilty.sol\":593:666  function f4() external view returns(int){... */\n      swap1\n      jump\t// out\n        /* \"contracts/12-Variables and Function Visibilty.sol\":282:354  function f1() private view returns(int){... */\n    tag_28:\n        /* \"contracts/12-Variables and Function Visibilty.sol\":317:320  int */\n      0x00\n        /* \"contracts/12-Variables and Function Visibilty.sol\":342:343  x */\n      dup1\n      sload\n        /* \"contracts/12-Variables and Function Visibilty.sol\":335:343  return x */\n      swap1\n      pop\n        /* \"contracts/12-Variables and Function Visibilty.sol\":282:354  function f1() private view returns(int){... */\n      swap1\n      jump\t// out\n        /* \"#utility.yul\":7:83   */\n    tag_31:\n        /* \"#utility.yul\":43:50   */\n      0x00\n        /* \"#utility.yul\":72:77   */\n      dup2\n        /* \"#utility.yul\":61:77   */\n      swap1\n      pop\n        /* \"#utility.yul\":7:83   */\n      swap2\n      swap1\n      pop\n      jump\t// out\n        /* \"#utility.yul\":89:204   */\n    tag_32:\n        /* \"#utility.yul\":174:197   */\n      tag_36\n        /* \"#utility.yul\":191:196   */\n      dup2\n        /* \"#utility.yul\":174:197   */\n      tag_31\n      jump\t// in\n    tag_36:\n        /* \"#utility.yul\":169:172   */\n      dup3\n        /* \"#utility.yul\":162:198   */\n      mstore\n        /* \"#utility.yul\":89:204   */\n      pop\n      pop\n      jump\t// out\n        /* \"#utility.yul\":210:428   */\n    tag_11:\n        /* \"#utility.yul\":301:305   */\n      0x00\n        /* \"#utility.yul\":339:341   */\n      0x20\n        /* \"#utility.yul\":328:337   */\n      dup3\n        /* \"#utility.yul\":324:342   */\n      add\n        /* \"#utility.yul\":316:342   */\n      swap1\n      pop\n        /* \"#utility.yul\":352:421   */\n      tag_38\n        /* \"#utility.yul\":418:419   */\n      0x00\n        /* \"#utility.yul\":407:416   */\n      dup4\n        /* \"#utility.yul\":403:420   */\n      add\n        /* \"#utility.yul\":394:400   */\n      dup5\n        /* \"#utility.yul\":352:421   */\n      tag_32\n      jump\t// in\n    tag_38:\n        /* \"#utility.yul\":210:428   */\n      swap3\n      swap2\n      pop\n      pop\n      jump\t// out\n\n    auxdata: 0xa2646970667358221220cbad0c704a20bdfa03b75bb2455fc04fa175aca5d2be6418a0eabedb7b4becfd64736f6c63430008120033\n}\n",
				"bytecode": {
					"linkReferences": {},
					"object": "6080604052600a600055601460015534801561001a57600080fd5b5061019c8061002a6000396000f3fe608060405234801561001057600080fd5b50600436106100575760003560e01c80630c55699c1461005c57806328d69c6d1461007a5780633c9d377d146100985780639942ec6f146100b6578063c3f90202146100d4575b600080fd5b6100646100f2565b604051610071919061014b565b60405180910390f35b6100826100f8565b60405161008f919061014b565b60405180910390f35b6100a0610102565b6040516100ad919061014b565b60405180910390f35b6100be61010c565b6040516100cb919061014b565b60405180910390f35b6100dc610120565b6040516100e9919061014b565b60405180910390f35b60005481565b6000600154905090565b6000808091505090565b600080610117610129565b90508091505090565b60008054905090565b60008054905090565b6000819050919050565b61014581610132565b82525050565b6000602082019050610160600083018461013c565b9291505056fea2646970667358221220cbad0c704a20bdfa03b75bb2455fc04fa175aca5d2be6418a0eabedb7b4becfd64736f6c63430008120033",
					"opcodes": "PUSH1 0x80 PUSH1 0x40 MSTORE PUSH1 0xA PUSH1 0x0 SSTORE PUSH1 0x14 PUSH1 0x1 SSTORE CALLVALUE DUP1 ISZERO PUSH2 0x1A JUMPI PUSH1 0x0 DUP1 REVERT JUMPDEST POP PUSH2 0x19C DUP1 PUSH2 0x2A PUSH1 0x0 CODECOPY PUSH1 0x0 RETURN INVALID PUSH1 0x80 PUSH1 0x40 MSTORE CALLVALUE DUP1 ISZERO PUSH2 0x10 JUMPI PUSH1 0x0 DUP1 REVERT JUMPDEST POP PUSH1 0x4 CALLDATASIZE LT PUSH2 0x57 JUMPI PUSH1 0x0 CALLDATALOAD PUSH1 0xE0 SHR DUP1 PUSH4 0xC55699C EQ PUSH2 0x5C JUMPI DUP1 PUSH4 0x28D69C6D EQ PUSH2 0x7A JUMPI DUP1 PUSH4 0x3C9D377D EQ PUSH2 0x98 JUMPI DUP1 PUSH4 0x9942EC6F EQ PUSH2 0xB6 JUMPI DUP1 PUSH4 0xC3F90202 EQ PUSH2 0xD4 JUMPI JUMPDEST PUSH1 0x0 DUP1 REVERT JUMPDEST PUSH2 0x64 PUSH2 0xF2 JUMP JUMPDEST PUSH1 0x40 MLOAD PUSH2 0x71 SWAP2 SWAP1 PUSH2 0x14B JUMP JUMPDEST PUSH1 0x40 MLOAD DUP1 SWAP2 SUB SWAP1 RETURN JUMPDEST PUSH2 0x82 PUSH2 0xF8 JUMP JUMPDEST PUSH1 0x40 MLOAD PUSH2 0x8F SWAP2 SWAP1 PUSH2 0x14B JUMP JUMPDEST PUSH1 0x40 MLOAD DUP1 SWAP2 SUB SWAP1 RETURN JUMPDEST PUSH2 0xA0 PUSH2 0x102 JUMP JUMPDEST PUSH1 0x40 MLOAD PUSH2 0xAD SWAP2 SWAP1 PUSH2 0x14B JUMP JUMPDEST PUSH1 0x40 MLOAD DUP1 SWAP2 SUB SWAP1 RETURN JUMPDEST PUSH2 0xBE PUSH2 0x10C JUMP JUMPDEST PUSH1 0x40 MLOAD PUSH2 0xCB SWAP2 SWAP1 PUSH2 0x14B JUMP JUMPDEST PUSH1 0x40 MLOAD DUP1 SWAP2 SUB SWAP1 RETURN JUMPDEST PUSH2 0xDC PUSH2 0x120 JUMP JUMPDEST PUSH1 0x40 MLOAD PUSH2 0xE9 SWAP2 SWAP1 PUSH2 0x14B JUMP JUMPDEST PUSH1 0x40 MLOAD DUP1 SWAP2 SUB SWAP1 RETURN JUMPDEST PUSH1 0x0 SLOAD DUP2 JUMP JUMPDEST PUSH1 0x0 PUSH1 0x1 SLOAD SWAP1 POP SWAP1 JUMP JUMPDEST PUSH1 0x0 DUP1 DUP1 SWAP2 POP POP SWAP1 JUMP JUMPDEST PUSH1 0x0 DUP1 PUSH2 0x117 PUSH2 0x129 JUMP JUMPDEST SWAP1 POP DUP1 SWAP2 POP POP SWAP1 JUMP JUMPDEST PUSH1 0x0 DUP1 SLOAD SWAP1 POP SWAP1 JUMP JUMPDEST PUSH1 0x0 DUP1 SLOAD SWAP1 POP SWAP1 JUMP JUMPDEST PUSH1 0x0 DUP2 SWAP1 POP SWAP2 SWAP1 POP JUMP JUMPDEST PUSH2 0x145 DUP2 PUSH2 0x132 JUMP JUMPDEST DUP3 MSTORE POP POP JUMP JUMPDEST PUSH1 0x0 PUSH1 0x20 DUP3 ADD SWAP1 POP PUSH2 0x160 PUSH1 0x0 DUP4 ADD DUP5 PUSH2 0x13C JUMP JUMPDEST SWAP3 SWAP2 POP POP JUMP INVALID LOG2 PUSH5 0x6970667358 0x22 SLT KECCAK256 0xCB 0xAD 0xC PUSH17 0x4A20BDFA03B75BB2455FC04FA175ACA5D2 0xBE PUSH5 0x18A0EABEDB PUSH28 0x4BECFD64736F6C634300081200330000000000000000000000000000 "
				},
				"gasEstimates": {
					"creation": {
						"codeDepositCost": "82400",
						"executionCost": "44341",
						"totalCost": "126741"
					},
					"external": {
						"f2()": "2529",
						"f4()": "2503",
						"f5()": "364",
						"get_y()": "2437",
						"x()": "2407"
					},
					"internal": {
						"f1()": "2123",
						"f3()": "infinite"
					}
				},
				"methodIdentifiers": {
					"f2()": "9942ec6f",
					"f4()": "c3f90202",
					"f5()": "3c9d377d",
					"get_y()": "28d69c6d",
					"x()": "0c55699c"
				}
			},
			"storageLayout": {
				"storage": [
					{
						"astId": 4,
						"contract": "contracts/12-Variables and Function Visibilty.sol:A",
						"label": "x",
						"offset": 0,
						"slot": "0",
						"type": "t_int256"
					},
					{
						"astId": 7,
						"contract": "contracts/12-Variables and Function Visibilty.sol:A",
						"label": "y",
						"offset": 0,
						"slot": "1",
						"type": "t_int256"
					}
				],
				"types": {
					"t_int256": {
						"encoding": "inplace",
						"label": "int256",
						"numberOfBytes": "32"
					}
				}
			},
			"userdoc": {
				"kind": "user",
				"methods": {},
				"version": 1
			}
		}
	}
}