{
	"contracts/15_Constant and Immutable.sol": {
		"FundMe": {
			"abi": [
				{
					"inputs": [],
					"stateMutability": "nonpayable",
					"type": "constructor"
				},
				{
					"inputs": [],
					"name": "NotOwner",
					"type": "error"
				},
				{
					"stateMutability": "payable",
					"type": "fallback"
				},
				{
					"inputs": [],
					"name": "MINIMUM_USD",
					"outputs": [
						{
							"internalType": "uint256",
							"name": "",
							"type": "uint256"
						}
					],
					"stateMutability": "view",
					"type": "function"
				},
				{
					"inputs": [
						{
							"internalType": "address",
							"name": "",
							"type": "address"
						}
					],
					"name": "addressToAmountFunded",
					"outputs": [
						{
							"internalType": "uint256",
							"name": "",
							"type": "uint256"
						}
					],
					"stateMutability": "view",
					"type": "function"
				},
				{
					"inputs": [],
					"name": "fund",
					"outputs": [],
					"stateMutability": "payable",
					"type": "function"
				},
				{
					"inputs": [
						{
							"internalType": "uint256",
							"name": "",
							"type": "uint256"
						}
					],
					"name": "funders",
					"outputs": [
						{
							"internalType": "address",
							"name": "",
							"type": "address"
						}
					],
					"stateMutability": "view",
					"type": "function"
				},
				{
					"inputs": [],
					"name": "owner",
					"outputs": [
						{
							"internalType": "address",
							"name": "",
							"type": "address"
						}
					],
					"stateMutability": "view",
					"type": "function"
				},
				{
					"inputs": [],
					"name": "withdraw",
					"outputs": [],
					"stateMutability": "nonpayable",
					"type": "function"
				},
				{
					"stateMutability": "payable",
					"type": "receive"
				}
			],
			"devdoc": {
				"kind": "dev",
				"methods": {},
				"version": 1
			},
			"evm": {
				"assembly": "    /* \"contracts/15_Constant and Immutable.sol\":261:1774  contract FundMe {... */\n  mstore(0x40, 0xa0)\n    /* \"contracts/15_Constant and Immutable.sol\":918:967  constructor() {... */\n  callvalue\n  dup1\n  iszero\n  tag_1\n  jumpi\n  0x00\n  dup1\n  revert\ntag_1:\n  pop\n    /* \"contracts/15_Constant and Immutable.sol\":950:960  msg.sender */\n  caller\n    /* \"contracts/15_Constant and Immutable.sol\":942:960  owner = msg.sender */\n  0xffffffffffffffffffffffffffffffffffffffff\n  and\n  0x80\n  dup2\n  0xffffffffffffffffffffffffffffffffffffffff\n  and\n  dup2\n  mstore\n  pop\n  pop\n    /* \"contracts/15_Constant and Immutable.sol\":261:1774  contract FundMe {... */\n  mload(0x80)\n  codecopy(0x00, dataOffset(sub_0), dataSize(sub_0))\n  0x00\n  assignImmutable(\"0x7f8b6b088b6d74c2852fc86c796dca07b44eed6fb3daf5e6b59f7c364db14528\")\n  return(0x00, dataSize(sub_0))\nstop\n\nsub_0: assembly {\n        /* \"contracts/15_Constant and Immutable.sol\":261:1774  contract FundMe {... */\n      mstore(0x40, 0x80)\n      jumpi(tag_1, lt(calldatasize, 0x04))\n      shr(0xe0, calldataload(0x00))\n      dup1\n      0x3ccfd60b\n      eq\n      tag_3\n      jumpi\n      dup1\n      0x3e47d6f3\n      eq\n      tag_4\n      jumpi\n      dup1\n      0x6b69a592\n      eq\n      tag_5\n      jumpi\n      dup1\n      0x8da5cb5b\n      eq\n      tag_6\n      jumpi\n      dup1\n      0xb60d4288\n      eq\n      tag_7\n      jumpi\n      dup1\n      0xdc0d3dff\n      eq\n      tag_8\n      jumpi\n      jump(tag_2)\n    tag_1:\n      jumpi(tag_2, calldatasize)\n        /* \"contracts/15_Constant and Immutable.sol\":1758:1764  fund() */\n      tag_11\n        /* \"contracts/15_Constant and Immutable.sol\":1758:1762  fund */\n      tag_12\n        /* \"contracts/15_Constant and Immutable.sol\":1758:1764  fund() */\n      jump\t// in\n    tag_11:\n        /* \"contracts/15_Constant and Immutable.sol\":261:1774  contract FundMe {... */\n      stop\n    tag_2:\n        /* \"contracts/15_Constant and Immutable.sol\":1702:1708  fund() */\n      tag_15\n        /* \"contracts/15_Constant and Immutable.sol\":1702:1706  fund */\n      tag_12\n        /* \"contracts/15_Constant and Immutable.sol\":1702:1708  fund() */\n      jump\t// in\n    tag_15:\n        /* \"contracts/15_Constant and Immutable.sol\":261:1774  contract FundMe {... */\n      stop\n        /* \"contracts/15_Constant and Immutable.sol\":1251:1658  function withdraw() public onlyOwner {... */\n    tag_3:\n      callvalue\n      dup1\n      iszero\n      tag_16\n      jumpi\n      0x00\n      dup1\n      revert\n    tag_16:\n      pop\n      tag_17\n      tag_18\n      jump\t// in\n    tag_17:\n      stop\n        /* \"contracts/15_Constant and Immutable.sol\":283:339  mapping(address => uint256) public addressToAmountFunded */\n    tag_4:\n      callvalue\n      dup1\n      iszero\n      tag_19\n      jumpi\n      0x00\n      dup1\n      revert\n    tag_19:\n      pop\n      tag_20\n      0x04\n      dup1\n      calldatasize\n      sub\n      dup2\n      add\n      swap1\n      tag_21\n      swap2\n      swap1\n      tag_22\n      jump\t// in\n    tag_21:\n      tag_23\n      jump\t// in\n    tag_20:\n      mload(0x40)\n      tag_24\n      swap2\n      swap1\n      tag_25\n      jump\t// in\n    tag_24:\n      mload(0x40)\n      dup1\n      swap2\n      sub\n      swap1\n      return\n        /* \"contracts/15_Constant and Immutable.sol\":857:907  uint256 public constant MINIMUM_USD = 5 * 10 ** 18 */\n    tag_5:\n      callvalue\n      dup1\n      iszero\n      tag_26\n      jumpi\n      0x00\n      dup1\n      revert\n    tag_26:\n      pop\n      tag_27\n      tag_28\n      jump\t// in\n    tag_27:\n      mload(0x40)\n      tag_29\n      swap2\n      swap1\n      tag_25\n      jump\t// in\n    tag_29:\n      mload(0x40)\n      dup1\n      swap2\n      sub\n      swap1\n      return\n        /* \"contracts/15_Constant and Immutable.sol\":608:638  address public immutable owner */\n    tag_6:\n      callvalue\n      dup1\n      iszero\n      tag_30\n      jumpi\n      0x00\n      dup1\n      revert\n    tag_30:\n      pop\n      tag_31\n      tag_32\n      jump\t// in\n    tag_31:\n      mload(0x40)\n      tag_33\n      swap2\n      swap1\n      tag_34\n      jump\t// in\n    tag_33:\n      mload(0x40)\n      dup1\n      swap2\n      sub\n      swap1\n      return\n        /* \"contracts/15_Constant and Immutable.sol\":973:1101  function fund() public payable {... */\n    tag_7:\n      tag_35\n      tag_12\n      jump\t// in\n    tag_35:\n      stop\n        /* \"contracts/15_Constant and Immutable.sol\":345:369  address[] public funders */\n    tag_8:\n      callvalue\n      dup1\n      iszero\n      tag_36\n      jumpi\n      0x00\n      dup1\n      revert\n    tag_36:\n      pop\n      tag_37\n      0x04\n      dup1\n      calldatasize\n      sub\n      dup2\n      add\n      swap1\n      tag_38\n      swap2\n      swap1\n      tag_39\n      jump\t// in\n    tag_38:\n      tag_40\n      jump\t// in\n    tag_37:\n      mload(0x40)\n      tag_41\n      swap2\n      swap1\n      tag_34\n      jump\t// in\n    tag_41:\n      mload(0x40)\n      dup1\n      swap2\n      sub\n      swap1\n      return\n        /* \"contracts/15_Constant and Immutable.sol\":973:1101  function fund() public payable {... */\n    tag_12:\n        /* \"contracts/15_Constant and Immutable.sol\":1051:1060  msg.value */\n      callvalue\n        /* \"contracts/15_Constant and Immutable.sol\":1014:1035  addressToAmountFunded */\n      0x00\n        /* \"contracts/15_Constant and Immutable.sol\":1014:1047  addressToAmountFunded[msg.sender] */\n      dup1\n        /* \"contracts/15_Constant and Immutable.sol\":1036:1046  msg.sender */\n      caller\n        /* \"contracts/15_Constant and Immutable.sol\":1014:1047  addressToAmountFunded[msg.sender] */\n      0xffffffffffffffffffffffffffffffffffffffff\n      and\n      0xffffffffffffffffffffffffffffffffffffffff\n      and\n      dup2\n      mstore\n      0x20\n      add\n      swap1\n      dup2\n      mstore\n      0x20\n      add\n      0x00\n      keccak256\n      0x00\n        /* \"contracts/15_Constant and Immutable.sol\":1014:1060  addressToAmountFunded[msg.sender] += msg.value */\n      dup3\n      dup3\n      sload\n      tag_43\n      swap2\n      swap1\n      tag_44\n      jump\t// in\n    tag_43:\n      swap3\n      pop\n      pop\n      dup2\n      swap1\n      sstore\n      pop\n        /* \"contracts/15_Constant and Immutable.sol\":1070:1077  funders */\n      0x01\n        /* \"contracts/15_Constant and Immutable.sol\":1083:1093  msg.sender */\n      caller\n        /* \"contracts/15_Constant and Immutable.sol\":1070:1094  funders.push(msg.sender) */\n      swap1\n      dup1\n      0x01\n      dup2\n      sload\n      add\n      dup1\n      dup3\n      sstore\n      dup1\n      swap2\n      pop\n      pop\n      0x01\n      swap1\n      sub\n      swap1\n      0x00\n      mstore\n      keccak256(0x00, 0x20)\n      add\n      0x00\n      swap1\n      swap2\n      swap1\n      swap2\n      swap1\n      swap2\n      0x0100\n      exp\n      dup2\n      sload\n      dup2\n      0xffffffffffffffffffffffffffffffffffffffff\n      mul\n      not\n      and\n      swap1\n      dup4\n      0xffffffffffffffffffffffffffffffffffffffff\n      and\n      mul\n      or\n      swap1\n      sstore\n      pop\n        /* \"contracts/15_Constant and Immutable.sol\":973:1101  function fund() public payable {... */\n      jump\t// out\n        /* \"contracts/15_Constant and Immutable.sol\":1251:1658  function withdraw() public onlyOwner {... */\n    tag_18:\n        /* \"contracts/15_Constant and Immutable.sol\":1199:1204  owner */\n      immutable(\"0x7f8b6b088b6d74c2852fc86c796dca07b44eed6fb3daf5e6b59f7c364db14528\")\n        /* \"contracts/15_Constant and Immutable.sol\":1185:1204  msg.sender != owner */\n      0xffffffffffffffffffffffffffffffffffffffff\n      and\n        /* \"contracts/15_Constant and Immutable.sol\":1185:1195  msg.sender */\n      caller\n        /* \"contracts/15_Constant and Immutable.sol\":1185:1204  msg.sender != owner */\n      0xffffffffffffffffffffffffffffffffffffffff\n      and\n      eq\n        /* \"contracts/15_Constant and Immutable.sol\":1181:1223  if (msg.sender != owner) revert NotOwner() */\n      tag_47\n      jumpi\n        /* \"contracts/15_Constant and Immutable.sol\":1213:1223  NotOwner() */\n      mload(0x40)\n      0x30cd747100000000000000000000000000000000000000000000000000000000\n      dup2\n      mstore\n      0x04\n      add\n      mload(0x40)\n      dup1\n      swap2\n      sub\n      swap1\n      revert\n        /* \"contracts/15_Constant and Immutable.sol\":1181:1223  if (msg.sender != owner) revert NotOwner() */\n    tag_47:\n        /* \"contracts/15_Constant and Immutable.sol\":1303:1322  uint256 funderIndex */\n      0x00\n        /* \"contracts/15_Constant and Immutable.sol\":1298:1479  for (uint256 funderIndex=0; funderIndex < funders.length; funderIndex++){... */\n    tag_49:\n        /* \"contracts/15_Constant and Immutable.sol\":1340:1347  funders */\n      0x01\n        /* \"contracts/15_Constant and Immutable.sol\":1340:1354  funders.length */\n      dup1\n      sload\n      swap1\n      pop\n        /* \"contracts/15_Constant and Immutable.sol\":1326:1337  funderIndex */\n      dup2\n        /* \"contracts/15_Constant and Immutable.sol\":1326:1354  funderIndex < funders.length */\n      lt\n        /* \"contracts/15_Constant and Immutable.sol\":1298:1479  for (uint256 funderIndex=0; funderIndex < funders.length; funderIndex++){... */\n      iszero\n      tag_50\n      jumpi\n        /* \"contracts/15_Constant and Immutable.sol\":1384:1398  address funder */\n      0x00\n        /* \"contracts/15_Constant and Immutable.sol\":1401:1408  funders */\n      0x01\n        /* \"contracts/15_Constant and Immutable.sol\":1409:1420  funderIndex */\n      dup3\n        /* \"contracts/15_Constant and Immutable.sol\":1401:1421  funders[funderIndex] */\n      dup2\n      sload\n      dup2\n      lt\n      tag_52\n      jumpi\n      tag_53\n      tag_54\n      jump\t// in\n    tag_53:\n    tag_52:\n      swap1\n      0x00\n      mstore\n      keccak256(0x00, 0x20)\n      add\n      0x00\n      swap1\n      sload\n      swap1\n      0x0100\n      exp\n      swap1\n      div\n      0xffffffffffffffffffffffffffffffffffffffff\n      and\n        /* \"contracts/15_Constant and Immutable.sol\":1384:1421  address funder = funders[funderIndex] */\n      swap1\n      pop\n        /* \"contracts/15_Constant and Immutable.sol\":1467:1468  0 */\n      0x00\n        /* \"contracts/15_Constant and Immutable.sol\":1435:1456  addressToAmountFunded */\n      dup1\n        /* \"contracts/15_Constant and Immutable.sol\":1435:1464  addressToAmountFunded[funder] */\n      0x00\n        /* \"contracts/15_Constant and Immutable.sol\":1457:1463  funder */\n      dup4\n        /* \"contracts/15_Constant and Immutable.sol\":1435:1464  addressToAmountFunded[funder] */\n      0xffffffffffffffffffffffffffffffffffffffff\n      and\n      0xffffffffffffffffffffffffffffffffffffffff\n      and\n      dup2\n      mstore\n      0x20\n      add\n      swap1\n      dup2\n      mstore\n      0x20\n      add\n      0x00\n      keccak256\n        /* \"contracts/15_Constant and Immutable.sol\":1435:1468  addressToAmountFunded[funder] = 0 */\n      dup2\n      swap1\n      sstore\n      pop\n        /* \"contracts/15_Constant and Immutable.sol\":1370:1479  {... */\n      pop\n        /* \"contracts/15_Constant and Immutable.sol\":1356:1369  funderIndex++ */\n      dup1\n      dup1\n      tag_56\n      swap1\n      tag_57\n      jump\t// in\n    tag_56:\n      swap2\n      pop\n      pop\n        /* \"contracts/15_Constant and Immutable.sol\":1298:1479  for (uint256 funderIndex=0; funderIndex < funders.length; funderIndex++){... */\n      jump(tag_49)\n    tag_50:\n      pop\n        /* \"contracts/15_Constant and Immutable.sol\":1512:1513  0 */\n      0x00\n        /* \"contracts/15_Constant and Immutable.sol\":1498:1514  new address[](0) */\n      0xffffffffffffffff\n      dup2\n      gt\n      iszero\n      tag_58\n      jumpi\n      tag_59\n      tag_60\n      jump\t// in\n    tag_59:\n    tag_58:\n      mload(0x40)\n      swap1\n      dup1\n      dup3\n      mstore\n      dup1\n      0x20\n      mul\n      0x20\n      add\n      dup3\n      add\n      0x40\n      mstore\n      dup1\n      iszero\n      tag_61\n      jumpi\n      dup2\n      0x20\n      add\n      0x20\n      dup3\n      mul\n      dup1\n      calldatasize\n      dup4\n      calldatacopy\n      dup1\n      dup3\n      add\n      swap2\n      pop\n      pop\n      swap1\n      pop\n    tag_61:\n      pop\n        /* \"contracts/15_Constant and Immutable.sol\":1488:1495  funders */\n      0x01\n        /* \"contracts/15_Constant and Immutable.sol\":1488:1514  funders = new address[](0) */\n      swap1\n      dup1\n      mload\n      swap1\n      0x20\n      add\n      swap1\n      tag_62\n      swap3\n      swap2\n      swap1\n      tag_63\n      jump\t// in\n    tag_62:\n      pop\n        /* \"contracts/15_Constant and Immutable.sol\":1526:1542  bool callSuccess */\n      0x00\n        /* \"contracts/15_Constant and Immutable.sol\":1556:1566  msg.sender */\n      caller\n        /* \"contracts/15_Constant and Immutable.sol\":1548:1572  payable(msg.sender).call */\n      0xffffffffffffffffffffffffffffffffffffffff\n      and\n        /* \"contracts/15_Constant and Immutable.sol\":1580:1601  address(this).balance */\n      selfbalance\n        /* \"contracts/15_Constant and Immutable.sol\":1548:1606  payable(msg.sender).call{value: address(this).balance}(\"\") */\n      mload(0x40)\n      tag_64\n      swap1\n      tag_65\n      jump\t// in\n    tag_64:\n      0x00\n      mload(0x40)\n      dup1\n      dup4\n      sub\n      dup2\n      dup6\n      dup8\n      gas\n      call\n      swap3\n      pop\n      pop\n      pop\n      returndatasize\n      dup1\n      0x00\n      dup2\n      eq\n      tag_68\n      jumpi\n      mload(0x40)\n      swap2\n      pop\n      and(add(returndatasize, 0x3f), not(0x1f))\n      dup3\n      add\n      0x40\n      mstore\n      returndatasize\n      dup3\n      mstore\n      returndatasize\n      0x00\n      0x20\n      dup5\n      add\n      returndatacopy\n      jump(tag_67)\n    tag_68:\n      0x60\n      swap2\n      pop\n    tag_67:\n      pop\n        /* \"contracts/15_Constant and Immutable.sol\":1525:1606  (bool callSuccess, ) = payable(msg.sender).call{value: address(this).balance}(\"\") */\n      pop\n      swap1\n      pop\n        /* \"contracts/15_Constant and Immutable.sol\":1624:1635  callSuccess */\n      dup1\n        /* \"contracts/15_Constant and Immutable.sol\":1616:1651  require(callSuccess, \"Call failed\") */\n      tag_69\n      jumpi\n      mload(0x40)\n      0x08c379a000000000000000000000000000000000000000000000000000000000\n      dup2\n      mstore\n      0x04\n      add\n      tag_70\n      swap1\n      tag_71\n      jump\t// in\n    tag_70:\n      mload(0x40)\n      dup1\n      swap2\n      sub\n      swap1\n      revert\n    tag_69:\n        /* \"contracts/15_Constant and Immutable.sol\":1288:1658  {... */\n      pop\n        /* \"contracts/15_Constant and Immutable.sol\":1251:1658  function withdraw() public onlyOwner {... */\n      jump\t// out\n        /* \"contracts/15_Constant and Immutable.sol\":283:339  mapping(address => uint256) public addressToAmountFunded */\n    tag_23:\n      mstore(0x20, 0x00)\n      dup1\n      0x00\n      mstore\n      keccak256(0x00, 0x40)\n      0x00\n      swap2\n      pop\n      swap1\n      pop\n      sload\n      dup2\n      jump\t// out\n        /* \"contracts/15_Constant and Immutable.sol\":857:907  uint256 public constant MINIMUM_USD = 5 * 10 ** 18 */\n    tag_28:\n        /* \"contracts/15_Constant and Immutable.sol\":895:907  5 * 10 ** 18 */\n      0x4563918244f40000\n        /* \"contracts/15_Constant and Immutable.sol\":857:907  uint256 public constant MINIMUM_USD = 5 * 10 ** 18 */\n      dup2\n      jump\t// out\n        /* \"contracts/15_Constant and Immutable.sol\":608:638  address public immutable owner */\n    tag_32:\n      immutable(\"0x7f8b6b088b6d74c2852fc86c796dca07b44eed6fb3daf5e6b59f7c364db14528\")\n      dup2\n      jump\t// out\n        /* \"contracts/15_Constant and Immutable.sol\":345:369  address[] public funders */\n    tag_40:\n      0x01\n      dup2\n      dup2\n      sload\n      dup2\n      lt\n      tag_72\n      jumpi\n      0x00\n      dup1\n      revert\n    tag_72:\n      swap1\n      0x00\n      mstore\n      keccak256(0x00, 0x20)\n      add\n      0x00\n      swap2\n      pop\n      sload\n      swap1\n      0x0100\n      exp\n      swap1\n      div\n      0xffffffffffffffffffffffffffffffffffffffff\n      and\n      dup2\n      jump\t// out\n    tag_63:\n      dup3\n      dup1\n      sload\n      dup3\n      dup3\n      sstore\n      swap1\n      0x00\n      mstore\n      keccak256(0x00, 0x20)\n      swap1\n      dup2\n      add\n      swap3\n      dup3\n      iszero\n      tag_74\n      jumpi\n      swap2\n      0x20\n      mul\n      dup3\n      add\n    tag_75:\n      dup3\n      dup2\n      gt\n      iszero\n      tag_76\n      jumpi\n      dup3\n      mload\n      dup3\n      exp(0x0100, 0x00)\n      dup2\n      sload\n      dup2\n      0xffffffffffffffffffffffffffffffffffffffff\n      mul\n      not\n      and\n      swap1\n      dup4\n      0xffffffffffffffffffffffffffffffffffffffff\n      and\n      mul\n      or\n      swap1\n      sstore\n      pop\n      swap2\n      0x20\n      add\n      swap2\n      swap1\n      0x01\n      add\n      swap1\n      jump(tag_75)\n    tag_76:\n    tag_74:\n      pop\n      swap1\n      pop\n      tag_77\n      swap2\n      swap1\n      tag_78\n      jump\t// in\n    tag_77:\n      pop\n      swap1\n      jump\t// out\n    tag_78:\n    tag_79:\n      dup1\n      dup3\n      gt\n      iszero\n      tag_80\n      jumpi\n      0x00\n      dup2\n      0x00\n      swap1\n      sstore\n      pop\n      0x01\n      add\n      jump(tag_79)\n    tag_80:\n      pop\n      swap1\n      jump\t// out\n        /* \"#utility.yul\":88:205   */\n    tag_82:\n        /* \"#utility.yul\":197:198   */\n      0x00\n        /* \"#utility.yul\":194:195   */\n      dup1\n        /* \"#utility.yul\":187:199   */\n      revert\n        /* \"#utility.yul\":334:460   */\n    tag_84:\n        /* \"#utility.yul\":371:378   */\n      0x00\n        /* \"#utility.yul\":411:453   */\n      0xffffffffffffffffffffffffffffffffffffffff\n        /* \"#utility.yul\":404:409   */\n      dup3\n        /* \"#utility.yul\":400:454   */\n      and\n        /* \"#utility.yul\":389:454   */\n      swap1\n      pop\n        /* \"#utility.yul\":334:460   */\n      swap2\n      swap1\n      pop\n      jump\t// out\n        /* \"#utility.yul\":466:562   */\n    tag_85:\n        /* \"#utility.yul\":503:510   */\n      0x00\n        /* \"#utility.yul\":532:556   */\n      tag_106\n        /* \"#utility.yul\":550:555   */\n      dup3\n        /* \"#utility.yul\":532:556   */\n      tag_84\n      jump\t// in\n    tag_106:\n        /* \"#utility.yul\":521:556   */\n      swap1\n      pop\n        /* \"#utility.yul\":466:562   */\n      swap2\n      swap1\n      pop\n      jump\t// out\n        /* \"#utility.yul\":568:690   */\n    tag_86:\n        /* \"#utility.yul\":641:665   */\n      tag_108\n        /* \"#utility.yul\":659:664   */\n      dup2\n        /* \"#utility.yul\":641:665   */\n      tag_85\n      jump\t// in\n    tag_108:\n        /* \"#utility.yul\":634:639   */\n      dup2\n        /* \"#utility.yul\":631:666   */\n      eq\n        /* \"#utility.yul\":621:684   */\n      tag_109\n      jumpi\n        /* \"#utility.yul\":680:681   */\n      0x00\n        /* \"#utility.yul\":677:678   */\n      dup1\n        /* \"#utility.yul\":670:682   */\n      revert\n        /* \"#utility.yul\":621:684   */\n    tag_109:\n        /* \"#utility.yul\":568:690   */\n      pop\n      jump\t// out\n        /* \"#utility.yul\":696:835   */\n    tag_87:\n        /* \"#utility.yul\":742:747   */\n      0x00\n        /* \"#utility.yul\":780:786   */\n      dup2\n        /* \"#utility.yul\":767:787   */\n      calldataload\n        /* \"#utility.yul\":758:787   */\n      swap1\n      pop\n        /* \"#utility.yul\":796:829   */\n      tag_111\n        /* \"#utility.yul\":823:828   */\n      dup2\n        /* \"#utility.yul\":796:829   */\n      tag_86\n      jump\t// in\n    tag_111:\n        /* \"#utility.yul\":696:835   */\n      swap3\n      swap2\n      pop\n      pop\n      jump\t// out\n        /* \"#utility.yul\":841:1170   */\n    tag_22:\n        /* \"#utility.yul\":900:906   */\n      0x00\n        /* \"#utility.yul\":949:951   */\n      0x20\n        /* \"#utility.yul\":937:946   */\n      dup3\n        /* \"#utility.yul\":928:935   */\n      dup5\n        /* \"#utility.yul\":924:947   */\n      sub\n        /* \"#utility.yul\":920:952   */\n      slt\n        /* \"#utility.yul\":917:1036   */\n      iszero\n      tag_113\n      jumpi\n        /* \"#utility.yul\":955:1034   */\n      tag_114\n      tag_82\n      jump\t// in\n    tag_114:\n        /* \"#utility.yul\":917:1036   */\n    tag_113:\n        /* \"#utility.yul\":1075:1076   */\n      0x00\n        /* \"#utility.yul\":1100:1153   */\n      tag_115\n        /* \"#utility.yul\":1145:1152   */\n      dup5\n        /* \"#utility.yul\":1136:1142   */\n      dup3\n        /* \"#utility.yul\":1125:1134   */\n      dup6\n        /* \"#utility.yul\":1121:1143   */\n      add\n        /* \"#utility.yul\":1100:1153   */\n      tag_87\n      jump\t// in\n    tag_115:\n        /* \"#utility.yul\":1090:1153   */\n      swap2\n      pop\n        /* \"#utility.yul\":1046:1163   */\n      pop\n        /* \"#utility.yul\":841:1170   */\n      swap3\n      swap2\n      pop\n      pop\n      jump\t// out\n        /* \"#utility.yul\":1176:1253   */\n    tag_88:\n        /* \"#utility.yul\":1213:1220   */\n      0x00\n        /* \"#utility.yul\":1242:1247   */\n      dup2\n        /* \"#utility.yul\":1231:1247   */\n      swap1\n      pop\n        /* \"#utility.yul\":1176:1253   */\n      swap2\n      swap1\n      pop\n      jump\t// out\n        /* \"#utility.yul\":1259:1377   */\n    tag_89:\n        /* \"#utility.yul\":1346:1370   */\n      tag_118\n        /* \"#utility.yul\":1364:1369   */\n      dup2\n        /* \"#utility.yul\":1346:1370   */\n      tag_88\n      jump\t// in\n    tag_118:\n        /* \"#utility.yul\":1341:1344   */\n      dup3\n        /* \"#utility.yul\":1334:1371   */\n      mstore\n        /* \"#utility.yul\":1259:1377   */\n      pop\n      pop\n      jump\t// out\n        /* \"#utility.yul\":1383:1605   */\n    tag_25:\n        /* \"#utility.yul\":1476:1480   */\n      0x00\n        /* \"#utility.yul\":1514:1516   */\n      0x20\n        /* \"#utility.yul\":1503:1512   */\n      dup3\n        /* \"#utility.yul\":1499:1517   */\n      add\n        /* \"#utility.yul\":1491:1517   */\n      swap1\n      pop\n        /* \"#utility.yul\":1527:1598   */\n      tag_120\n        /* \"#utility.yul\":1595:1596   */\n      0x00\n        /* \"#utility.yul\":1584:1593   */\n      dup4\n        /* \"#utility.yul\":1580:1597   */\n      add\n        /* \"#utility.yul\":1571:1577   */\n      dup5\n        /* \"#utility.yul\":1527:1598   */\n      tag_89\n      jump\t// in\n    tag_120:\n        /* \"#utility.yul\":1383:1605   */\n      swap3\n      swap2\n      pop\n      pop\n      jump\t// out\n        /* \"#utility.yul\":1611:1729   */\n    tag_90:\n        /* \"#utility.yul\":1698:1722   */\n      tag_122\n        /* \"#utility.yul\":1716:1721   */\n      dup2\n        /* \"#utility.yul\":1698:1722   */\n      tag_85\n      jump\t// in\n    tag_122:\n        /* \"#utility.yul\":1693:1696   */\n      dup3\n        /* \"#utility.yul\":1686:1723   */\n      mstore\n        /* \"#utility.yul\":1611:1729   */\n      pop\n      pop\n      jump\t// out\n        /* \"#utility.yul\":1735:1957   */\n    tag_34:\n        /* \"#utility.yul\":1828:1832   */\n      0x00\n        /* \"#utility.yul\":1866:1868   */\n      0x20\n        /* \"#utility.yul\":1855:1864   */\n      dup3\n        /* \"#utility.yul\":1851:1869   */\n      add\n        /* \"#utility.yul\":1843:1869   */\n      swap1\n      pop\n        /* \"#utility.yul\":1879:1950   */\n      tag_124\n        /* \"#utility.yul\":1947:1948   */\n      0x00\n        /* \"#utility.yul\":1936:1945   */\n      dup4\n        /* \"#utility.yul\":1932:1949   */\n      add\n        /* \"#utility.yul\":1923:1929   */\n      dup5\n        /* \"#utility.yul\":1879:1950   */\n      tag_90\n      jump\t// in\n    tag_124:\n        /* \"#utility.yul\":1735:1957   */\n      swap3\n      swap2\n      pop\n      pop\n      jump\t// out\n        /* \"#utility.yul\":1963:2085   */\n    tag_91:\n        /* \"#utility.yul\":2036:2060   */\n      tag_126\n        /* \"#utility.yul\":2054:2059   */\n      dup2\n        /* \"#utility.yul\":2036:2060   */\n      tag_88\n      jump\t// in\n    tag_126:\n        /* \"#utility.yul\":2029:2034   */\n      dup2\n        /* \"#utility.yul\":2026:2061   */\n      eq\n        /* \"#utility.yul\":2016:2079   */\n      tag_127\n      jumpi\n        /* \"#utility.yul\":2075:2076   */\n      0x00\n        /* \"#utility.yul\":2072:2073   */\n      dup1\n        /* \"#utility.yul\":2065:2077   */\n      revert\n        /* \"#utility.yul\":2016:2079   */\n    tag_127:\n        /* \"#utility.yul\":1963:2085   */\n      pop\n      jump\t// out\n        /* \"#utility.yul\":2091:2230   */\n    tag_92:\n        /* \"#utility.yul\":2137:2142   */\n      0x00\n        /* \"#utility.yul\":2175:2181   */\n      dup2\n        /* \"#utility.yul\":2162:2182   */\n      calldataload\n        /* \"#utility.yul\":2153:2182   */\n      swap1\n      pop\n        /* \"#utility.yul\":2191:2224   */\n      tag_129\n        /* \"#utility.yul\":2218:2223   */\n      dup2\n        /* \"#utility.yul\":2191:2224   */\n      tag_91\n      jump\t// in\n    tag_129:\n        /* \"#utility.yul\":2091:2230   */\n      swap3\n      swap2\n      pop\n      pop\n      jump\t// out\n        /* \"#utility.yul\":2236:2565   */\n    tag_39:\n        /* \"#utility.yul\":2295:2301   */\n      0x00\n        /* \"#utility.yul\":2344:2346   */\n      0x20\n        /* \"#utility.yul\":2332:2341   */\n      dup3\n        /* \"#utility.yul\":2323:2330   */\n      dup5\n        /* \"#utility.yul\":2319:2342   */\n      sub\n        /* \"#utility.yul\":2315:2347   */\n      slt\n        /* \"#utility.yul\":2312:2431   */\n      iszero\n      tag_131\n      jumpi\n        /* \"#utility.yul\":2350:2429   */\n      tag_132\n      tag_82\n      jump\t// in\n    tag_132:\n        /* \"#utility.yul\":2312:2431   */\n    tag_131:\n        /* \"#utility.yul\":2470:2471   */\n      0x00\n        /* \"#utility.yul\":2495:2548   */\n      tag_133\n        /* \"#utility.yul\":2540:2547   */\n      dup5\n        /* \"#utility.yul\":2531:2537   */\n      dup3\n        /* \"#utility.yul\":2520:2529   */\n      dup6\n        /* \"#utility.yul\":2516:2538   */\n      add\n        /* \"#utility.yul\":2495:2548   */\n      tag_92\n      jump\t// in\n    tag_133:\n        /* \"#utility.yul\":2485:2548   */\n      swap2\n      pop\n        /* \"#utility.yul\":2441:2558   */\n      pop\n        /* \"#utility.yul\":2236:2565   */\n      swap3\n      swap2\n      pop\n      pop\n      jump\t// out\n        /* \"#utility.yul\":2571:2751   */\n    tag_93:\n        /* \"#utility.yul\":2619:2696   */\n      0x4e487b7100000000000000000000000000000000000000000000000000000000\n        /* \"#utility.yul\":2616:2617   */\n      0x00\n        /* \"#utility.yul\":2609:2697   */\n      mstore\n        /* \"#utility.yul\":2716:2720   */\n      0x11\n        /* \"#utility.yul\":2713:2714   */\n      0x04\n        /* \"#utility.yul\":2706:2721   */\n      mstore\n        /* \"#utility.yul\":2740:2744   */\n      0x24\n        /* \"#utility.yul\":2737:2738   */\n      0x00\n        /* \"#utility.yul\":2730:2745   */\n      revert\n        /* \"#utility.yul\":2757:2948   */\n    tag_44:\n        /* \"#utility.yul\":2797:2800   */\n      0x00\n        /* \"#utility.yul\":2816:2836   */\n      tag_136\n        /* \"#utility.yul\":2834:2835   */\n      dup3\n        /* \"#utility.yul\":2816:2836   */\n      tag_88\n      jump\t// in\n    tag_136:\n        /* \"#utility.yul\":2811:2836   */\n      swap2\n      pop\n        /* \"#utility.yul\":2850:2870   */\n      tag_137\n        /* \"#utility.yul\":2868:2869   */\n      dup4\n        /* \"#utility.yul\":2850:2870   */\n      tag_88\n      jump\t// in\n    tag_137:\n        /* \"#utility.yul\":2845:2870   */\n      swap3\n      pop\n        /* \"#utility.yul\":2893:2894   */\n      dup3\n        /* \"#utility.yul\":2890:2891   */\n      dup3\n        /* \"#utility.yul\":2886:2895   */\n      add\n        /* \"#utility.yul\":2879:2895   */\n      swap1\n      pop\n        /* \"#utility.yul\":2914:2917   */\n      dup1\n        /* \"#utility.yul\":2911:2912   */\n      dup3\n        /* \"#utility.yul\":2908:2918   */\n      gt\n        /* \"#utility.yul\":2905:2941   */\n      iszero\n      tag_138\n      jumpi\n        /* \"#utility.yul\":2921:2939   */\n      tag_139\n      tag_93\n      jump\t// in\n    tag_139:\n        /* \"#utility.yul\":2905:2941   */\n    tag_138:\n        /* \"#utility.yul\":2757:2948   */\n      swap3\n      swap2\n      pop\n      pop\n      jump\t// out\n        /* \"#utility.yul\":2954:3134   */\n    tag_54:\n        /* \"#utility.yul\":3002:3079   */\n      0x4e487b7100000000000000000000000000000000000000000000000000000000\n        /* \"#utility.yul\":2999:3000   */\n      0x00\n        /* \"#utility.yul\":2992:3080   */\n      mstore\n        /* \"#utility.yul\":3099:3103   */\n      0x32\n        /* \"#utility.yul\":3096:3097   */\n      0x04\n        /* \"#utility.yul\":3089:3104   */\n      mstore\n        /* \"#utility.yul\":3123:3127   */\n      0x24\n        /* \"#utility.yul\":3120:3121   */\n      0x00\n        /* \"#utility.yul\":3113:3128   */\n      revert\n        /* \"#utility.yul\":3140:3373   */\n    tag_57:\n        /* \"#utility.yul\":3179:3182   */\n      0x00\n        /* \"#utility.yul\":3202:3226   */\n      tag_142\n        /* \"#utility.yul\":3220:3225   */\n      dup3\n        /* \"#utility.yul\":3202:3226   */\n      tag_88\n      jump\t// in\n    tag_142:\n        /* \"#utility.yul\":3193:3226   */\n      swap2\n      pop\n        /* \"#utility.yul\":3248:3314   */\n      0xffffffffffffffffffffffffffffffffffffffffffffffffffffffffffffffff\n        /* \"#utility.yul\":3241:3246   */\n      dup3\n        /* \"#utility.yul\":3238:3315   */\n      sub\n        /* \"#utility.yul\":3235:3338   */\n      tag_143\n      jumpi\n        /* \"#utility.yul\":3318:3336   */\n      tag_144\n      tag_93\n      jump\t// in\n    tag_144:\n        /* \"#utility.yul\":3235:3338   */\n    tag_143:\n        /* \"#utility.yul\":3365:3366   */\n      0x01\n        /* \"#utility.yul\":3358:3363   */\n      dup3\n        /* \"#utility.yul\":3354:3367   */\n      add\n        /* \"#utility.yul\":3347:3367   */\n      swap1\n      pop\n        /* \"#utility.yul\":3140:3373   */\n      swap2\n      swap1\n      pop\n      jump\t// out\n        /* \"#utility.yul\":3379:3559   */\n    tag_60:\n        /* \"#utility.yul\":3427:3504   */\n      0x4e487b7100000000000000000000000000000000000000000000000000000000\n        /* \"#utility.yul\":3424:3425   */\n      0x00\n        /* \"#utility.yul\":3417:3505   */\n      mstore\n        /* \"#utility.yul\":3524:3528   */\n      0x41\n        /* \"#utility.yul\":3521:3522   */\n      0x04\n        /* \"#utility.yul\":3514:3529   */\n      mstore\n        /* \"#utility.yul\":3548:3552   */\n      0x24\n        /* \"#utility.yul\":3545:3546   */\n      0x00\n        /* \"#utility.yul\":3538:3553   */\n      revert\n        /* \"#utility.yul\":3565:3712   */\n    tag_94:\n        /* \"#utility.yul\":3666:3677   */\n      0x00\n        /* \"#utility.yul\":3703:3706   */\n      dup2\n        /* \"#utility.yul\":3688:3706   */\n      swap1\n      pop\n        /* \"#utility.yul\":3565:3712   */\n      swap3\n      swap2\n      pop\n      pop\n      jump\t// out\n        /* \"#utility.yul\":3718:3832   */\n    tag_95:\n      pop\n      jump\t// out\n        /* \"#utility.yul\":3838:4236   */\n    tag_96:\n        /* \"#utility.yul\":3997:4000   */\n      0x00\n        /* \"#utility.yul\":4018:4101   */\n      tag_149\n        /* \"#utility.yul\":4099:4100   */\n      0x00\n        /* \"#utility.yul\":4094:4097   */\n      dup4\n        /* \"#utility.yul\":4018:4101   */\n      tag_94\n      jump\t// in\n    tag_149:\n        /* \"#utility.yul\":4011:4101   */\n      swap2\n      pop\n        /* \"#utility.yul\":4110:4203   */\n      tag_150\n        /* \"#utility.yul\":4199:4202   */\n      dup3\n        /* \"#utility.yul\":4110:4203   */\n      tag_95\n      jump\t// in\n    tag_150:\n        /* \"#utility.yul\":4228:4229   */\n      0x00\n        /* \"#utility.yul\":4223:4226   */\n      dup3\n        /* \"#utility.yul\":4219:4230   */\n      add\n        /* \"#utility.yul\":4212:4230   */\n      swap1\n      pop\n        /* \"#utility.yul\":3838:4236   */\n      swap2\n      swap1\n      pop\n      jump\t// out\n        /* \"#utility.yul\":4242:4621   */\n    tag_65:\n        /* \"#utility.yul\":4426:4429   */\n      0x00\n        /* \"#utility.yul\":4448:4595   */\n      tag_152\n        /* \"#utility.yul\":4591:4594   */\n      dup3\n        /* \"#utility.yul\":4448:4595   */\n      tag_96\n      jump\t// in\n    tag_152:\n        /* \"#utility.yul\":4441:4595   */\n      swap2\n      pop\n        /* \"#utility.yul\":4612:4615   */\n      dup2\n        /* \"#utility.yul\":4605:4615   */\n      swap1\n      pop\n        /* \"#utility.yul\":4242:4621   */\n      swap2\n      swap1\n      pop\n      jump\t// out\n        /* \"#utility.yul\":4627:4796   */\n    tag_97:\n        /* \"#utility.yul\":4711:4722   */\n      0x00\n        /* \"#utility.yul\":4745:4751   */\n      dup3\n        /* \"#utility.yul\":4740:4743   */\n      dup3\n        /* \"#utility.yul\":4733:4752   */\n      mstore\n        /* \"#utility.yul\":4785:4789   */\n      0x20\n        /* \"#utility.yul\":4780:4783   */\n      dup3\n        /* \"#utility.yul\":4776:4790   */\n      add\n        /* \"#utility.yul\":4761:4790   */\n      swap1\n      pop\n        /* \"#utility.yul\":4627:4796   */\n      swap3\n      swap2\n      pop\n      pop\n      jump\t// out\n        /* \"#utility.yul\":4802:4963   */\n    tag_98:\n        /* \"#utility.yul\":4942:4955   */\n      0x43616c6c206661696c6564000000000000000000000000000000000000000000\n        /* \"#utility.yul\":4938:4939   */\n      0x00\n        /* \"#utility.yul\":4930:4936   */\n      dup3\n        /* \"#utility.yul\":4926:4940   */\n      add\n        /* \"#utility.yul\":4919:4956   */\n      mstore\n        /* \"#utility.yul\":4802:4963   */\n      pop\n      jump\t// out\n        /* \"#utility.yul\":4969:5335   */\n    tag_99:\n        /* \"#utility.yul\":5111:5114   */\n      0x00\n        /* \"#utility.yul\":5132:5199   */\n      tag_156\n        /* \"#utility.yul\":5196:5198   */\n      0x0b\n        /* \"#utility.yul\":5191:5194   */\n      dup4\n        /* \"#utility.yul\":5132:5199   */\n      tag_97\n      jump\t// in\n    tag_156:\n        /* \"#utility.yul\":5125:5199   */\n      swap2\n      pop\n        /* \"#utility.yul\":5208:5301   */\n      tag_157\n        /* \"#utility.yul\":5297:5300   */\n      dup3\n        /* \"#utility.yul\":5208:5301   */\n      tag_98\n      jump\t// in\n    tag_157:\n        /* \"#utility.yul\":5326:5328   */\n      0x20\n        /* \"#utility.yul\":5321:5324   */\n      dup3\n        /* \"#utility.yul\":5317:5329   */\n      add\n        /* \"#utility.yul\":5310:5329   */\n      swap1\n      pop\n        /* \"#utility.yul\":4969:5335   */\n      swap2\n      swap1\n      pop\n      jump\t// out\n        /* \"#utility.yul\":5341:5760   */\n    tag_71:\n        /* \"#utility.yul\":5507:5511   */\n      0x00\n        /* \"#utility.yul\":5545:5547   */\n      0x20\n        /* \"#utility.yul\":5534:5543   */\n      dup3\n        /* \"#utility.yul\":5530:5548   */\n      add\n        /* \"#utility.yul\":5522:5548   */\n      swap1\n      pop\n        /* \"#utility.yul\":5594:5603   */\n      dup2\n        /* \"#utility.yul\":5588:5592   */\n      dup2\n        /* \"#utility.yul\":5584:5604   */\n      sub\n        /* \"#utility.yul\":5580:5581   */\n      0x00\n        /* \"#utility.yul\":5569:5578   */\n      dup4\n        /* \"#utility.yul\":5565:5582   */\n      add\n        /* \"#utility.yul\":5558:5605   */\n      mstore\n        /* \"#utility.yul\":5622:5753   */\n      tag_159\n        /* \"#utility.yul\":5748:5752   */\n      dup2\n        /* \"#utility.yul\":5622:5753   */\n      tag_99\n      jump\t// in\n    tag_159:\n        /* \"#utility.yul\":5614:5753   */\n      swap1\n      pop\n        /* \"#utility.yul\":5341:5760   */\n      swap2\n      swap1\n      pop\n      jump\t// out\n\n    auxdata: 0xa26469706673582212207049ffdaf1d41cbb4f54051732b8983f74d9555653505146a4d0a6e06795f2d564736f6c63430008140033\n}\n",
				"bytecode": {
					"linkReferences": {},
					"object": "60a060405234801561000f575f80fd5b503373ffffffffffffffffffffffffffffffffffffffff1660808173ffffffffffffffffffffffffffffffffffffffff168152505060805161088c6100635f395f81816102130152610466015261088c5ff3fe608060405260043610610058575f3560e01c80633ccfd60b146100715780633e47d6f3146100875780636b69a592146100c35780638da5cb5b146100ed578063b60d428814610117578063dc0d3dff1461012157610067565b366100675761006561015d565b005b61006f61015d565b005b34801561007c575f80fd5b50610085610211565b005b348015610092575f80fd5b506100ad60048036038101906100a891906105c3565b610444565b6040516100ba9190610606565b60405180910390f35b3480156100ce575f80fd5b506100d7610458565b6040516100e49190610606565b60405180910390f35b3480156100f8575f80fd5b50610101610464565b60405161010e919061062e565b60405180910390f35b61011f61015d565b005b34801561012c575f80fd5b5061014760048036038101906101429190610671565b610488565b604051610154919061062e565b60405180910390f35b345f803373ffffffffffffffffffffffffffffffffffffffff1673ffffffffffffffffffffffffffffffffffffffff1681526020019081526020015f205f8282546101a891906106c9565b92505081905550600133908060018154018082558091505060019003905f5260205f20015f9091909190916101000a81548173ffffffffffffffffffffffffffffffffffffffff021916908373ffffffffffffffffffffffffffffffffffffffff160217905550565b7f000000000000000000000000000000000000000000000000000000000000000073ffffffffffffffffffffffffffffffffffffffff163373ffffffffffffffffffffffffffffffffffffffff1614610296576040517f30cd747100000000000000000000000000000000000000000000000000000000815260040160405180910390fd5b5f5b600180549050811015610339575f600182815481106102ba576102b96106fc565b5b905f5260205f20015f9054906101000a900473ffffffffffffffffffffffffffffffffffffffff1690505f805f8373ffffffffffffffffffffffffffffffffffffffff1673ffffffffffffffffffffffffffffffffffffffff1681526020019081526020015f208190555050808061033190610729565b915050610298565b505f67ffffffffffffffff81111561035457610353610770565b5b6040519080825280602002602001820160405280156103825781602001602082028036833780820191505090505b50600190805190602001906103989291906104c3565b505f3373ffffffffffffffffffffffffffffffffffffffff16476040516103be906107ca565b5f6040518083038185875af1925050503d805f81146103f8576040519150601f19603f3d011682016040523d82523d5f602084013e6103fd565b606091505b5050905080610441576040517f08c379a000000000000000000000000000000000000000000000000000000000815260040161043890610838565b60405180910390fd5b50565b5f602052805f5260405f205f915090505481565b674563918244f4000081565b7f000000000000000000000000000000000000000000000000000000000000000081565b60018181548110610497575f80fd5b905f5260205f20015f915054906101000a900473ffffffffffffffffffffffffffffffffffffffff1681565b828054828255905f5260205f20908101928215610539579160200282015b82811115610538578251825f6101000a81548173ffffffffffffffffffffffffffffffffffffffff021916908373ffffffffffffffffffffffffffffffffffffffff160217905550916020019190600101906104e1565b5b509050610546919061054a565b5090565b5b80821115610561575f815f90555060010161054b565b5090565b5f80fd5b5f73ffffffffffffffffffffffffffffffffffffffff82169050919050565b5f61059282610569565b9050919050565b6105a281610588565b81146105ac575f80fd5b50565b5f813590506105bd81610599565b92915050565b5f602082840312156105d8576105d7610565565b5b5f6105e5848285016105af565b91505092915050565b5f819050919050565b610600816105ee565b82525050565b5f6020820190506106195f8301846105f7565b92915050565b61062881610588565b82525050565b5f6020820190506106415f83018461061f565b92915050565b610650816105ee565b811461065a575f80fd5b50565b5f8135905061066b81610647565b92915050565b5f6020828403121561068657610685610565565b5b5f6106938482850161065d565b91505092915050565b7f4e487b71000000000000000000000000000000000000000000000000000000005f52601160045260245ffd5b5f6106d3826105ee565b91506106de836105ee565b92508282019050808211156106f6576106f561069c565b5b92915050565b7f4e487b71000000000000000000000000000000000000000000000000000000005f52603260045260245ffd5b5f610733826105ee565b91507fffffffffffffffffffffffffffffffffffffffffffffffffffffffffffffffff82036107655761076461069c565b5b600182019050919050565b7f4e487b71000000000000000000000000000000000000000000000000000000005f52604160045260245ffd5b5f81905092915050565b50565b5f6107b55f8361079d565b91506107c0826107a7565b5f82019050919050565b5f6107d4826107aa565b9150819050919050565b5f82825260208201905092915050565b7f43616c6c206661696c65640000000000000000000000000000000000000000005f82015250565b5f610822600b836107de565b915061082d826107ee565b602082019050919050565b5f6020820190508181035f83015261084f81610816565b905091905056fea26469706673582212207049ffdaf1d41cbb4f54051732b8983f74d9555653505146a4d0a6e06795f2d564736f6c63430008140033",
					"opcodes": "PUSH1 0xA0 PUSH1 0x40 MSTORE CALLVALUE DUP1 ISZERO PUSH2 0xF JUMPI PUSH0 DUP1 REVERT JUMPDEST POP CALLER PUSH20 0xFFFFFFFFFFFFFFFFFFFFFFFFFFFFFFFFFFFFFFFF AND PUSH1 0x80 DUP2 PUSH20 0xFFFFFFFFFFFFFFFFFFFFFFFFFFFFFFFFFFFFFFFF AND DUP2 MSTORE POP POP PUSH1 0x80 MLOAD PUSH2 0x88C PUSH2 0x63 PUSH0 CODECOPY PUSH0 DUP2 DUP2 PUSH2 0x213 ADD MSTORE PUSH2 0x466 ADD MSTORE PUSH2 0x88C PUSH0 RETURN INVALID PUSH1 0x80 PUSH1 0x40 MSTORE PUSH1 0x4 CALLDATASIZE LT PUSH2 0x58 JUMPI PUSH0 CALLDATALOAD PUSH1 0xE0 SHR DUP1 PUSH4 0x3CCFD60B EQ PUSH2 0x71 JUMPI DUP1 PUSH4 0x3E47D6F3 EQ PUSH2 0x87 JUMPI DUP1 PUSH4 0x6B69A592 EQ PUSH2 0xC3 JUMPI DUP1 PUSH4 0x8DA5CB5B EQ PUSH2 0xED JUMPI DUP1 PUSH4 0xB60D4288 EQ PUSH2 0x117 JUMPI DUP1 PUSH4 0xDC0D3DFF EQ PUSH2 0x121 JUMPI PUSH2 0x67 JUMP JUMPDEST CALLDATASIZE PUSH2 0x67 JUMPI PUSH2 0x65 PUSH2 0x15D JUMP JUMPDEST STOP JUMPDEST PUSH2 0x6F PUSH2 0x15D JUMP JUMPDEST STOP JUMPDEST CALLVALUE DUP1 ISZERO PUSH2 0x7C JUMPI PUSH0 DUP1 REVERT JUMPDEST POP PUSH2 0x85 PUSH2 0x211 JUMP JUMPDEST STOP JUMPDEST CALLVALUE DUP1 ISZERO PUSH2 0x92 JUMPI PUSH0 DUP1 REVERT JUMPDEST POP PUSH2 0xAD PUSH1 0x4 DUP1 CALLDATASIZE SUB DUP2 ADD SWAP1 PUSH2 0xA8 SWAP2 SWAP1 PUSH2 0x5C3 JUMP JUMPDEST PUSH2 0x444 JUMP JUMPDEST PUSH1 0x40 MLOAD PUSH2 0xBA SWAP2 SWAP1 PUSH2 0x606 JUMP JUMPDEST PUSH1 0x40 MLOAD DUP1 SWAP2 SUB SWAP1 RETURN JUMPDEST CALLVALUE DUP1 ISZERO PUSH2 0xCE JUMPI PUSH0 DUP1 REVERT JUMPDEST POP PUSH2 0xD7 PUSH2 0x458 JUMP JUMPDEST PUSH1 0x40 MLOAD PUSH2 0xE4 SWAP2 SWAP1 PUSH2 0x606 JUMP JUMPDEST PUSH1 0x40 MLOAD DUP1 SWAP2 SUB SWAP1 RETURN JUMPDEST CALLVALUE DUP1 ISZERO PUSH2 0xF8 JUMPI PUSH0 DUP1 REVERT JUMPDEST POP PUSH2 0x101 PUSH2 0x464 JUMP JUMPDEST PUSH1 0x40 MLOAD PUSH2 0x10E SWAP2 SWAP1 PUSH2 0x62E JUMP JUMPDEST PUSH1 0x40 MLOAD DUP1 SWAP2 SUB SWAP1 RETURN JUMPDEST PUSH2 0x11F PUSH2 0x15D JUMP JUMPDEST STOP JUMPDEST CALLVALUE DUP1 ISZERO PUSH2 0x12C JUMPI PUSH0 DUP1 REVERT JUMPDEST POP PUSH2 0x147 PUSH1 0x4 DUP1 CALLDATASIZE SUB DUP2 ADD SWAP1 PUSH2 0x142 SWAP2 SWAP1 PUSH2 0x671 JUMP JUMPDEST PUSH2 0x488 JUMP JUMPDEST PUSH1 0x40 MLOAD PUSH2 0x154 SWAP2 SWAP1 PUSH2 0x62E JUMP JUMPDEST PUSH1 0x40 MLOAD DUP1 SWAP2 SUB SWAP1 RETURN JUMPDEST CALLVALUE PUSH0 DUP1 CALLER PUSH20 0xFFFFFFFFFFFFFFFFFFFFFFFFFFFFFFFFFFFFFFFF AND PUSH20 0xFFFFFFFFFFFFFFFFFFFFFFFFFFFFFFFFFFFFFFFF AND DUP2 MSTORE PUSH1 0x20 ADD SWAP1 DUP2 MSTORE PUSH1 0x20 ADD PUSH0 KECCAK256 PUSH0 DUP3 DUP3 SLOAD PUSH2 0x1A8 SWAP2 SWAP1 PUSH2 0x6C9 JUMP JUMPDEST SWAP3 POP POP DUP2 SWAP1 SSTORE POP PUSH1 0x1 CALLER SWAP1 DUP1 PUSH1 0x1 DUP2 SLOAD ADD DUP1 DUP3 SSTORE DUP1 SWAP2 POP POP PUSH1 0x1 SWAP1 SUB SWAP1 PUSH0 MSTORE PUSH1 0x20 PUSH0 KECCAK256 ADD PUSH0 SWAP1 SWAP2 SWAP1 SWAP2 SWAP1 SWAP2 PUSH2 0x100 EXP DUP2 SLOAD DUP2 PUSH20 0xFFFFFFFFFFFFFFFFFFFFFFFFFFFFFFFFFFFFFFFF MUL NOT AND SWAP1 DUP4 PUSH20 0xFFFFFFFFFFFFFFFFFFFFFFFFFFFFFFFFFFFFFFFF AND MUL OR SWAP1 SSTORE POP JUMP JUMPDEST PUSH32 0x0 PUSH20 0xFFFFFFFFFFFFFFFFFFFFFFFFFFFFFFFFFFFFFFFF AND CALLER PUSH20 0xFFFFFFFFFFFFFFFFFFFFFFFFFFFFFFFFFFFFFFFF AND EQ PUSH2 0x296 JUMPI PUSH1 0x40 MLOAD PUSH32 0x30CD747100000000000000000000000000000000000000000000000000000000 DUP2 MSTORE PUSH1 0x4 ADD PUSH1 0x40 MLOAD DUP1 SWAP2 SUB SWAP1 REVERT JUMPDEST PUSH0 JUMPDEST PUSH1 0x1 DUP1 SLOAD SWAP1 POP DUP2 LT ISZERO PUSH2 0x339 JUMPI PUSH0 PUSH1 0x1 DUP3 DUP2 SLOAD DUP2 LT PUSH2 0x2BA JUMPI PUSH2 0x2B9 PUSH2 0x6FC JUMP JUMPDEST JUMPDEST SWAP1 PUSH0 MSTORE PUSH1 0x20 PUSH0 KECCAK256 ADD PUSH0 SWAP1 SLOAD SWAP1 PUSH2 0x100 EXP SWAP1 DIV PUSH20 0xFFFFFFFFFFFFFFFFFFFFFFFFFFFFFFFFFFFFFFFF AND SWAP1 POP PUSH0 DUP1 PUSH0 DUP4 PUSH20 0xFFFFFFFFFFFFFFFFFFFFFFFFFFFFFFFFFFFFFFFF AND PUSH20 0xFFFFFFFFFFFFFFFFFFFFFFFFFFFFFFFFFFFFFFFF AND DUP2 MSTORE PUSH1 0x20 ADD SWAP1 DUP2 MSTORE PUSH1 0x20 ADD PUSH0 KECCAK256 DUP2 SWAP1 SSTORE POP POP DUP1 DUP1 PUSH2 0x331 SWAP1 PUSH2 0x729 JUMP JUMPDEST SWAP2 POP POP PUSH2 0x298 JUMP JUMPDEST POP PUSH0 PUSH8 0xFFFFFFFFFFFFFFFF DUP2 GT ISZERO PUSH2 0x354 JUMPI PUSH2 0x353 PUSH2 0x770 JUMP JUMPDEST JUMPDEST PUSH1 0x40 MLOAD SWAP1 DUP1 DUP3 MSTORE DUP1 PUSH1 0x20 MUL PUSH1 0x20 ADD DUP3 ADD PUSH1 0x40 MSTORE DUP1 ISZERO PUSH2 0x382 JUMPI DUP2 PUSH1 0x20 ADD PUSH1 0x20 DUP3 MUL DUP1 CALLDATASIZE DUP4 CALLDATACOPY DUP1 DUP3 ADD SWAP2 POP POP SWAP1 POP JUMPDEST POP PUSH1 0x1 SWAP1 DUP1 MLOAD SWAP1 PUSH1 0x20 ADD SWAP1 PUSH2 0x398 SWAP3 SWAP2 SWAP1 PUSH2 0x4C3 JUMP JUMPDEST POP PUSH0 CALLER PUSH20 0xFFFFFFFFFFFFFFFFFFFFFFFFFFFFFFFFFFFFFFFF AND SELFBALANCE PUSH1 0x40 MLOAD PUSH2 0x3BE SWAP1 PUSH2 0x7CA JUMP JUMPDEST PUSH0 PUSH1 0x40 MLOAD DUP1 DUP4 SUB DUP2 DUP6 DUP8 GAS CALL SWAP3 POP POP POP RETURNDATASIZE DUP1 PUSH0 DUP2 EQ PUSH2 0x3F8 JUMPI PUSH1 0x40 MLOAD SWAP2 POP PUSH1 0x1F NOT PUSH1 0x3F RETURNDATASIZE ADD AND DUP3 ADD PUSH1 0x40 MSTORE RETURNDATASIZE DUP3 MSTORE RETURNDATASIZE PUSH0 PUSH1 0x20 DUP5 ADD RETURNDATACOPY PUSH2 0x3FD JUMP JUMPDEST PUSH1 0x60 SWAP2 POP JUMPDEST POP POP SWAP1 POP DUP1 PUSH2 0x441 JUMPI PUSH1 0x40 MLOAD PUSH32 0x8C379A000000000000000000000000000000000000000000000000000000000 DUP2 MSTORE PUSH1 0x4 ADD PUSH2 0x438 SWAP1 PUSH2 0x838 JUMP JUMPDEST PUSH1 0x40 MLOAD DUP1 SWAP2 SUB SWAP1 REVERT JUMPDEST POP JUMP JUMPDEST PUSH0 PUSH1 0x20 MSTORE DUP1 PUSH0 MSTORE PUSH1 0x40 PUSH0 KECCAK256 PUSH0 SWAP2 POP SWAP1 POP SLOAD DUP2 JUMP JUMPDEST PUSH8 0x4563918244F40000 DUP2 JUMP JUMPDEST PUSH32 0x0 DUP2 JUMP JUMPDEST PUSH1 0x1 DUP2 DUP2 SLOAD DUP2 LT PUSH2 0x497 JUMPI PUSH0 DUP1 REVERT JUMPDEST SWAP1 PUSH0 MSTORE PUSH1 0x20 PUSH0 KECCAK256 ADD PUSH0 SWAP2 POP SLOAD SWAP1 PUSH2 0x100 EXP SWAP1 DIV PUSH20 0xFFFFFFFFFFFFFFFFFFFFFFFFFFFFFFFFFFFFFFFF AND DUP2 JUMP JUMPDEST DUP3 DUP1 SLOAD DUP3 DUP3 SSTORE SWAP1 PUSH0 MSTORE PUSH1 0x20 PUSH0 KECCAK256 SWAP1 DUP2 ADD SWAP3 DUP3 ISZERO PUSH2 0x539 JUMPI SWAP2 PUSH1 0x20 MUL DUP3 ADD JUMPDEST DUP3 DUP2 GT ISZERO PUSH2 0x538 JUMPI DUP3 MLOAD DUP3 PUSH0 PUSH2 0x100 EXP DUP2 SLOAD DUP2 PUSH20 0xFFFFFFFFFFFFFFFFFFFFFFFFFFFFFFFFFFFFFFFF MUL NOT AND SWAP1 DUP4 PUSH20 0xFFFFFFFFFFFFFFFFFFFFFFFFFFFFFFFFFFFFFFFF AND MUL OR SWAP1 SSTORE POP SWAP2 PUSH1 0x20 ADD SWAP2 SWAP1 PUSH1 0x1 ADD SWAP1 PUSH2 0x4E1 JUMP JUMPDEST JUMPDEST POP SWAP1 POP PUSH2 0x546 SWAP2 SWAP1 PUSH2 0x54A JUMP JUMPDEST POP SWAP1 JUMP JUMPDEST JUMPDEST DUP1 DUP3 GT ISZERO PUSH2 0x561 JUMPI PUSH0 DUP2 PUSH0 SWAP1 SSTORE POP PUSH1 0x1 ADD PUSH2 0x54B JUMP JUMPDEST POP SWAP1 JUMP JUMPDEST PUSH0 DUP1 REVERT JUMPDEST PUSH0 PUSH20 0xFFFFFFFFFFFFFFFFFFFFFFFFFFFFFFFFFFFFFFFF DUP3 AND SWAP1 POP SWAP2 SWAP1 POP JUMP JUMPDEST PUSH0 PUSH2 0x592 DUP3 PUSH2 0x569 JUMP JUMPDEST SWAP1 POP SWAP2 SWAP1 POP JUMP JUMPDEST PUSH2 0x5A2 DUP2 PUSH2 0x588 JUMP JUMPDEST DUP2 EQ PUSH2 0x5AC JUMPI PUSH0 DUP1 REVERT JUMPDEST POP JUMP JUMPDEST PUSH0 DUP2 CALLDATALOAD SWAP1 POP PUSH2 0x5BD DUP2 PUSH2 0x599 JUMP JUMPDEST SWAP3 SWAP2 POP POP JUMP JUMPDEST PUSH0 PUSH1 0x20 DUP3 DUP5 SUB SLT ISZERO PUSH2 0x5D8 JUMPI PUSH2 0x5D7 PUSH2 0x565 JUMP JUMPDEST JUMPDEST PUSH0 PUSH2 0x5E5 DUP5 DUP3 DUP6 ADD PUSH2 0x5AF JUMP JUMPDEST SWAP2 POP POP SWAP3 SWAP2 POP POP JUMP JUMPDEST PUSH0 DUP2 SWAP1 POP SWAP2 SWAP1 POP JUMP JUMPDEST PUSH2 0x600 DUP2 PUSH2 0x5EE JUMP JUMPDEST DUP3 MSTORE POP POP JUMP JUMPDEST PUSH0 PUSH1 0x20 DUP3 ADD SWAP1 POP PUSH2 0x619 PUSH0 DUP4 ADD DUP5 PUSH2 0x5F7 JUMP JUMPDEST SWAP3 SWAP2 POP POP JUMP JUMPDEST PUSH2 0x628 DUP2 PUSH2 0x588 JUMP JUMPDEST DUP3 MSTORE POP POP JUMP JUMPDEST PUSH0 PUSH1 0x20 DUP3 ADD SWAP1 POP PUSH2 0x641 PUSH0 DUP4 ADD DUP5 PUSH2 0x61F JUMP JUMPDEST SWAP3 SWAP2 POP POP JUMP JUMPDEST PUSH2 0x650 DUP2 PUSH2 0x5EE JUMP JUMPDEST DUP2 EQ PUSH2 0x65A JUMPI PUSH0 DUP1 REVERT JUMPDEST POP JUMP JUMPDEST PUSH0 DUP2 CALLDATALOAD SWAP1 POP PUSH2 0x66B DUP2 PUSH2 0x647 JUMP JUMPDEST SWAP3 SWAP2 POP POP JUMP JUMPDEST PUSH0 PUSH1 0x20 DUP3 DUP5 SUB SLT ISZERO PUSH2 0x686 JUMPI PUSH2 0x685 PUSH2 0x565 JUMP JUMPDEST JUMPDEST PUSH0 PUSH2 0x693 DUP5 DUP3 DUP6 ADD PUSH2 0x65D JUMP JUMPDEST SWAP2 POP POP SWAP3 SWAP2 POP POP JUMP JUMPDEST PUSH32 0x4E487B7100000000000000000000000000000000000000000000000000000000 PUSH0 MSTORE PUSH1 0x11 PUSH1 0x4 MSTORE PUSH1 0x24 PUSH0 REVERT JUMPDEST PUSH0 PUSH2 0x6D3 DUP3 PUSH2 0x5EE JUMP JUMPDEST SWAP2 POP PUSH2 0x6DE DUP4 PUSH2 0x5EE JUMP JUMPDEST SWAP3 POP DUP3 DUP3 ADD SWAP1 POP DUP1 DUP3 GT ISZERO PUSH2 0x6F6 JUMPI PUSH2 0x6F5 PUSH2 0x69C JUMP JUMPDEST JUMPDEST SWAP3 SWAP2 POP POP JUMP JUMPDEST PUSH32 0x4E487B7100000000000000000000000000000000000000000000000000000000 PUSH0 MSTORE PUSH1 0x32 PUSH1 0x4 MSTORE PUSH1 0x24 PUSH0 REVERT JUMPDEST PUSH0 PUSH2 0x733 DUP3 PUSH2 0x5EE JUMP JUMPDEST SWAP2 POP PUSH32 0xFFFFFFFFFFFFFFFFFFFFFFFFFFFFFFFFFFFFFFFFFFFFFFFFFFFFFFFFFFFFFFFF DUP3 SUB PUSH2 0x765 JUMPI PUSH2 0x764 PUSH2 0x69C JUMP JUMPDEST JUMPDEST PUSH1 0x1 DUP3 ADD SWAP1 POP SWAP2 SWAP1 POP JUMP JUMPDEST PUSH32 0x4E487B7100000000000000000000000000000000000000000000000000000000 PUSH0 MSTORE PUSH1 0x41 PUSH1 0x4 MSTORE PUSH1 0x24 PUSH0 REVERT JUMPDEST PUSH0 DUP2 SWAP1 POP SWAP3 SWAP2 POP POP JUMP JUMPDEST POP JUMP JUMPDEST PUSH0 PUSH2 0x7B5 PUSH0 DUP4 PUSH2 0x79D JUMP JUMPDEST SWAP2 POP PUSH2 0x7C0 DUP3 PUSH2 0x7A7 JUMP JUMPDEST PUSH0 DUP3 ADD SWAP1 POP SWAP2 SWAP1 POP JUMP JUMPDEST PUSH0 PUSH2 0x7D4 DUP3 PUSH2 0x7AA JUMP JUMPDEST SWAP2 POP DUP2 SWAP1 POP SWAP2 SWAP1 POP JUMP JUMPDEST PUSH0 DUP3 DUP3 MSTORE PUSH1 0x20 DUP3 ADD SWAP1 POP SWAP3 SWAP2 POP POP JUMP JUMPDEST PUSH32 0x43616C6C206661696C6564000000000000000000000000000000000000000000 PUSH0 DUP3 ADD MSTORE POP JUMP JUMPDEST PUSH0 PUSH2 0x822 PUSH1 0xB DUP4 PUSH2 0x7DE JUMP JUMPDEST SWAP2 POP PUSH2 0x82D DUP3 PUSH2 0x7EE JUMP JUMPDEST PUSH1 0x20 DUP3 ADD SWAP1 POP SWAP2 SWAP1 POP JUMP JUMPDEST PUSH0 PUSH1 0x20 DUP3 ADD SWAP1 POP DUP2 DUP2 SUB PUSH0 DUP4 ADD MSTORE PUSH2 0x84F DUP2 PUSH2 0x816 JUMP JUMPDEST SWAP1 POP SWAP2 SWAP1 POP JUMP INVALID LOG2 PUSH5 0x6970667358 0x22 SLT KECCAK256 PUSH17 0x49FFDAF1D41CBB4F54051732B8983F74D9 SSTORE JUMP MSTORE8 POP MLOAD CHAINID LOG4 0xD0 0xA6 0xE0 PUSH8 0x95F2D564736F6C63 NUMBER STOP ADDMOD EQ STOP CALLER "
				},
				"gasEstimates": {
					"creation": {
						"codeDepositCost": "437600",
						"executionCost": "infinite",
						"totalCost": "infinite"
					},
					"external": {
						"": "infinite",
						"MINIMUM_USD()": "347",
						"addressToAmountFunded(address)": "2801",
						"fund()": "infinite",
						"funders(uint256)": "5032",
						"owner()": "infinite",
						"withdraw()": "infinite"
					}
				},
				"methodIdentifiers": {
					"MINIMUM_USD()": "6b69a592",
					"addressToAmountFunded(address)": "3e47d6f3",
					"fund()": "b60d4288",
					"funders(uint256)": "dc0d3dff",
					"owner()": "8da5cb5b",
					"withdraw()": "3ccfd60b"
				}
			},
			"storageLayout": {
				"storage": [
					{
						"astId": 7,
						"contract": "contracts/15_Constant and Immutable.sol:FundMe",
						"label": "addressToAmountFunded",
						"offset": 0,
						"slot": "0",
						"type": "t_mapping(t_address,t_uint256)"
					},
					{
						"astId": 10,
						"contract": "contracts/15_Constant and Immutable.sol:FundMe",
						"label": "funders",
						"offset": 0,
						"slot": "1",
						"type": "t_array(t_address)dyn_storage"
					}
				],
				"types": {
					"t_address": {
						"encoding": "inplace",
						"label": "address",
						"numberOfBytes": "20"
					},
					"t_array(t_address)dyn_storage": {
						"base": "t_address",
						"encoding": "dynamic_array",
						"label": "address[]",
						"numberOfBytes": "32"
					},
					"t_mapping(t_address,t_uint256)": {
						"encoding": "mapping",
						"key": "t_address",
						"label": "mapping(address => uint256)",
						"numberOfBytes": "32",
						"value": "t_uint256"
					},
					"t_uint256": {
						"encoding": "inplace",
						"label": "uint256",
						"numberOfBytes": "32"
					}
				}
			},
			"userdoc": {
				"kind": "user",
				"methods": {},
				"version": 1
			}
		}
	}
}