{
	"contracts/02_State and Local Variables.sol": {
		"Property": {
			"abi": [
				{
					"inputs": [],
					"name": "getPrice",
					"outputs": [
						{
							"internalType": "int256",
							"name": "",
							"type": "int256"
						}
					],
					"stateMutability": "view",
					"type": "function"
				},
				{
					"inputs": [],
					"name": "price",
					"outputs": [
						{
							"internalType": "int256",
							"name": "",
							"type": "int256"
						}
					],
					"stateMutability": "view",
					"type": "function"
				},
				{
					"inputs": [
						{
							"internalType": "int256",
							"name": "_price",
							"type": "int256"
						}
					],
					"name": "setPrice",
					"outputs": [],
					"stateMutability": "nonpayable",
					"type": "function"
				}
			],
			"devdoc": {
				"kind": "dev",
				"methods": {},
				"version": 1
			},
			"evm": {
				"assembly": "    /* \"contracts/02_State and Local Variables.sol\":56:847  contract Property{... */\n  mstore(0x40, 0x80)\n  callvalue\n  dup1\n  iszero\n  tag_1\n  jumpi\n  0x00\n  dup1\n  revert\ntag_1:\n  pop\n  dataSize(sub_0)\n  dup1\n  dataOffset(sub_0)\n  0x00\n  codecopy\n  0x00\n  return\nstop\n\nsub_0: assembly {\n        /* \"contracts/02_State and Local Variables.sol\":56:847  contract Property{... */\n      mstore(0x40, 0x80)\n      callvalue\n      dup1\n      iszero\n      tag_1\n      jumpi\n      0x00\n      dup1\n      revert\n    tag_1:\n      pop\n      jumpi(tag_2, lt(calldatasize, 0x04))\n      shr(0xe0, calldataload(0x00))\n      dup1\n      0x98d5fdca\n      eq\n      tag_3\n      jumpi\n      dup1\n      0xa035b1fe\n      eq\n      tag_4\n      jumpi\n      dup1\n      0xf7a30806\n      eq\n      tag_5\n      jumpi\n    tag_2:\n      0x00\n      dup1\n      revert\n        /* \"contracts/02_State and Local Variables.sol\":771:844  function getPrice() public view returns(int){... */\n    tag_3:\n      tag_6\n      tag_7\n      jump\t// in\n    tag_6:\n      mload(0x40)\n      tag_8\n      swap2\n      swap1\n      tag_9\n      jump\t// in\n    tag_8:\n      mload(0x40)\n      dup1\n      swap2\n      sub\n      swap1\n      return\n        /* \"contracts/02_State and Local Variables.sol\":244:260  int public price */\n    tag_4:\n      tag_10\n      tag_11\n      jump\t// in\n    tag_10:\n      mload(0x40)\n      tag_12\n      swap2\n      swap1\n      tag_9\n      jump\t// in\n    tag_12:\n      mload(0x40)\n      dup1\n      swap2\n      sub\n      swap1\n      return\n        /* \"contracts/02_State and Local Variables.sol\":664:732  function setPrice(int _price) public {... */\n    tag_5:\n      tag_13\n      0x04\n      dup1\n      calldatasize\n      sub\n      dup2\n      add\n      swap1\n      tag_14\n      swap2\n      swap1\n      tag_15\n      jump\t// in\n    tag_14:\n      tag_16\n      jump\t// in\n    tag_13:\n      stop\n        /* \"contracts/02_State and Local Variables.sol\":771:844  function getPrice() public view returns(int){... */\n    tag_7:\n        /* \"contracts/02_State and Local Variables.sol\":811:814  int */\n      0x00\n        /* \"contracts/02_State and Local Variables.sol\":832:837  price */\n      dup1\n      sload\n        /* \"contracts/02_State and Local Variables.sol\":825:837  return price */\n      swap1\n      pop\n        /* \"contracts/02_State and Local Variables.sol\":771:844  function getPrice() public view returns(int){... */\n      swap1\n      jump\t// out\n        /* \"contracts/02_State and Local Variables.sol\":244:260  int public price */\n    tag_11:\n      sload(0x00)\n      dup2\n      jump\t// out\n        /* \"contracts/02_State and Local Variables.sol\":664:732  function setPrice(int _price) public {... */\n    tag_16:\n        /* \"contracts/02_State and Local Variables.sol\":719:725  _price */\n      dup1\n        /* \"contracts/02_State and Local Variables.sol\":711:716  price */\n      0x00\n        /* \"contracts/02_State and Local Variables.sol\":711:725  price = _price */\n      dup2\n      swap1\n      sstore\n      pop\n        /* \"contracts/02_State and Local Variables.sol\":664:732  function setPrice(int _price) public {... */\n      pop\n      jump\t// out\n        /* \"#utility.yul\":7:144   */\n    tag_20:\n      0x00\n        /* \"#utility.yul\":90:96   */\n      dup2\n        /* \"#utility.yul\":77:97   */\n      calldataload\n        /* \"#utility.yul\":68:97   */\n      swap1\n      pop\n        /* \"#utility.yul\":106:138   */\n      tag_22\n        /* \"#utility.yul\":132:137   */\n      dup2\n        /* \"#utility.yul\":106:138   */\n      tag_23\n      jump\t// in\n    tag_22:\n        /* \"#utility.yul\":58:144   */\n      swap3\n      swap2\n      pop\n      pop\n      jump\t// out\n        /* \"#utility.yul\":150:410   */\n    tag_15:\n      0x00\n        /* \"#utility.yul\":257:259   */\n      0x20\n        /* \"#utility.yul\":245:254   */\n      dup3\n        /* \"#utility.yul\":236:243   */\n      dup5\n        /* \"#utility.yul\":232:255   */\n      sub\n        /* \"#utility.yul\":228:260   */\n      slt\n        /* \"#utility.yul\":225:227   */\n      iszero\n      tag_25\n      jumpi\n        /* \"#utility.yul\":273:274   */\n      0x00\n        /* \"#utility.yul\":270:271   */\n      dup1\n        /* \"#utility.yul\":263:275   */\n      revert\n        /* \"#utility.yul\":225:227   */\n    tag_25:\n        /* \"#utility.yul\":316:317   */\n      0x00\n        /* \"#utility.yul\":341:393   */\n      tag_26\n        /* \"#utility.yul\":385:392   */\n      dup5\n        /* \"#utility.yul\":376:382   */\n      dup3\n        /* \"#utility.yul\":365:374   */\n      dup6\n        /* \"#utility.yul\":361:383   */\n      add\n        /* \"#utility.yul\":341:393   */\n      tag_20\n      jump\t// in\n    tag_26:\n        /* \"#utility.yul\":331:393   */\n      swap2\n      pop\n        /* \"#utility.yul\":287:403   */\n      pop\n        /* \"#utility.yul\":215:410   */\n      swap3\n      swap2\n      pop\n      pop\n      jump\t// out\n        /* \"#utility.yul\":416:531   */\n    tag_27:\n        /* \"#utility.yul\":501:524   */\n      tag_29\n        /* \"#utility.yul\":518:523   */\n      dup2\n        /* \"#utility.yul\":501:524   */\n      tag_30\n      jump\t// in\n    tag_29:\n        /* \"#utility.yul\":496:499   */\n      dup3\n        /* \"#utility.yul\":489:525   */\n      mstore\n        /* \"#utility.yul\":479:531   */\n      pop\n      pop\n      jump\t// out\n        /* \"#utility.yul\":537:755   */\n    tag_9:\n      0x00\n        /* \"#utility.yul\":666:668   */\n      0x20\n        /* \"#utility.yul\":655:664   */\n      dup3\n        /* \"#utility.yul\":651:669   */\n      add\n        /* \"#utility.yul\":643:669   */\n      swap1\n      pop\n        /* \"#utility.yul\":679:748   */\n      tag_32\n        /* \"#utility.yul\":745:746   */\n      0x00\n        /* \"#utility.yul\":734:743   */\n      dup4\n        /* \"#utility.yul\":730:747   */\n      add\n        /* \"#utility.yul\":721:727   */\n      dup5\n        /* \"#utility.yul\":679:748   */\n      tag_27\n      jump\t// in\n    tag_32:\n        /* \"#utility.yul\":633:755   */\n      swap3\n      swap2\n      pop\n      pop\n      jump\t// out\n        /* \"#utility.yul\":761:837   */\n    tag_30:\n      0x00\n        /* \"#utility.yul\":826:831   */\n      dup2\n        /* \"#utility.yul\":815:831   */\n      swap1\n      pop\n        /* \"#utility.yul\":805:837   */\n      swap2\n      swap1\n      pop\n      jump\t// out\n        /* \"#utility.yul\":843:963   */\n    tag_23:\n        /* \"#utility.yul\":915:938   */\n      tag_35\n        /* \"#utility.yul\":932:937   */\n      dup2\n        /* \"#utility.yul\":915:938   */\n      tag_30\n      jump\t// in\n    tag_35:\n        /* \"#utility.yul\":908:913   */\n      dup2\n        /* \"#utility.yul\":905:939   */\n      eq\n        /* \"#utility.yul\":895:897   */\n      tag_36\n      jumpi\n        /* \"#utility.yul\":953:954   */\n      0x00\n        /* \"#utility.yul\":950:951   */\n      dup1\n        /* \"#utility.yul\":943:955   */\n      revert\n        /* \"#utility.yul\":895:897   */\n    tag_36:\n        /* \"#utility.yul\":885:963   */\n      pop\n      jump\t// out\n\n    auxdata: 0xa2646970667358221220e3e4d0473efa44ac0961be809a9175db05cb21fb9fa1e267e13248bdd0f84bd864736f6c63430008020033\n}\n",
				"bytecode": {
					"linkReferences": {},
					"object": "608060405234801561001057600080fd5b50610176806100206000396000f3fe608060405234801561001057600080fd5b50600436106100415760003560e01c806398d5fdca14610046578063a035b1fe14610064578063f7a3080614610082575b600080fd5b61004e61009e565b60405161005b9190610104565b60405180910390f35b61006c6100a7565b6040516100799190610104565b60405180910390f35b61009c600480360381019061009791906100cc565b6100ad565b005b60008054905090565b60005481565b8060008190555050565b6000813590506100c681610129565b92915050565b6000602082840312156100de57600080fd5b60006100ec848285016100b7565b91505092915050565b6100fe8161011f565b82525050565b600060208201905061011960008301846100f5565b92915050565b6000819050919050565b6101328161011f565b811461013d57600080fd5b5056fea2646970667358221220e3e4d0473efa44ac0961be809a9175db05cb21fb9fa1e267e13248bdd0f84bd864736f6c63430008020033",
					"opcodes": "PUSH1 0x80 PUSH1 0x40 MSTORE CALLVALUE DUP1 ISZERO PUSH2 0x10 JUMPI PUSH1 0x0 DUP1 REVERT JUMPDEST POP PUSH2 0x176 DUP1 PUSH2 0x20 PUSH1 0x0 CODECOPY PUSH1 0x0 RETURN INVALID PUSH1 0x80 PUSH1 0x40 MSTORE CALLVALUE DUP1 ISZERO PUSH2 0x10 JUMPI PUSH1 0x0 DUP1 REVERT JUMPDEST POP PUSH1 0x4 CALLDATASIZE LT PUSH2 0x41 JUMPI PUSH1 0x0 CALLDATALOAD PUSH1 0xE0 SHR DUP1 PUSH4 0x98D5FDCA EQ PUSH2 0x46 JUMPI DUP1 PUSH4 0xA035B1FE EQ PUSH2 0x64 JUMPI DUP1 PUSH4 0xF7A30806 EQ PUSH2 0x82 JUMPI JUMPDEST PUSH1 0x0 DUP1 REVERT JUMPDEST PUSH2 0x4E PUSH2 0x9E JUMP JUMPDEST PUSH1 0x40 MLOAD PUSH2 0x5B SWAP2 SWAP1 PUSH2 0x104 JUMP JUMPDEST PUSH1 0x40 MLOAD DUP1 SWAP2 SUB SWAP1 RETURN JUMPDEST PUSH2 0x6C PUSH2 0xA7 JUMP JUMPDEST PUSH1 0x40 MLOAD PUSH2 0x79 SWAP2 SWAP1 PUSH2 0x104 JUMP JUMPDEST PUSH1 0x40 MLOAD DUP1 SWAP2 SUB SWAP1 RETURN JUMPDEST PUSH2 0x9C PUSH1 0x4 DUP1 CALLDATASIZE SUB DUP2 ADD SWAP1 PUSH2 0x97 SWAP2 SWAP1 PUSH2 0xCC JUMP JUMPDEST PUSH2 0xAD JUMP JUMPDEST STOP JUMPDEST PUSH1 0x0 DUP1 SLOAD SWAP1 POP SWAP1 JUMP JUMPDEST PUSH1 0x0 SLOAD DUP2 JUMP JUMPDEST DUP1 PUSH1 0x0 DUP2 SWAP1 SSTORE POP POP JUMP JUMPDEST PUSH1 0x0 DUP2 CALLDATALOAD SWAP1 POP PUSH2 0xC6 DUP2 PUSH2 0x129 JUMP JUMPDEST SWAP3 SWAP2 POP POP JUMP JUMPDEST PUSH1 0x0 PUSH1 0x20 DUP3 DUP5 SUB SLT ISZERO PUSH2 0xDE JUMPI PUSH1 0x0 DUP1 REVERT JUMPDEST PUSH1 0x0 PUSH2 0xEC DUP5 DUP3 DUP6 ADD PUSH2 0xB7 JUMP JUMPDEST SWAP2 POP POP SWAP3 SWAP2 POP POP JUMP JUMPDEST PUSH2 0xFE DUP2 PUSH2 0x11F JUMP JUMPDEST DUP3 MSTORE POP POP JUMP JUMPDEST PUSH1 0x0 PUSH1 0x20 DUP3 ADD SWAP1 POP PUSH2 0x119 PUSH1 0x0 DUP4 ADD DUP5 PUSH2 0xF5 JUMP JUMPDEST SWAP3 SWAP2 POP POP JUMP JUMPDEST PUSH1 0x0 DUP2 SWAP1 POP SWAP2 SWAP1 POP JUMP JUMPDEST PUSH2 0x132 DUP2 PUSH2 0x11F JUMP JUMPDEST DUP2 EQ PUSH2 0x13D JUMPI PUSH1 0x0 DUP1 REVERT JUMPDEST POP JUMP INVALID LOG2 PUSH5 0x6970667358 0x22 SLT KECCAK256 0xE3 0xE4 0xD0 SELFBALANCE RETURNDATACOPY STATICCALL DIFFICULTY 0xAC MULMOD PUSH2 0xBE80 SWAP11 SWAP2 PUSH22 0xDB05CB21FB9FA1E267E13248BDD0F84BD864736F6C63 NUMBER STOP ADDMOD MUL STOP CALLER "
				},
				"gasEstimates": {
					"creation": {
						"codeDepositCost": "74800",
						"executionCost": "123",
						"totalCost": "74923"
					},
					"external": {
						"getPrice()": "1115",
						"price()": "1129",
						"setPrice(int256)": "20442"
					}
				},
				"methodIdentifiers": {
					"getPrice()": "98d5fdca",
					"price()": "a035b1fe",
					"setPrice(int256)": "f7a30806"
				}
			},
			"storageLayout": {
				"storage": [
					{
						"astId": 3,
						"contract": "contracts/02_State and Local Variables.sol:Property",
						"label": "price",
						"offset": 0,
						"slot": "0",
						"type": "t_int256"
					}
				],
				"types": {
					"t_int256": {
						"encoding": "inplace",
						"label": "int256",
						"numberOfBytes": "32"
					}
				}
			},
			"userdoc": {
				"kind": "user",
				"methods": {},
				"version": 1
			}
		}
	}
}