{
	"contracts/03_Constructuor.sol": {
		"Property": {
			"abi": [
				{
					"inputs": [
						{
							"internalType": "uint256",
							"name": "_price",
							"type": "uint256"
						},
						{
							"internalType": "string",
							"name": "_location",
							"type": "string"
						}
					],
					"stateMutability": "nonpayable",
					"type": "constructor"
				},
				{
					"inputs": [],
					"name": "getPrice",
					"outputs": [
						{
							"internalType": "uint256",
							"name": "",
							"type": "uint256"
						}
					],
					"stateMutability": "view",
					"type": "function"
				},
				{
					"inputs": [],
					"name": "location",
					"outputs": [
						{
							"internalType": "string",
							"name": "",
							"type": "string"
						}
					],
					"stateMutability": "view",
					"type": "function"
				},
				{
					"inputs": [],
					"name": "owner",
					"outputs": [
						{
							"internalType": "address",
							"name": "",
							"type": "address"
						}
					],
					"stateMutability": "view",
					"type": "function"
				},
				{
					"inputs": [
						{
							"internalType": "string",
							"name": "_location",
							"type": "string"
						}
					],
					"name": "setLocation",
					"outputs": [],
					"stateMutability": "nonpayable",
					"type": "function"
				},
				{
					"inputs": [
						{
							"internalType": "uint256",
							"name": "_price",
							"type": "uint256"
						}
					],
					"name": "setPrice",
					"outputs": [],
					"stateMutability": "nonpayable",
					"type": "function"
				},
				{
					"inputs": [],
					"name": "sold",
					"outputs": [
						{
							"internalType": "bool",
							"name": "",
							"type": "bool"
						}
					],
					"stateMutability": "view",
					"type": "function"
				}
			],
			"devdoc": {
				"kind": "dev",
				"methods": {},
				"version": 1
			},
			"evm": {
				"assembly": "    /* \"contracts/03_Constructuor.sol\":91:1441  contract Property{... */\n  mstore(0x40, 0xa0)\n    /* \"contracts/03_Constructuor.sol\":586:814  constructor(uint _price, string memory _location){... */\n  callvalue\n  dup1\n  iszero\n  tag_1\n  jumpi\n  0x00\n  dup1\n  revert\ntag_1:\n  pop\n  mload(0x40)\n  sub(codesize, bytecodeSize)\n  dup1\n  bytecodeSize\n  dup4\n  codecopy\n  dup2\n  dup2\n  add\n  0x40\n  mstore\n  dup2\n  add\n  swap1\n  tag_2\n  swap2\n  swap1\n  tag_3\n  jump\t// in\ntag_2:\n    /* \"contracts/03_Constructuor.sol\":657:663  _price */\n  dup2\n    /* \"contracts/03_Constructuor.sol\":649:654  price */\n  0x00\n    /* \"contracts/03_Constructuor.sol\":649:663  price = _price */\n  dup2\n  swap1\n  sstore\n  pop\n    /* \"contracts/03_Constructuor.sol\":688:697  _location */\n  dup1\n    /* \"contracts/03_Constructuor.sol\":677:685  location */\n  0x01\n    /* \"contracts/03_Constructuor.sol\":677:697  location = _location */\n  swap1\n  dup2\n  tag_6\n  swap2\n  swap1\n  tag_7\n  jump\t// in\ntag_6:\n  pop\n    /* \"contracts/03_Constructuor.sol\":719:729  msg.sender */\n  caller\n    /* \"contracts/03_Constructuor.sol\":711:729  owner = msg.sender */\n  0xffffffffffffffffffffffffffffffffffffffff\n  and\n  0x80\n  dup2\n  0xffffffffffffffffffffffffffffffffffffffff\n  and\n  dup2\n  mstore\n  pop\n  pop\n    /* \"contracts/03_Constructuor.sol\":586:814  constructor(uint _price, string memory _location){... */\n  pop\n  pop\n    /* \"contracts/03_Constructuor.sol\":91:1441  contract Property{... */\n  jump(tag_8)\n    /* \"#utility.yul\":7:82   */\ntag_9:\n    /* \"#utility.yul\":40:46   */\n  0x00\n    /* \"#utility.yul\":73:75   */\n  0x40\n    /* \"#utility.yul\":67:76   */\n  mload\n    /* \"#utility.yul\":57:76   */\n  swap1\n  pop\n    /* \"#utility.yul\":7:82   */\n  swap1\n  jump\t// out\n    /* \"#utility.yul\":88:205   */\ntag_10:\n    /* \"#utility.yul\":197:198   */\n  0x00\n    /* \"#utility.yul\":194:195   */\n  dup1\n    /* \"#utility.yul\":187:199   */\n  revert\n    /* \"#utility.yul\":211:328   */\ntag_11:\n    /* \"#utility.yul\":320:321   */\n  0x00\n    /* \"#utility.yul\":317:318   */\n  dup1\n    /* \"#utility.yul\":310:322   */\n  revert\n    /* \"#utility.yul\":334:411   */\ntag_12:\n    /* \"#utility.yul\":371:378   */\n  0x00\n    /* \"#utility.yul\":400:405   */\n  dup2\n    /* \"#utility.yul\":389:405   */\n  swap1\n  pop\n    /* \"#utility.yul\":334:411   */\n  swap2\n  swap1\n  pop\n  jump\t// out\n    /* \"#utility.yul\":417:539   */\ntag_13:\n    /* \"#utility.yul\":490:514   */\n  tag_49\n    /* \"#utility.yul\":508:513   */\n  dup2\n    /* \"#utility.yul\":490:514   */\n  tag_12\n  jump\t// in\ntag_49:\n    /* \"#utility.yul\":483:488   */\n  dup2\n    /* \"#utility.yul\":480:515   */\n  eq\n    /* \"#utility.yul\":470:533   */\n  tag_50\n  jumpi\n    /* \"#utility.yul\":529:530   */\n  0x00\n    /* \"#utility.yul\":526:527   */\n  dup1\n    /* \"#utility.yul\":519:531   */\n  revert\n    /* \"#utility.yul\":470:533   */\ntag_50:\n    /* \"#utility.yul\":417:539   */\n  pop\n  jump\t// out\n    /* \"#utility.yul\":545:688   */\ntag_14:\n    /* \"#utility.yul\":602:607   */\n  0x00\n    /* \"#utility.yul\":633:639   */\n  dup2\n    /* \"#utility.yul\":627:640   */\n  mload\n    /* \"#utility.yul\":618:640   */\n  swap1\n  pop\n    /* \"#utility.yul\":649:682   */\n  tag_52\n    /* \"#utility.yul\":676:681   */\n  dup2\n    /* \"#utility.yul\":649:682   */\n  tag_13\n  jump\t// in\ntag_52:\n    /* \"#utility.yul\":545:688   */\n  swap3\n  swap2\n  pop\n  pop\n  jump\t// out\n    /* \"#utility.yul\":694:811   */\ntag_15:\n    /* \"#utility.yul\":803:804   */\n  0x00\n    /* \"#utility.yul\":800:801   */\n  dup1\n    /* \"#utility.yul\":793:805   */\n  revert\n    /* \"#utility.yul\":817:934   */\ntag_16:\n    /* \"#utility.yul\":926:927   */\n  0x00\n    /* \"#utility.yul\":923:924   */\n  dup1\n    /* \"#utility.yul\":916:928   */\n  revert\n    /* \"#utility.yul\":940:1042   */\ntag_17:\n    /* \"#utility.yul\":981:987   */\n  0x00\n    /* \"#utility.yul\":1032:1034   */\n  0x1f\n    /* \"#utility.yul\":1028:1035   */\n  not\n    /* \"#utility.yul\":1023:1025   */\n  0x1f\n    /* \"#utility.yul\":1016:1021   */\n  dup4\n    /* \"#utility.yul\":1012:1026   */\n  add\n    /* \"#utility.yul\":1008:1036   */\n  and\n    /* \"#utility.yul\":998:1036   */\n  swap1\n  pop\n    /* \"#utility.yul\":940:1042   */\n  swap2\n  swap1\n  pop\n  jump\t// out\n    /* \"#utility.yul\":1048:1228   */\ntag_18:\n    /* \"#utility.yul\":1096:1173   */\n  0x4e487b7100000000000000000000000000000000000000000000000000000000\n    /* \"#utility.yul\":1093:1094   */\n  0x00\n    /* \"#utility.yul\":1086:1174   */\n  mstore\n    /* \"#utility.yul\":1193:1197   */\n  0x41\n    /* \"#utility.yul\":1190:1191   */\n  0x04\n    /* \"#utility.yul\":1183:1198   */\n  mstore\n    /* \"#utility.yul\":1217:1221   */\n  0x24\n    /* \"#utility.yul\":1214:1215   */\n  0x00\n    /* \"#utility.yul\":1207:1222   */\n  revert\n    /* \"#utility.yul\":1234:1515   */\ntag_19:\n    /* \"#utility.yul\":1317:1344   */\n  tag_58\n    /* \"#utility.yul\":1339:1343   */\n  dup3\n    /* \"#utility.yul\":1317:1344   */\n  tag_17\n  jump\t// in\ntag_58:\n    /* \"#utility.yul\":1309:1315   */\n  dup2\n    /* \"#utility.yul\":1305:1345   */\n  add\n    /* \"#utility.yul\":1447:1453   */\n  dup2\n    /* \"#utility.yul\":1435:1445   */\n  dup2\n    /* \"#utility.yul\":1432:1454   */\n  lt\n    /* \"#utility.yul\":1411:1429   */\n  0xffffffffffffffff\n    /* \"#utility.yul\":1399:1409   */\n  dup3\n    /* \"#utility.yul\":1396:1430   */\n  gt\n    /* \"#utility.yul\":1393:1455   */\n  or\n    /* \"#utility.yul\":1390:1478   */\n  iszero\n  tag_59\n  jumpi\n    /* \"#utility.yul\":1458:1476   */\n  tag_60\n  tag_18\n  jump\t// in\ntag_60:\n    /* \"#utility.yul\":1390:1478   */\ntag_59:\n    /* \"#utility.yul\":1498:1508   */\n  dup1\n    /* \"#utility.yul\":1494:1496   */\n  0x40\n    /* \"#utility.yul\":1487:1509   */\n  mstore\n    /* \"#utility.yul\":1277:1515   */\n  pop\n    /* \"#utility.yul\":1234:1515   */\n  pop\n  pop\n  jump\t// out\n    /* \"#utility.yul\":1521:1650   */\ntag_20:\n    /* \"#utility.yul\":1555:1561   */\n  0x00\n    /* \"#utility.yul\":1582:1602   */\n  tag_62\n  tag_9\n  jump\t// in\ntag_62:\n    /* \"#utility.yul\":1572:1602   */\n  swap1\n  pop\n    /* \"#utility.yul\":1611:1644   */\n  tag_63\n    /* \"#utility.yul\":1639:1643   */\n  dup3\n    /* \"#utility.yul\":1631:1637   */\n  dup3\n    /* \"#utility.yul\":1611:1644   */\n  tag_19\n  jump\t// in\ntag_63:\n    /* \"#utility.yul\":1521:1650   */\n  swap2\n  swap1\n  pop\n  jump\t// out\n    /* \"#utility.yul\":1656:1964   */\ntag_21:\n    /* \"#utility.yul\":1718:1722   */\n  0x00\n    /* \"#utility.yul\":1808:1826   */\n  0xffffffffffffffff\n    /* \"#utility.yul\":1800:1806   */\n  dup3\n    /* \"#utility.yul\":1797:1827   */\n  gt\n    /* \"#utility.yul\":1794:1850   */\n  iszero\n  tag_65\n  jumpi\n    /* \"#utility.yul\":1830:1848   */\n  tag_66\n  tag_18\n  jump\t// in\ntag_66:\n    /* \"#utility.yul\":1794:1850   */\ntag_65:\n    /* \"#utility.yul\":1868:1897   */\n  tag_67\n    /* \"#utility.yul\":1890:1896   */\n  dup3\n    /* \"#utility.yul\":1868:1897   */\n  tag_17\n  jump\t// in\ntag_67:\n    /* \"#utility.yul\":1860:1897   */\n  swap1\n  pop\n    /* \"#utility.yul\":1952:1956   */\n  0x20\n    /* \"#utility.yul\":1946:1950   */\n  dup2\n    /* \"#utility.yul\":1942:1957   */\n  add\n    /* \"#utility.yul\":1934:1957   */\n  swap1\n  pop\n    /* \"#utility.yul\":1656:1964   */\n  swap2\n  swap1\n  pop\n  jump\t// out\n    /* \"#utility.yul\":1970:2216   */\ntag_22:\n    /* \"#utility.yul\":2051:2052   */\n  0x00\n    /* \"#utility.yul\":2061:2174   */\ntag_69:\n    /* \"#utility.yul\":2075:2081   */\n  dup4\n    /* \"#utility.yul\":2072:2073   */\n  dup2\n    /* \"#utility.yul\":2069:2082   */\n  lt\n    /* \"#utility.yul\":2061:2174   */\n  iszero\n  tag_71\n  jumpi\n    /* \"#utility.yul\":2160:2161   */\n  dup1\n    /* \"#utility.yul\":2155:2158   */\n  dup3\n    /* \"#utility.yul\":2151:2162   */\n  add\n    /* \"#utility.yul\":2145:2163   */\n  mload\n    /* \"#utility.yul\":2141:2142   */\n  dup2\n    /* \"#utility.yul\":2136:2139   */\n  dup5\n    /* \"#utility.yul\":2132:2143   */\n  add\n    /* \"#utility.yul\":2125:2164   */\n  mstore\n    /* \"#utility.yul\":2097:2099   */\n  0x20\n    /* \"#utility.yul\":2094:2095   */\n  dup2\n    /* \"#utility.yul\":2090:2100   */\n  add\n    /* \"#utility.yul\":2085:2100   */\n  swap1\n  pop\n    /* \"#utility.yul\":2061:2174   */\n  jump(tag_69)\ntag_71:\n    /* \"#utility.yul\":2208:2209   */\n  0x00\n    /* \"#utility.yul\":2199:2205   */\n  dup5\n    /* \"#utility.yul\":2194:2197   */\n  dup5\n    /* \"#utility.yul\":2190:2206   */\n  add\n    /* \"#utility.yul\":2183:2210   */\n  mstore\n    /* \"#utility.yul\":2032:2216   */\n  pop\n    /* \"#utility.yul\":1970:2216   */\n  pop\n  pop\n  pop\n  jump\t// out\n    /* \"#utility.yul\":2222:2656   */\ntag_23:\n    /* \"#utility.yul\":2311:2316   */\n  0x00\n    /* \"#utility.yul\":2336:2402   */\n  tag_73\n    /* \"#utility.yul\":2352:2401   */\n  tag_74\n    /* \"#utility.yul\":2394:2400   */\n  dup5\n    /* \"#utility.yul\":2352:2401   */\n  tag_21\n  jump\t// in\ntag_74:\n    /* \"#utility.yul\":2336:2402   */\n  tag_20\n  jump\t// in\ntag_73:\n    /* \"#utility.yul\":2327:2402   */\n  swap1\n  pop\n    /* \"#utility.yul\":2425:2431   */\n  dup3\n    /* \"#utility.yul\":2418:2423   */\n  dup2\n    /* \"#utility.yul\":2411:2432   */\n  mstore\n    /* \"#utility.yul\":2463:2467   */\n  0x20\n    /* \"#utility.yul\":2456:2461   */\n  dup2\n    /* \"#utility.yul\":2452:2468   */\n  add\n    /* \"#utility.yul\":2501:2504   */\n  dup5\n    /* \"#utility.yul\":2492:2498   */\n  dup5\n    /* \"#utility.yul\":2487:2490   */\n  dup5\n    /* \"#utility.yul\":2483:2499   */\n  add\n    /* \"#utility.yul\":2480:2505   */\n  gt\n    /* \"#utility.yul\":2477:2589   */\n  iszero\n  tag_75\n  jumpi\n    /* \"#utility.yul\":2508:2587   */\n  tag_76\n  tag_16\n  jump\t// in\ntag_76:\n    /* \"#utility.yul\":2477:2589   */\ntag_75:\n    /* \"#utility.yul\":2598:2650   */\n  tag_77\n    /* \"#utility.yul\":2643:2649   */\n  dup5\n    /* \"#utility.yul\":2638:2641   */\n  dup3\n    /* \"#utility.yul\":2633:2636   */\n  dup6\n    /* \"#utility.yul\":2598:2650   */\n  tag_22\n  jump\t// in\ntag_77:\n    /* \"#utility.yul\":2317:2656   */\n  pop\n    /* \"#utility.yul\":2222:2656   */\n  swap4\n  swap3\n  pop\n  pop\n  pop\n  jump\t// out\n    /* \"#utility.yul\":2676:3031   */\ntag_24:\n    /* \"#utility.yul\":2743:2748   */\n  0x00\n    /* \"#utility.yul\":2792:2795   */\n  dup3\n    /* \"#utility.yul\":2785:2789   */\n  0x1f\n    /* \"#utility.yul\":2777:2783   */\n  dup4\n    /* \"#utility.yul\":2773:2790   */\n  add\n    /* \"#utility.yul\":2769:2796   */\n  slt\n    /* \"#utility.yul\":2759:2881   */\n  tag_79\n  jumpi\n    /* \"#utility.yul\":2800:2879   */\n  tag_80\n  tag_15\n  jump\t// in\ntag_80:\n    /* \"#utility.yul\":2759:2881   */\ntag_79:\n    /* \"#utility.yul\":2910:2916   */\n  dup2\n    /* \"#utility.yul\":2904:2917   */\n  mload\n    /* \"#utility.yul\":2935:3025   */\n  tag_81\n    /* \"#utility.yul\":3021:3024   */\n  dup5\n    /* \"#utility.yul\":3013:3019   */\n  dup3\n    /* \"#utility.yul\":3006:3010   */\n  0x20\n    /* \"#utility.yul\":2998:3004   */\n  dup7\n    /* \"#utility.yul\":2994:3011   */\n  add\n    /* \"#utility.yul\":2935:3025   */\n  tag_23\n  jump\t// in\ntag_81:\n    /* \"#utility.yul\":2926:3025   */\n  swap2\n  pop\n    /* \"#utility.yul\":2749:3031   */\n  pop\n    /* \"#utility.yul\":2676:3031   */\n  swap3\n  swap2\n  pop\n  pop\n  jump\t// out\n    /* \"#utility.yul\":3037:3717   */\ntag_3:\n    /* \"#utility.yul\":3126:3132   */\n  0x00\n    /* \"#utility.yul\":3134:3140   */\n  dup1\n    /* \"#utility.yul\":3183:3185   */\n  0x40\n    /* \"#utility.yul\":3171:3180   */\n  dup4\n    /* \"#utility.yul\":3162:3169   */\n  dup6\n    /* \"#utility.yul\":3158:3181   */\n  sub\n    /* \"#utility.yul\":3154:3186   */\n  slt\n    /* \"#utility.yul\":3151:3270   */\n  iszero\n  tag_83\n  jumpi\n    /* \"#utility.yul\":3189:3268   */\n  tag_84\n  tag_10\n  jump\t// in\ntag_84:\n    /* \"#utility.yul\":3151:3270   */\ntag_83:\n    /* \"#utility.yul\":3309:3310   */\n  0x00\n    /* \"#utility.yul\":3334:3398   */\n  tag_85\n    /* \"#utility.yul\":3390:3397   */\n  dup6\n    /* \"#utility.yul\":3381:3387   */\n  dup3\n    /* \"#utility.yul\":3370:3379   */\n  dup7\n    /* \"#utility.yul\":3366:3388   */\n  add\n    /* \"#utility.yul\":3334:3398   */\n  tag_14\n  jump\t// in\ntag_85:\n    /* \"#utility.yul\":3324:3398   */\n  swap3\n  pop\n    /* \"#utility.yul\":3280:3408   */\n  pop\n    /* \"#utility.yul\":3468:3470   */\n  0x20\n    /* \"#utility.yul\":3457:3466   */\n  dup4\n    /* \"#utility.yul\":3453:3471   */\n  add\n    /* \"#utility.yul\":3447:3472   */\n  mload\n    /* \"#utility.yul\":3499:3517   */\n  0xffffffffffffffff\n    /* \"#utility.yul\":3491:3497   */\n  dup2\n    /* \"#utility.yul\":3488:3518   */\n  gt\n    /* \"#utility.yul\":3485:3602   */\n  iszero\n  tag_86\n  jumpi\n    /* \"#utility.yul\":3521:3600   */\n  tag_87\n  tag_11\n  jump\t// in\ntag_87:\n    /* \"#utility.yul\":3485:3602   */\ntag_86:\n    /* \"#utility.yul\":3626:3700   */\n  tag_88\n    /* \"#utility.yul\":3692:3699   */\n  dup6\n    /* \"#utility.yul\":3683:3689   */\n  dup3\n    /* \"#utility.yul\":3672:3681   */\n  dup7\n    /* \"#utility.yul\":3668:3690   */\n  add\n    /* \"#utility.yul\":3626:3700   */\n  tag_24\n  jump\t// in\ntag_88:\n    /* \"#utility.yul\":3616:3700   */\n  swap2\n  pop\n    /* \"#utility.yul\":3418:3710   */\n  pop\n    /* \"#utility.yul\":3037:3717   */\n  swap3\n  pop\n  swap3\n  swap1\n  pop\n  jump\t// out\n    /* \"#utility.yul\":3723:3822   */\ntag_25:\n    /* \"#utility.yul\":3775:3781   */\n  0x00\n    /* \"#utility.yul\":3809:3814   */\n  dup2\n    /* \"#utility.yul\":3803:3815   */\n  mload\n    /* \"#utility.yul\":3793:3815   */\n  swap1\n  pop\n    /* \"#utility.yul\":3723:3822   */\n  swap2\n  swap1\n  pop\n  jump\t// out\n    /* \"#utility.yul\":3828:4008   */\ntag_26:\n    /* \"#utility.yul\":3876:3953   */\n  0x4e487b7100000000000000000000000000000000000000000000000000000000\n    /* \"#utility.yul\":3873:3874   */\n  0x00\n    /* \"#utility.yul\":3866:3954   */\n  mstore\n    /* \"#utility.yul\":3973:3977   */\n  0x22\n    /* \"#utility.yul\":3970:3971   */\n  0x04\n    /* \"#utility.yul\":3963:3978   */\n  mstore\n    /* \"#utility.yul\":3997:4001   */\n  0x24\n    /* \"#utility.yul\":3994:3995   */\n  0x00\n    /* \"#utility.yul\":3987:4002   */\n  revert\n    /* \"#utility.yul\":4014:4334   */\ntag_27:\n    /* \"#utility.yul\":4058:4064   */\n  0x00\n    /* \"#utility.yul\":4095:4096   */\n  0x02\n    /* \"#utility.yul\":4089:4093   */\n  dup3\n    /* \"#utility.yul\":4085:4097   */\n  div\n    /* \"#utility.yul\":4075:4097   */\n  swap1\n  pop\n    /* \"#utility.yul\":4142:4143   */\n  0x01\n    /* \"#utility.yul\":4136:4140   */\n  dup3\n    /* \"#utility.yul\":4132:4144   */\n  and\n    /* \"#utility.yul\":4163:4181   */\n  dup1\n    /* \"#utility.yul\":4153:4234   */\n  tag_92\n  jumpi\n    /* \"#utility.yul\":4219:4223   */\n  0x7f\n    /* \"#utility.yul\":4211:4217   */\n  dup3\n    /* \"#utility.yul\":4207:4224   */\n  and\n    /* \"#utility.yul\":4197:4224   */\n  swap2\n  pop\n    /* \"#utility.yul\":4153:4234   */\ntag_92:\n    /* \"#utility.yul\":4281:4283   */\n  0x20\n    /* \"#utility.yul\":4273:4279   */\n  dup3\n    /* \"#utility.yul\":4270:4284   */\n  lt\n    /* \"#utility.yul\":4250:4268   */\n  dup2\n    /* \"#utility.yul\":4247:4285   */\n  sub\n    /* \"#utility.yul\":4244:4328   */\n  tag_93\n  jumpi\n    /* \"#utility.yul\":4300:4318   */\n  tag_94\n  tag_26\n  jump\t// in\ntag_94:\n    /* \"#utility.yul\":4244:4328   */\ntag_93:\n    /* \"#utility.yul\":4065:4334   */\n  pop\n    /* \"#utility.yul\":4014:4334   */\n  swap2\n  swap1\n  pop\n  jump\t// out\n    /* \"#utility.yul\":4340:4481   */\ntag_28:\n    /* \"#utility.yul\":4389:4393   */\n  0x00\n    /* \"#utility.yul\":4412:4415   */\n  dup2\n    /* \"#utility.yul\":4404:4415   */\n  swap1\n  pop\n    /* \"#utility.yul\":4435:4438   */\n  dup2\n    /* \"#utility.yul\":4432:4433   */\n  0x00\n    /* \"#utility.yul\":4425:4439   */\n  mstore\n    /* \"#utility.yul\":4469:4473   */\n  0x20\n    /* \"#utility.yul\":4466:4467   */\n  0x00\n    /* \"#utility.yul\":4456:4474   */\n  keccak256\n    /* \"#utility.yul\":4448:4474   */\n  swap1\n  pop\n    /* \"#utility.yul\":4340:4481   */\n  swap2\n  swap1\n  pop\n  jump\t// out\n    /* \"#utility.yul\":4487:4580   */\ntag_29:\n    /* \"#utility.yul\":4524:4530   */\n  0x00\n    /* \"#utility.yul\":4571:4573   */\n  0x20\n    /* \"#utility.yul\":4566:4568   */\n  0x1f\n    /* \"#utility.yul\":4559:4564   */\n  dup4\n    /* \"#utility.yul\":4555:4569   */\n  add\n    /* \"#utility.yul\":4551:4574   */\n  div\n    /* \"#utility.yul\":4541:4574   */\n  swap1\n  pop\n    /* \"#utility.yul\":4487:4580   */\n  swap2\n  swap1\n  pop\n  jump\t// out\n    /* \"#utility.yul\":4586:4693   */\ntag_30:\n    /* \"#utility.yul\":4630:4638   */\n  0x00\n    /* \"#utility.yul\":4680:4685   */\n  dup3\n    /* \"#utility.yul\":4674:4678   */\n  dup3\n    /* \"#utility.yul\":4670:4686   */\n  shl\n    /* \"#utility.yul\":4649:4686   */\n  swap1\n  pop\n    /* \"#utility.yul\":4586:4693   */\n  swap3\n  swap2\n  pop\n  pop\n  jump\t// out\n    /* \"#utility.yul\":4699:5092   */\ntag_31:\n    /* \"#utility.yul\":4768:4774   */\n  0x00\n    /* \"#utility.yul\":4818:4819   */\n  0x08\n    /* \"#utility.yul\":4806:4816   */\n  dup4\n    /* \"#utility.yul\":4802:4820   */\n  mul\n    /* \"#utility.yul\":4841:4938   */\n  tag_99\n    /* \"#utility.yul\":4871:4937   */\n  0xffffffffffffffffffffffffffffffffffffffffffffffffffffffffffffffff\n    /* \"#utility.yul\":4860:4869   */\n  dup3\n    /* \"#utility.yul\":4841:4938   */\n  tag_30\n  jump\t// in\ntag_99:\n    /* \"#utility.yul\":4959:4998   */\n  tag_100\n    /* \"#utility.yul\":4989:4997   */\n  dup7\n    /* \"#utility.yul\":4978:4987   */\n  dup4\n    /* \"#utility.yul\":4959:4998   */\n  tag_30\n  jump\t// in\ntag_100:\n    /* \"#utility.yul\":4947:4998   */\n  swap6\n  pop\n    /* \"#utility.yul\":5031:5035   */\n  dup1\n    /* \"#utility.yul\":5027:5036   */\n  not\n    /* \"#utility.yul\":5020:5025   */\n  dup5\n    /* \"#utility.yul\":5016:5037   */\n  and\n    /* \"#utility.yul\":5007:5037   */\n  swap4\n  pop\n    /* \"#utility.yul\":5080:5084   */\n  dup1\n    /* \"#utility.yul\":5070:5078   */\n  dup7\n    /* \"#utility.yul\":5066:5085   */\n  and\n    /* \"#utility.yul\":5059:5064   */\n  dup5\n    /* \"#utility.yul\":5056:5086   */\n  or\n    /* \"#utility.yul\":5046:5086   */\n  swap3\n  pop\n    /* \"#utility.yul\":4775:5092   */\n  pop\n  pop\n    /* \"#utility.yul\":4699:5092   */\n  swap4\n  swap3\n  pop\n  pop\n  pop\n  jump\t// out\n    /* \"#utility.yul\":5098:5158   */\ntag_32:\n    /* \"#utility.yul\":5126:5129   */\n  0x00\n    /* \"#utility.yul\":5147:5152   */\n  dup2\n    /* \"#utility.yul\":5140:5152   */\n  swap1\n  pop\n    /* \"#utility.yul\":5098:5158   */\n  swap2\n  swap1\n  pop\n  jump\t// out\n    /* \"#utility.yul\":5164:5306   */\ntag_33:\n    /* \"#utility.yul\":5214:5223   */\n  0x00\n    /* \"#utility.yul\":5247:5300   */\n  tag_103\n    /* \"#utility.yul\":5265:5299   */\n  tag_104\n    /* \"#utility.yul\":5274:5298   */\n  tag_105\n    /* \"#utility.yul\":5292:5297   */\n  dup5\n    /* \"#utility.yul\":5274:5298   */\n  tag_12\n  jump\t// in\ntag_105:\n    /* \"#utility.yul\":5265:5299   */\n  tag_32\n  jump\t// in\ntag_104:\n    /* \"#utility.yul\":5247:5300   */\n  tag_12\n  jump\t// in\ntag_103:\n    /* \"#utility.yul\":5234:5300   */\n  swap1\n  pop\n    /* \"#utility.yul\":5164:5306   */\n  swap2\n  swap1\n  pop\n  jump\t// out\n    /* \"#utility.yul\":5312:5387   */\ntag_34:\n    /* \"#utility.yul\":5355:5358   */\n  0x00\n    /* \"#utility.yul\":5376:5381   */\n  dup2\n    /* \"#utility.yul\":5369:5381   */\n  swap1\n  pop\n    /* \"#utility.yul\":5312:5387   */\n  swap2\n  swap1\n  pop\n  jump\t// out\n    /* \"#utility.yul\":5393:5662   */\ntag_35:\n    /* \"#utility.yul\":5503:5542   */\n  tag_108\n    /* \"#utility.yul\":5534:5541   */\n  dup4\n    /* \"#utility.yul\":5503:5542   */\n  tag_33\n  jump\t// in\ntag_108:\n    /* \"#utility.yul\":5564:5655   */\n  tag_109\n    /* \"#utility.yul\":5613:5654   */\n  tag_110\n    /* \"#utility.yul\":5637:5653   */\n  dup3\n    /* \"#utility.yul\":5613:5654   */\n  tag_34\n  jump\t// in\ntag_110:\n    /* \"#utility.yul\":5605:5611   */\n  dup5\n    /* \"#utility.yul\":5598:5602   */\n  dup5\n    /* \"#utility.yul\":5592:5603   */\n  sload\n    /* \"#utility.yul\":5564:5655   */\n  tag_31\n  jump\t// in\ntag_109:\n    /* \"#utility.yul\":5558:5562   */\n  dup3\n    /* \"#utility.yul\":5551:5656   */\n  sstore\n    /* \"#utility.yul\":5469:5662   */\n  pop\n    /* \"#utility.yul\":5393:5662   */\n  pop\n  pop\n  pop\n  jump\t// out\n    /* \"#utility.yul\":5668:5741   */\ntag_36:\n    /* \"#utility.yul\":5713:5716   */\n  0x00\n    /* \"#utility.yul\":5668:5741   */\n  swap1\n  jump\t// out\n    /* \"#utility.yul\":5747:5936   */\ntag_37:\n    /* \"#utility.yul\":5824:5856   */\n  tag_113\n  tag_36\n  jump\t// in\ntag_113:\n    /* \"#utility.yul\":5865:5930   */\n  tag_114\n    /* \"#utility.yul\":5923:5929   */\n  dup2\n    /* \"#utility.yul\":5915:5921   */\n  dup5\n    /* \"#utility.yul\":5909:5913   */\n  dup5\n    /* \"#utility.yul\":5865:5930   */\n  tag_35\n  jump\t// in\ntag_114:\n    /* \"#utility.yul\":5800:5936   */\n  pop\n    /* \"#utility.yul\":5747:5936   */\n  pop\n  pop\n  jump\t// out\n    /* \"#utility.yul\":5942:6128   */\ntag_38:\n    /* \"#utility.yul\":6002:6122   */\ntag_116:\n    /* \"#utility.yul\":6019:6022   */\n  dup2\n    /* \"#utility.yul\":6012:6017   */\n  dup2\n    /* \"#utility.yul\":6009:6023   */\n  lt\n    /* \"#utility.yul\":6002:6122   */\n  iszero\n  tag_118\n  jumpi\n    /* \"#utility.yul\":6073:6112   */\n  tag_119\n    /* \"#utility.yul\":6110:6111   */\n  0x00\n    /* \"#utility.yul\":6103:6108   */\n  dup3\n    /* \"#utility.yul\":6073:6112   */\n  tag_37\n  jump\t// in\ntag_119:\n    /* \"#utility.yul\":6046:6047   */\n  0x01\n    /* \"#utility.yul\":6039:6044   */\n  dup2\n    /* \"#utility.yul\":6035:6048   */\n  add\n    /* \"#utility.yul\":6026:6048   */\n  swap1\n  pop\n    /* \"#utility.yul\":6002:6122   */\n  jump(tag_116)\ntag_118:\n    /* \"#utility.yul\":5942:6128   */\n  pop\n  pop\n  jump\t// out\n    /* \"#utility.yul\":6134:6677   */\ntag_39:\n    /* \"#utility.yul\":6235:6237   */\n  0x1f\n    /* \"#utility.yul\":6230:6233   */\n  dup3\n    /* \"#utility.yul\":6227:6238   */\n  gt\n    /* \"#utility.yul\":6224:6670   */\n  iszero\n  tag_121\n  jumpi\n    /* \"#utility.yul\":6269:6307   */\n  tag_122\n    /* \"#utility.yul\":6301:6306   */\n  dup2\n    /* \"#utility.yul\":6269:6307   */\n  tag_28\n  jump\t// in\ntag_122:\n    /* \"#utility.yul\":6353:6382   */\n  tag_123\n    /* \"#utility.yul\":6371:6381   */\n  dup5\n    /* \"#utility.yul\":6353:6382   */\n  tag_29\n  jump\t// in\ntag_123:\n    /* \"#utility.yul\":6343:6351   */\n  dup2\n    /* \"#utility.yul\":6339:6383   */\n  add\n    /* \"#utility.yul\":6536:6538   */\n  0x20\n    /* \"#utility.yul\":6524:6534   */\n  dup6\n    /* \"#utility.yul\":6521:6539   */\n  lt\n    /* \"#utility.yul\":6518:6567   */\n  iszero\n  tag_124\n  jumpi\n    /* \"#utility.yul\":6557:6565   */\n  dup2\n    /* \"#utility.yul\":6542:6565   */\n  swap1\n  pop\n    /* \"#utility.yul\":6518:6567   */\ntag_124:\n    /* \"#utility.yul\":6580:6660   */\n  tag_125\n    /* \"#utility.yul\":6636:6658   */\n  tag_126\n    /* \"#utility.yul\":6654:6657   */\n  dup6\n    /* \"#utility.yul\":6636:6658   */\n  tag_29\n  jump\t// in\ntag_126:\n    /* \"#utility.yul\":6626:6634   */\n  dup4\n    /* \"#utility.yul\":6622:6659   */\n  add\n    /* \"#utility.yul\":6609:6620   */\n  dup3\n    /* \"#utility.yul\":6580:6660   */\n  tag_38\n  jump\t// in\ntag_125:\n    /* \"#utility.yul\":6239:6670   */\n  pop\n  pop\n    /* \"#utility.yul\":6224:6670   */\ntag_121:\n    /* \"#utility.yul\":6134:6677   */\n  pop\n  pop\n  pop\n  jump\t// out\n    /* \"#utility.yul\":6683:6800   */\ntag_40:\n    /* \"#utility.yul\":6737:6745   */\n  0x00\n    /* \"#utility.yul\":6787:6792   */\n  dup3\n    /* \"#utility.yul\":6781:6785   */\n  dup3\n    /* \"#utility.yul\":6777:6793   */\n  shr\n    /* \"#utility.yul\":6756:6793   */\n  swap1\n  pop\n    /* \"#utility.yul\":6683:6800   */\n  swap3\n  swap2\n  pop\n  pop\n  jump\t// out\n    /* \"#utility.yul\":6806:6975   */\ntag_41:\n    /* \"#utility.yul\":6850:6856   */\n  0x00\n    /* \"#utility.yul\":6883:6934   */\n  tag_129\n    /* \"#utility.yul\":6931:6932   */\n  0x00\n    /* \"#utility.yul\":6927:6933   */\n  not\n    /* \"#utility.yul\":6919:6924   */\n  dup5\n    /* \"#utility.yul\":6916:6917   */\n  0x08\n    /* \"#utility.yul\":6912:6925   */\n  mul\n    /* \"#utility.yul\":6883:6934   */\n  tag_40\n  jump\t// in\ntag_129:\n    /* \"#utility.yul\":6879:6935   */\n  not\n    /* \"#utility.yul\":6964:6968   */\n  dup1\n    /* \"#utility.yul\":6958:6962   */\n  dup4\n    /* \"#utility.yul\":6954:6969   */\n  and\n    /* \"#utility.yul\":6944:6969   */\n  swap2\n  pop\n    /* \"#utility.yul\":6857:6975   */\n  pop\n    /* \"#utility.yul\":6806:6975   */\n  swap3\n  swap2\n  pop\n  pop\n  jump\t// out\n    /* \"#utility.yul\":6980:7275   */\ntag_42:\n    /* \"#utility.yul\":7056:7060   */\n  0x00\n    /* \"#utility.yul\":7202:7231   */\n  tag_131\n    /* \"#utility.yul\":7227:7230   */\n  dup4\n    /* \"#utility.yul\":7221:7225   */\n  dup4\n    /* \"#utility.yul\":7202:7231   */\n  tag_41\n  jump\t// in\ntag_131:\n    /* \"#utility.yul\":7194:7231   */\n  swap2\n  pop\n    /* \"#utility.yul\":7264:7267   */\n  dup3\n    /* \"#utility.yul\":7261:7262   */\n  0x02\n    /* \"#utility.yul\":7257:7268   */\n  mul\n    /* \"#utility.yul\":7251:7255   */\n  dup3\n    /* \"#utility.yul\":7248:7269   */\n  or\n    /* \"#utility.yul\":7240:7269   */\n  swap1\n  pop\n    /* \"#utility.yul\":6980:7275   */\n  swap3\n  swap2\n  pop\n  pop\n  jump\t// out\n    /* \"#utility.yul\":7280:8675   */\ntag_7:\n    /* \"#utility.yul\":7397:7434   */\n  tag_133\n    /* \"#utility.yul\":7430:7433   */\n  dup3\n    /* \"#utility.yul\":7397:7434   */\n  tag_25\n  jump\t// in\ntag_133:\n    /* \"#utility.yul\":7499:7517   */\n  0xffffffffffffffff\n    /* \"#utility.yul\":7491:7497   */\n  dup2\n    /* \"#utility.yul\":7488:7518   */\n  gt\n    /* \"#utility.yul\":7485:7541   */\n  iszero\n  tag_134\n  jumpi\n    /* \"#utility.yul\":7521:7539   */\n  tag_135\n  tag_18\n  jump\t// in\ntag_135:\n    /* \"#utility.yul\":7485:7541   */\ntag_134:\n    /* \"#utility.yul\":7565:7603   */\n  tag_136\n    /* \"#utility.yul\":7597:7601   */\n  dup3\n    /* \"#utility.yul\":7591:7602   */\n  sload\n    /* \"#utility.yul\":7565:7603   */\n  tag_27\n  jump\t// in\ntag_136:\n    /* \"#utility.yul\":7650:7717   */\n  tag_137\n    /* \"#utility.yul\":7710:7716   */\n  dup3\n    /* \"#utility.yul\":7702:7708   */\n  dup3\n    /* \"#utility.yul\":7696:7700   */\n  dup6\n    /* \"#utility.yul\":7650:7717   */\n  tag_39\n  jump\t// in\ntag_137:\n    /* \"#utility.yul\":7744:7745   */\n  0x00\n    /* \"#utility.yul\":7768:7772   */\n  0x20\n    /* \"#utility.yul\":7755:7772   */\n  swap1\n  pop\n    /* \"#utility.yul\":7800:7802   */\n  0x1f\n    /* \"#utility.yul\":7792:7798   */\n  dup4\n    /* \"#utility.yul\":7789:7803   */\n  gt\n    /* \"#utility.yul\":7817:7818   */\n  0x01\n    /* \"#utility.yul\":7812:8430   */\n  dup2\n  eq\n  tag_139\n  jumpi\n    /* \"#utility.yul\":8474:8475   */\n  0x00\n    /* \"#utility.yul\":8491:8497   */\n  dup5\n    /* \"#utility.yul\":8488:8565   */\n  iszero\n  tag_140\n  jumpi\n    /* \"#utility.yul\":8540:8549   */\n  dup3\n    /* \"#utility.yul\":8535:8538   */\n  dup8\n    /* \"#utility.yul\":8531:8550   */\n  add\n    /* \"#utility.yul\":8525:8551   */\n  mload\n    /* \"#utility.yul\":8516:8551   */\n  swap1\n  pop\n    /* \"#utility.yul\":8488:8565   */\ntag_140:\n    /* \"#utility.yul\":8591:8658   */\n  tag_141\n    /* \"#utility.yul\":8651:8657   */\n  dup6\n    /* \"#utility.yul\":8644:8649   */\n  dup3\n    /* \"#utility.yul\":8591:8658   */\n  tag_42\n  jump\t// in\ntag_141:\n    /* \"#utility.yul\":8585:8589   */\n  dup7\n    /* \"#utility.yul\":8578:8659   */\n  sstore\n    /* \"#utility.yul\":8447:8669   */\n  pop\n    /* \"#utility.yul\":7782:8669   */\n  jump(tag_138)\n    /* \"#utility.yul\":7812:8430   */\ntag_139:\n    /* \"#utility.yul\":7864:7868   */\n  0x1f\n    /* \"#utility.yul\":7860:7869   */\n  not\n    /* \"#utility.yul\":7852:7858   */\n  dup5\n    /* \"#utility.yul\":7848:7870   */\n  and\n    /* \"#utility.yul\":7898:7935   */\n  tag_142\n    /* \"#utility.yul\":7930:7934   */\n  dup7\n    /* \"#utility.yul\":7898:7935   */\n  tag_28\n  jump\t// in\ntag_142:\n    /* \"#utility.yul\":7957:7958   */\n  0x00\n    /* \"#utility.yul\":7971:8179   */\ntag_143:\n    /* \"#utility.yul\":7985:7992   */\n  dup3\n    /* \"#utility.yul\":7982:7983   */\n  dup2\n    /* \"#utility.yul\":7979:7993   */\n  lt\n    /* \"#utility.yul\":7971:8179   */\n  iszero\n  tag_145\n  jumpi\n    /* \"#utility.yul\":8064:8073   */\n  dup5\n    /* \"#utility.yul\":8059:8062   */\n  dup10\n    /* \"#utility.yul\":8055:8074   */\n  add\n    /* \"#utility.yul\":8049:8075   */\n  mload\n    /* \"#utility.yul\":8041:8047   */\n  dup3\n    /* \"#utility.yul\":8034:8076   */\n  sstore\n    /* \"#utility.yul\":8115:8116   */\n  0x01\n    /* \"#utility.yul\":8107:8113   */\n  dup3\n    /* \"#utility.yul\":8103:8117   */\n  add\n    /* \"#utility.yul\":8093:8117   */\n  swap2\n  pop\n    /* \"#utility.yul\":8162:8164   */\n  0x20\n    /* \"#utility.yul\":8151:8160   */\n  dup6\n    /* \"#utility.yul\":8147:8165   */\n  add\n    /* \"#utility.yul\":8134:8165   */\n  swap5\n  pop\n    /* \"#utility.yul\":8008:8012   */\n  0x20\n    /* \"#utility.yul\":8005:8006   */\n  dup2\n    /* \"#utility.yul\":8001:8013   */\n  add\n    /* \"#utility.yul\":7996:8013   */\n  swap1\n  pop\n    /* \"#utility.yul\":7971:8179   */\n  jump(tag_143)\ntag_145:\n    /* \"#utility.yul\":8207:8213   */\n  dup7\n    /* \"#utility.yul\":8198:8205   */\n  dup4\n    /* \"#utility.yul\":8195:8214   */\n  lt\n    /* \"#utility.yul\":8192:8371   */\n  iszero\n  tag_146\n  jumpi\n    /* \"#utility.yul\":8265:8274   */\n  dup5\n    /* \"#utility.yul\":8260:8263   */\n  dup10\n    /* \"#utility.yul\":8256:8275   */\n  add\n    /* \"#utility.yul\":8250:8276   */\n  mload\n    /* \"#utility.yul\":8308:8356   */\n  tag_147\n    /* \"#utility.yul\":8350:8354   */\n  0x1f\n    /* \"#utility.yul\":8342:8348   */\n  dup10\n    /* \"#utility.yul\":8338:8355   */\n  and\n    /* \"#utility.yul\":8327:8336   */\n  dup3\n    /* \"#utility.yul\":8308:8356   */\n  tag_41\n  jump\t// in\ntag_147:\n    /* \"#utility.yul\":8300:8306   */\n  dup4\n    /* \"#utility.yul\":8293:8357   */\n  sstore\n    /* \"#utility.yul\":8215:8371   */\n  pop\n    /* \"#utility.yul\":8192:8371   */\ntag_146:\n    /* \"#utility.yul\":8417:8418   */\n  0x01\n    /* \"#utility.yul\":8413:8414   */\n  0x02\n    /* \"#utility.yul\":8405:8411   */\n  dup9\n    /* \"#utility.yul\":8401:8415   */\n  mul\n    /* \"#utility.yul\":8397:8419   */\n  add\n    /* \"#utility.yul\":8391:8395   */\n  dup9\n    /* \"#utility.yul\":8384:8420   */\n  sstore\n    /* \"#utility.yul\":7819:8430   */\n  pop\n  pop\n  pop\n    /* \"#utility.yul\":7782:8669   */\ntag_138:\n  pop\n    /* \"#utility.yul\":7372:8675   */\n  pop\n  pop\n  pop\n    /* \"#utility.yul\":7280:8675   */\n  pop\n  pop\n  jump\t// out\n    /* \"contracts/03_Constructuor.sol\":91:1441  contract Property{... */\ntag_8:\n  mload(0x80)\n  codecopy(0x00, dataOffset(sub_0), dataSize(sub_0))\n  0x00\n  assignImmutable(\"0xd2f8f61201b2b11a78d6e866abc9c3db2ae8631fa656bfe5cb53668255367afb\")\n  return(0x00, dataSize(sub_0))\nstop\n\nsub_0: assembly {\n        /* \"contracts/03_Constructuor.sol\":91:1441  contract Property{... */\n      mstore(0x40, 0x80)\n      callvalue\n      dup1\n      iszero\n      tag_1\n      jumpi\n      0x00\n      dup1\n      revert\n    tag_1:\n      pop\n      jumpi(tag_2, lt(calldatasize, 0x04))\n      shr(0xe0, calldataload(0x00))\n      dup1\n      0x02c7e7af\n      eq\n      tag_3\n      jumpi\n      dup1\n      0x516f279e\n      eq\n      tag_4\n      jumpi\n      dup1\n      0x827bfbdf\n      eq\n      tag_5\n      jumpi\n      dup1\n      0x8da5cb5b\n      eq\n      tag_6\n      jumpi\n      dup1\n      0x91b7f5ed\n      eq\n      tag_7\n      jumpi\n      dup1\n      0x98d5fdca\n      eq\n      tag_8\n      jumpi\n    tag_2:\n      0x00\n      dup1\n      revert\n        /* \"contracts/03_Constructuor.sol\":260:276  bool public sold */\n    tag_3:\n      tag_9\n      tag_10\n      jump\t// in\n    tag_9:\n      mload(0x40)\n      tag_11\n      swap2\n      swap1\n      tag_12\n      jump\t// in\n    tag_11:\n      mload(0x40)\n      dup1\n      swap2\n      sub\n      swap1\n      return\n        /* \"contracts/03_Constructuor.sol\":228:250  string public location */\n    tag_4:\n      tag_13\n      tag_14\n      jump\t// in\n    tag_13:\n      mload(0x40)\n      tag_15\n      swap2\n      swap1\n      tag_16\n      jump\t// in\n    tag_15:\n      mload(0x40)\n      dup1\n      swap2\n      sub\n      swap1\n      return\n        /* \"contracts/03_Constructuor.sol\":1279:1426  function setLocation(string memory _location) public{ //string types must be declared memory or storage... */\n    tag_5:\n      tag_17\n      0x04\n      dup1\n      calldatasize\n      sub\n      dup2\n      add\n      swap1\n      tag_18\n      swap2\n      swap1\n      tag_19\n      jump\t// in\n    tag_18:\n      tag_20\n      jump\t// in\n    tag_17:\n      stop\n        /* \"contracts/03_Constructuor.sol\":367:397  address immutable public owner */\n    tag_6:\n      tag_21\n      tag_22\n      jump\t// in\n    tag_21:\n      mload(0x40)\n      tag_23\n      swap2\n      swap1\n      tag_24\n      jump\t// in\n    tag_23:\n      mload(0x40)\n      dup1\n      swap2\n      sub\n      swap1\n      return\n        /* \"contracts/03_Constructuor.sol\":1113:1261  function setPrice(uint _price) public{... */\n    tag_7:\n      tag_25\n      0x04\n      dup1\n      calldatasize\n      sub\n      dup2\n      add\n      swap1\n      tag_26\n      swap2\n      swap1\n      tag_27\n      jump\t// in\n    tag_26:\n      tag_28\n      jump\t// in\n    tag_25:\n      stop\n        /* \"contracts/03_Constructuor.sol\":963:1045  function getPrice() public view returns(uint){... */\n    tag_8:\n      tag_29\n      tag_30\n      jump\t// in\n    tag_29:\n      mload(0x40)\n      tag_31\n      swap2\n      swap1\n      tag_32\n      jump\t// in\n    tag_31:\n      mload(0x40)\n      dup1\n      swap2\n      sub\n      swap1\n      return\n        /* \"contracts/03_Constructuor.sol\":260:276  bool public sold */\n    tag_10:\n      0x02\n      0x00\n      swap1\n      sload\n      swap1\n      0x0100\n      exp\n      swap1\n      div\n      0xff\n      and\n      dup2\n      jump\t// out\n        /* \"contracts/03_Constructuor.sol\":228:250  string public location */\n    tag_14:\n      0x01\n      dup1\n      sload\n      tag_33\n      swap1\n      tag_34\n      jump\t// in\n    tag_33:\n      dup1\n      0x1f\n      add\n      0x20\n      dup1\n      swap2\n      div\n      mul\n      0x20\n      add\n      mload(0x40)\n      swap1\n      dup2\n      add\n      0x40\n      mstore\n      dup1\n      swap3\n      swap2\n      swap1\n      dup2\n      dup2\n      mstore\n      0x20\n      add\n      dup3\n      dup1\n      sload\n      tag_35\n      swap1\n      tag_34\n      jump\t// in\n    tag_35:\n      dup1\n      iszero\n      tag_36\n      jumpi\n      dup1\n      0x1f\n      lt\n      tag_37\n      jumpi\n      0x0100\n      dup1\n      dup4\n      sload\n      div\n      mul\n      dup4\n      mstore\n      swap2\n      0x20\n      add\n      swap2\n      jump(tag_36)\n    tag_37:\n      dup3\n      add\n      swap2\n      swap1\n      0x00\n      mstore\n      keccak256(0x00, 0x20)\n      swap1\n    tag_38:\n      dup2\n      sload\n      dup2\n      mstore\n      swap1\n      0x01\n      add\n      swap1\n      0x20\n      add\n      dup1\n      dup4\n      gt\n      tag_38\n      jumpi\n      dup3\n      swap1\n      sub\n      0x1f\n      and\n      dup3\n      add\n      swap2\n    tag_36:\n      pop\n      pop\n      pop\n      pop\n      pop\n      dup2\n      jump\t// out\n        /* \"contracts/03_Constructuor.sol\":1279:1426  function setLocation(string memory _location) public{ //string types must be declared memory or storage... */\n    tag_20:\n        /* \"contracts/03_Constructuor.sol\":1406:1415  _location */\n      dup1\n        /* \"contracts/03_Constructuor.sol\":1395:1403  location */\n      0x01\n        /* \"contracts/03_Constructuor.sol\":1395:1415  location = _location */\n      swap1\n      dup2\n      tag_40\n      swap2\n      swap1\n      tag_41\n      jump\t// in\n    tag_40:\n      pop\n        /* \"contracts/03_Constructuor.sol\":1279:1426  function setLocation(string memory _location) public{ //string types must be declared memory or storage... */\n      pop\n      jump\t// out\n        /* \"contracts/03_Constructuor.sol\":367:397  address immutable public owner */\n    tag_22:\n      immutable(\"0xd2f8f61201b2b11a78d6e866abc9c3db2ae8631fa656bfe5cb53668255367afb\")\n      dup2\n      jump\t// out\n        /* \"contracts/03_Constructuor.sol\":1113:1261  function setPrice(uint _price) public{... */\n    tag_28:\n        /* \"contracts/03_Constructuor.sol\":1164:1169  int a */\n      0x00\n        /* \"contracts/03_Constructuor.sol\":1220:1222  10 */\n      0x0a\n        /* \"contracts/03_Constructuor.sol\":1216:1222  a = 10 */\n      swap1\n      pop\n        /* \"contracts/03_Constructuor.sol\":1244:1250  _price */\n      dup2\n        /* \"contracts/03_Constructuor.sol\":1236:1241  price */\n      0x00\n        /* \"contracts/03_Constructuor.sol\":1236:1250  price = _price */\n      dup2\n      swap1\n      sstore\n      pop\n        /* \"contracts/03_Constructuor.sol\":1150:1261  {... */\n      pop\n        /* \"contracts/03_Constructuor.sol\":1113:1261  function setPrice(uint _price) public{... */\n      pop\n      jump\t// out\n        /* \"contracts/03_Constructuor.sol\":963:1045  function getPrice() public view returns(uint){... */\n    tag_30:\n        /* \"contracts/03_Constructuor.sol\":1003:1007  uint */\n      0x00\n        /* \"contracts/03_Constructuor.sol\":1029:1034  price */\n      dup1\n      sload\n        /* \"contracts/03_Constructuor.sol\":1022:1034  return price */\n      swap1\n      pop\n        /* \"contracts/03_Constructuor.sol\":963:1045  function getPrice() public view returns(uint){... */\n      swap1\n      jump\t// out\n        /* \"#utility.yul\":7:97   */\n    tag_44:\n        /* \"#utility.yul\":41:48   */\n      0x00\n        /* \"#utility.yul\":84:89   */\n      dup2\n        /* \"#utility.yul\":77:90   */\n      iszero\n        /* \"#utility.yul\":70:91   */\n      iszero\n        /* \"#utility.yul\":59:91   */\n      swap1\n      pop\n        /* \"#utility.yul\":7:97   */\n      swap2\n      swap1\n      pop\n      jump\t// out\n        /* \"#utility.yul\":103:212   */\n    tag_45:\n        /* \"#utility.yul\":184:205   */\n      tag_89\n        /* \"#utility.yul\":199:204   */\n      dup2\n        /* \"#utility.yul\":184:205   */\n      tag_44\n      jump\t// in\n    tag_89:\n        /* \"#utility.yul\":179:182   */\n      dup3\n        /* \"#utility.yul\":172:206   */\n      mstore\n        /* \"#utility.yul\":103:212   */\n      pop\n      pop\n      jump\t// out\n        /* \"#utility.yul\":218:428   */\n    tag_12:\n        /* \"#utility.yul\":305:309   */\n      0x00\n        /* \"#utility.yul\":343:345   */\n      0x20\n        /* \"#utility.yul\":332:341   */\n      dup3\n        /* \"#utility.yul\":328:346   */\n      add\n        /* \"#utility.yul\":320:346   */\n      swap1\n      pop\n        /* \"#utility.yul\":356:421   */\n      tag_91\n        /* \"#utility.yul\":418:419   */\n      0x00\n        /* \"#utility.yul\":407:416   */\n      dup4\n        /* \"#utility.yul\":403:420   */\n      add\n        /* \"#utility.yul\":394:400   */\n      dup5\n        /* \"#utility.yul\":356:421   */\n      tag_45\n      jump\t// in\n    tag_91:\n        /* \"#utility.yul\":218:428   */\n      swap3\n      swap2\n      pop\n      pop\n      jump\t// out\n        /* \"#utility.yul\":434:533   */\n    tag_46:\n        /* \"#utility.yul\":486:492   */\n      0x00\n        /* \"#utility.yul\":520:525   */\n      dup2\n        /* \"#utility.yul\":514:526   */\n      mload\n        /* \"#utility.yul\":504:526   */\n      swap1\n      pop\n        /* \"#utility.yul\":434:533   */\n      swap2\n      swap1\n      pop\n      jump\t// out\n        /* \"#utility.yul\":539:708   */\n    tag_47:\n        /* \"#utility.yul\":623:634   */\n      0x00\n        /* \"#utility.yul\":657:663   */\n      dup3\n        /* \"#utility.yul\":652:655   */\n      dup3\n        /* \"#utility.yul\":645:664   */\n      mstore\n        /* \"#utility.yul\":697:701   */\n      0x20\n        /* \"#utility.yul\":692:695   */\n      dup3\n        /* \"#utility.yul\":688:702   */\n      add\n        /* \"#utility.yul\":673:702   */\n      swap1\n      pop\n        /* \"#utility.yul\":539:708   */\n      swap3\n      swap2\n      pop\n      pop\n      jump\t// out\n        /* \"#utility.yul\":714:960   */\n    tag_48:\n        /* \"#utility.yul\":795:796   */\n      0x00\n        /* \"#utility.yul\":805:918   */\n    tag_95:\n        /* \"#utility.yul\":819:825   */\n      dup4\n        /* \"#utility.yul\":816:817   */\n      dup2\n        /* \"#utility.yul\":813:826   */\n      lt\n        /* \"#utility.yul\":805:918   */\n      iszero\n      tag_97\n      jumpi\n        /* \"#utility.yul\":904:905   */\n      dup1\n        /* \"#utility.yul\":899:902   */\n      dup3\n        /* \"#utility.yul\":895:906   */\n      add\n        /* \"#utility.yul\":889:907   */\n      mload\n        /* \"#utility.yul\":885:886   */\n      dup2\n        /* \"#utility.yul\":880:883   */\n      dup5\n        /* \"#utility.yul\":876:887   */\n      add\n        /* \"#utility.yul\":869:908   */\n      mstore\n        /* \"#utility.yul\":841:843   */\n      0x20\n        /* \"#utility.yul\":838:839   */\n      dup2\n        /* \"#utility.yul\":834:844   */\n      add\n        /* \"#utility.yul\":829:844   */\n      swap1\n      pop\n        /* \"#utility.yul\":805:918   */\n      jump(tag_95)\n    tag_97:\n        /* \"#utility.yul\":952:953   */\n      0x00\n        /* \"#utility.yul\":943:949   */\n      dup5\n        /* \"#utility.yul\":938:941   */\n      dup5\n        /* \"#utility.yul\":934:950   */\n      add\n        /* \"#utility.yul\":927:954   */\n      mstore\n        /* \"#utility.yul\":776:960   */\n      pop\n        /* \"#utility.yul\":714:960   */\n      pop\n      pop\n      pop\n      jump\t// out\n        /* \"#utility.yul\":966:1068   */\n    tag_49:\n        /* \"#utility.yul\":1007:1013   */\n      0x00\n        /* \"#utility.yul\":1058:1060   */\n      0x1f\n        /* \"#utility.yul\":1054:1061   */\n      not\n        /* \"#utility.yul\":1049:1051   */\n      0x1f\n        /* \"#utility.yul\":1042:1047   */\n      dup4\n        /* \"#utility.yul\":1038:1052   */\n      add\n        /* \"#utility.yul\":1034:1062   */\n      and\n        /* \"#utility.yul\":1024:1062   */\n      swap1\n      pop\n        /* \"#utility.yul\":966:1068   */\n      swap2\n      swap1\n      pop\n      jump\t// out\n        /* \"#utility.yul\":1074:1451   */\n    tag_50:\n        /* \"#utility.yul\":1162:1165   */\n      0x00\n        /* \"#utility.yul\":1190:1229   */\n      tag_100\n        /* \"#utility.yul\":1223:1228   */\n      dup3\n        /* \"#utility.yul\":1190:1229   */\n      tag_46\n      jump\t// in\n    tag_100:\n        /* \"#utility.yul\":1245:1316   */\n      tag_101\n        /* \"#utility.yul\":1309:1315   */\n      dup2\n        /* \"#utility.yul\":1304:1307   */\n      dup6\n        /* \"#utility.yul\":1245:1316   */\n      tag_47\n      jump\t// in\n    tag_101:\n        /* \"#utility.yul\":1238:1316   */\n      swap4\n      pop\n        /* \"#utility.yul\":1325:1390   */\n      tag_102\n        /* \"#utility.yul\":1383:1389   */\n      dup2\n        /* \"#utility.yul\":1378:1381   */\n      dup6\n        /* \"#utility.yul\":1371:1375   */\n      0x20\n        /* \"#utility.yul\":1364:1369   */\n      dup7\n        /* \"#utility.yul\":1360:1376   */\n      add\n        /* \"#utility.yul\":1325:1390   */\n      tag_48\n      jump\t// in\n    tag_102:\n        /* \"#utility.yul\":1415:1444   */\n      tag_103\n        /* \"#utility.yul\":1437:1443   */\n      dup2\n        /* \"#utility.yul\":1415:1444   */\n      tag_49\n      jump\t// in\n    tag_103:\n        /* \"#utility.yul\":1410:1413   */\n      dup5\n        /* \"#utility.yul\":1406:1445   */\n      add\n        /* \"#utility.yul\":1399:1445   */\n      swap2\n      pop\n        /* \"#utility.yul\":1166:1451   */\n      pop\n        /* \"#utility.yul\":1074:1451   */\n      swap3\n      swap2\n      pop\n      pop\n      jump\t// out\n        /* \"#utility.yul\":1457:1770   */\n    tag_16:\n        /* \"#utility.yul\":1570:1574   */\n      0x00\n        /* \"#utility.yul\":1608:1610   */\n      0x20\n        /* \"#utility.yul\":1597:1606   */\n      dup3\n        /* \"#utility.yul\":1593:1611   */\n      add\n        /* \"#utility.yul\":1585:1611   */\n      swap1\n      pop\n        /* \"#utility.yul\":1657:1666   */\n      dup2\n        /* \"#utility.yul\":1651:1655   */\n      dup2\n        /* \"#utility.yul\":1647:1667   */\n      sub\n        /* \"#utility.yul\":1643:1644   */\n      0x00\n        /* \"#utility.yul\":1632:1641   */\n      dup4\n        /* \"#utility.yul\":1628:1645   */\n      add\n        /* \"#utility.yul\":1621:1668   */\n      mstore\n        /* \"#utility.yul\":1685:1763   */\n      tag_105\n        /* \"#utility.yul\":1758:1762   */\n      dup2\n        /* \"#utility.yul\":1749:1755   */\n      dup5\n        /* \"#utility.yul\":1685:1763   */\n      tag_50\n      jump\t// in\n    tag_105:\n        /* \"#utility.yul\":1677:1763   */\n      swap1\n      pop\n        /* \"#utility.yul\":1457:1770   */\n      swap3\n      swap2\n      pop\n      pop\n      jump\t// out\n        /* \"#utility.yul\":1776:1851   */\n    tag_51:\n        /* \"#utility.yul\":1809:1815   */\n      0x00\n        /* \"#utility.yul\":1842:1844   */\n      0x40\n        /* \"#utility.yul\":1836:1845   */\n      mload\n        /* \"#utility.yul\":1826:1845   */\n      swap1\n      pop\n        /* \"#utility.yul\":1776:1851   */\n      swap1\n      jump\t// out\n        /* \"#utility.yul\":1857:1974   */\n    tag_52:\n        /* \"#utility.yul\":1966:1967   */\n      0x00\n        /* \"#utility.yul\":1963:1964   */\n      dup1\n        /* \"#utility.yul\":1956:1968   */\n      revert\n        /* \"#utility.yul\":1980:2097   */\n    tag_53:\n        /* \"#utility.yul\":2089:2090   */\n      0x00\n        /* \"#utility.yul\":2086:2087   */\n      dup1\n        /* \"#utility.yul\":2079:2091   */\n      revert\n        /* \"#utility.yul\":2103:2220   */\n    tag_54:\n        /* \"#utility.yul\":2212:2213   */\n      0x00\n        /* \"#utility.yul\":2209:2210   */\n      dup1\n        /* \"#utility.yul\":2202:2214   */\n      revert\n        /* \"#utility.yul\":2226:2343   */\n    tag_55:\n        /* \"#utility.yul\":2335:2336   */\n      0x00\n        /* \"#utility.yul\":2332:2333   */\n      dup1\n        /* \"#utility.yul\":2325:2337   */\n      revert\n        /* \"#utility.yul\":2349:2529   */\n    tag_56:\n        /* \"#utility.yul\":2397:2474   */\n      0x4e487b7100000000000000000000000000000000000000000000000000000000\n        /* \"#utility.yul\":2394:2395   */\n      0x00\n        /* \"#utility.yul\":2387:2475   */\n      mstore\n        /* \"#utility.yul\":2494:2498   */\n      0x41\n        /* \"#utility.yul\":2491:2492   */\n      0x04\n        /* \"#utility.yul\":2484:2499   */\n      mstore\n        /* \"#utility.yul\":2518:2522   */\n      0x24\n        /* \"#utility.yul\":2515:2516   */\n      0x00\n        /* \"#utility.yul\":2508:2523   */\n      revert\n        /* \"#utility.yul\":2535:2816   */\n    tag_57:\n        /* \"#utility.yul\":2618:2645   */\n      tag_113\n        /* \"#utility.yul\":2640:2644   */\n      dup3\n        /* \"#utility.yul\":2618:2645   */\n      tag_49\n      jump\t// in\n    tag_113:\n        /* \"#utility.yul\":2610:2616   */\n      dup2\n        /* \"#utility.yul\":2606:2646   */\n      add\n        /* \"#utility.yul\":2748:2754   */\n      dup2\n        /* \"#utility.yul\":2736:2746   */\n      dup2\n        /* \"#utility.yul\":2733:2755   */\n      lt\n        /* \"#utility.yul\":2712:2730   */\n      0xffffffffffffffff\n        /* \"#utility.yul\":2700:2710   */\n      dup3\n        /* \"#utility.yul\":2697:2731   */\n      gt\n        /* \"#utility.yul\":2694:2756   */\n      or\n        /* \"#utility.yul\":2691:2779   */\n      iszero\n      tag_114\n      jumpi\n        /* \"#utility.yul\":2759:2777   */\n      tag_115\n      tag_56\n      jump\t// in\n    tag_115:\n        /* \"#utility.yul\":2691:2779   */\n    tag_114:\n        /* \"#utility.yul\":2799:2809   */\n      dup1\n        /* \"#utility.yul\":2795:2797   */\n      0x40\n        /* \"#utility.yul\":2788:2810   */\n      mstore\n        /* \"#utility.yul\":2578:2816   */\n      pop\n        /* \"#utility.yul\":2535:2816   */\n      pop\n      pop\n      jump\t// out\n        /* \"#utility.yul\":2822:2951   */\n    tag_58:\n        /* \"#utility.yul\":2856:2862   */\n      0x00\n        /* \"#utility.yul\":2883:2903   */\n      tag_117\n      tag_51\n      jump\t// in\n    tag_117:\n        /* \"#utility.yul\":2873:2903   */\n      swap1\n      pop\n        /* \"#utility.yul\":2912:2945   */\n      tag_118\n        /* \"#utility.yul\":2940:2944   */\n      dup3\n        /* \"#utility.yul\":2932:2938   */\n      dup3\n        /* \"#utility.yul\":2912:2945   */\n      tag_57\n      jump\t// in\n    tag_118:\n        /* \"#utility.yul\":2822:2951   */\n      swap2\n      swap1\n      pop\n      jump\t// out\n        /* \"#utility.yul\":2957:3265   */\n    tag_59:\n        /* \"#utility.yul\":3019:3023   */\n      0x00\n        /* \"#utility.yul\":3109:3127   */\n      0xffffffffffffffff\n        /* \"#utility.yul\":3101:3107   */\n      dup3\n        /* \"#utility.yul\":3098:3128   */\n      gt\n        /* \"#utility.yul\":3095:3151   */\n      iszero\n      tag_120\n      jumpi\n        /* \"#utility.yul\":3131:3149   */\n      tag_121\n      tag_56\n      jump\t// in\n    tag_121:\n        /* \"#utility.yul\":3095:3151   */\n    tag_120:\n        /* \"#utility.yul\":3169:3198   */\n      tag_122\n        /* \"#utility.yul\":3191:3197   */\n      dup3\n        /* \"#utility.yul\":3169:3198   */\n      tag_49\n      jump\t// in\n    tag_122:\n        /* \"#utility.yul\":3161:3198   */\n      swap1\n      pop\n        /* \"#utility.yul\":3253:3257   */\n      0x20\n        /* \"#utility.yul\":3247:3251   */\n      dup2\n        /* \"#utility.yul\":3243:3258   */\n      add\n        /* \"#utility.yul\":3235:3258   */\n      swap1\n      pop\n        /* \"#utility.yul\":2957:3265   */\n      swap2\n      swap1\n      pop\n      jump\t// out\n        /* \"#utility.yul\":3271:3417   */\n    tag_60:\n        /* \"#utility.yul\":3368:3374   */\n      dup3\n        /* \"#utility.yul\":3363:3366   */\n      dup2\n        /* \"#utility.yul\":3358:3361   */\n      dup4\n        /* \"#utility.yul\":3345:3375   */\n      calldatacopy\n        /* \"#utility.yul\":3409:3410   */\n      0x00\n        /* \"#utility.yul\":3400:3406   */\n      dup4\n        /* \"#utility.yul\":3395:3398   */\n      dup4\n        /* \"#utility.yul\":3391:3407   */\n      add\n        /* \"#utility.yul\":3384:3411   */\n      mstore\n        /* \"#utility.yul\":3271:3417   */\n      pop\n      pop\n      pop\n      jump\t// out\n        /* \"#utility.yul\":3423:3848   */\n    tag_61:\n        /* \"#utility.yul\":3501:3506   */\n      0x00\n        /* \"#utility.yul\":3526:3592   */\n      tag_125\n        /* \"#utility.yul\":3542:3591   */\n      tag_126\n        /* \"#utility.yul\":3584:3590   */\n      dup5\n        /* \"#utility.yul\":3542:3591   */\n      tag_59\n      jump\t// in\n    tag_126:\n        /* \"#utility.yul\":3526:3592   */\n      tag_58\n      jump\t// in\n    tag_125:\n        /* \"#utility.yul\":3517:3592   */\n      swap1\n      pop\n        /* \"#utility.yul\":3615:3621   */\n      dup3\n        /* \"#utility.yul\":3608:3613   */\n      dup2\n        /* \"#utility.yul\":3601:3622   */\n      mstore\n        /* \"#utility.yul\":3653:3657   */\n      0x20\n        /* \"#utility.yul\":3646:3651   */\n      dup2\n        /* \"#utility.yul\":3642:3658   */\n      add\n        /* \"#utility.yul\":3691:3694   */\n      dup5\n        /* \"#utility.yul\":3682:3688   */\n      dup5\n        /* \"#utility.yul\":3677:3680   */\n      dup5\n        /* \"#utility.yul\":3673:3689   */\n      add\n        /* \"#utility.yul\":3670:3695   */\n      gt\n        /* \"#utility.yul\":3667:3779   */\n      iszero\n      tag_127\n      jumpi\n        /* \"#utility.yul\":3698:3777   */\n      tag_128\n      tag_55\n      jump\t// in\n    tag_128:\n        /* \"#utility.yul\":3667:3779   */\n    tag_127:\n        /* \"#utility.yul\":3788:3842   */\n      tag_129\n        /* \"#utility.yul\":3835:3841   */\n      dup5\n        /* \"#utility.yul\":3830:3833   */\n      dup3\n        /* \"#utility.yul\":3825:3828   */\n      dup6\n        /* \"#utility.yul\":3788:3842   */\n      tag_60\n      jump\t// in\n    tag_129:\n        /* \"#utility.yul\":3507:3848   */\n      pop\n        /* \"#utility.yul\":3423:3848   */\n      swap4\n      swap3\n      pop\n      pop\n      pop\n      jump\t// out\n        /* \"#utility.yul\":3868:4208   */\n    tag_62:\n        /* \"#utility.yul\":3924:3929   */\n      0x00\n        /* \"#utility.yul\":3973:3976   */\n      dup3\n        /* \"#utility.yul\":3966:3970   */\n      0x1f\n        /* \"#utility.yul\":3958:3964   */\n      dup4\n        /* \"#utility.yul\":3954:3971   */\n      add\n        /* \"#utility.yul\":3950:3977   */\n      slt\n        /* \"#utility.yul\":3940:4062   */\n      tag_131\n      jumpi\n        /* \"#utility.yul\":3981:4060   */\n      tag_132\n      tag_54\n      jump\t// in\n    tag_132:\n        /* \"#utility.yul\":3940:4062   */\n    tag_131:\n        /* \"#utility.yul\":4098:4104   */\n      dup2\n        /* \"#utility.yul\":4085:4105   */\n      calldataload\n        /* \"#utility.yul\":4123:4202   */\n      tag_133\n        /* \"#utility.yul\":4198:4201   */\n      dup5\n        /* \"#utility.yul\":4190:4196   */\n      dup3\n        /* \"#utility.yul\":4183:4187   */\n      0x20\n        /* \"#utility.yul\":4175:4181   */\n      dup7\n        /* \"#utility.yul\":4171:4188   */\n      add\n        /* \"#utility.yul\":4123:4202   */\n      tag_61\n      jump\t// in\n    tag_133:\n        /* \"#utility.yul\":4114:4202   */\n      swap2\n      pop\n        /* \"#utility.yul\":3930:4208   */\n      pop\n        /* \"#utility.yul\":3868:4208   */\n      swap3\n      swap2\n      pop\n      pop\n      jump\t// out\n        /* \"#utility.yul\":4214:4723   */\n    tag_19:\n        /* \"#utility.yul\":4283:4289   */\n      0x00\n        /* \"#utility.yul\":4332:4334   */\n      0x20\n        /* \"#utility.yul\":4320:4329   */\n      dup3\n        /* \"#utility.yul\":4311:4318   */\n      dup5\n        /* \"#utility.yul\":4307:4330   */\n      sub\n        /* \"#utility.yul\":4303:4335   */\n      slt\n        /* \"#utility.yul\":4300:4419   */\n      iszero\n      tag_135\n      jumpi\n        /* \"#utility.yul\":4338:4417   */\n      tag_136\n      tag_52\n      jump\t// in\n    tag_136:\n        /* \"#utility.yul\":4300:4419   */\n    tag_135:\n        /* \"#utility.yul\":4486:4487   */\n      0x00\n        /* \"#utility.yul\":4475:4484   */\n      dup3\n        /* \"#utility.yul\":4471:4488   */\n      add\n        /* \"#utility.yul\":4458:4489   */\n      calldataload\n        /* \"#utility.yul\":4516:4534   */\n      0xffffffffffffffff\n        /* \"#utility.yul\":4508:4514   */\n      dup2\n        /* \"#utility.yul\":4505:4535   */\n      gt\n        /* \"#utility.yul\":4502:4619   */\n      iszero\n      tag_137\n      jumpi\n        /* \"#utility.yul\":4538:4617   */\n      tag_138\n      tag_53\n      jump\t// in\n    tag_138:\n        /* \"#utility.yul\":4502:4619   */\n    tag_137:\n        /* \"#utility.yul\":4643:4706   */\n      tag_139\n        /* \"#utility.yul\":4698:4705   */\n      dup5\n        /* \"#utility.yul\":4689:4695   */\n      dup3\n        /* \"#utility.yul\":4678:4687   */\n      dup6\n        /* \"#utility.yul\":4674:4696   */\n      add\n        /* \"#utility.yul\":4643:4706   */\n      tag_62\n      jump\t// in\n    tag_139:\n        /* \"#utility.yul\":4633:4706   */\n      swap2\n      pop\n        /* \"#utility.yul\":4429:4716   */\n      pop\n        /* \"#utility.yul\":4214:4723   */\n      swap3\n      swap2\n      pop\n      pop\n      jump\t// out\n        /* \"#utility.yul\":4729:4855   */\n    tag_63:\n        /* \"#utility.yul\":4766:4773   */\n      0x00\n        /* \"#utility.yul\":4806:4848   */\n      0xffffffffffffffffffffffffffffffffffffffff\n        /* \"#utility.yul\":4799:4804   */\n      dup3\n        /* \"#utility.yul\":4795:4849   */\n      and\n        /* \"#utility.yul\":4784:4849   */\n      swap1\n      pop\n        /* \"#utility.yul\":4729:4855   */\n      swap2\n      swap1\n      pop\n      jump\t// out\n        /* \"#utility.yul\":4861:4957   */\n    tag_64:\n        /* \"#utility.yul\":4898:4905   */\n      0x00\n        /* \"#utility.yul\":4927:4951   */\n      tag_142\n        /* \"#utility.yul\":4945:4950   */\n      dup3\n        /* \"#utility.yul\":4927:4951   */\n      tag_63\n      jump\t// in\n    tag_142:\n        /* \"#utility.yul\":4916:4951   */\n      swap1\n      pop\n        /* \"#utility.yul\":4861:4957   */\n      swap2\n      swap1\n      pop\n      jump\t// out\n        /* \"#utility.yul\":4963:5081   */\n    tag_65:\n        /* \"#utility.yul\":5050:5074   */\n      tag_144\n        /* \"#utility.yul\":5068:5073   */\n      dup2\n        /* \"#utility.yul\":5050:5074   */\n      tag_64\n      jump\t// in\n    tag_144:\n        /* \"#utility.yul\":5045:5048   */\n      dup3\n        /* \"#utility.yul\":5038:5075   */\n      mstore\n        /* \"#utility.yul\":4963:5081   */\n      pop\n      pop\n      jump\t// out\n        /* \"#utility.yul\":5087:5309   */\n    tag_24:\n        /* \"#utility.yul\":5180:5184   */\n      0x00\n        /* \"#utility.yul\":5218:5220   */\n      0x20\n        /* \"#utility.yul\":5207:5216   */\n      dup3\n        /* \"#utility.yul\":5203:5221   */\n      add\n        /* \"#utility.yul\":5195:5221   */\n      swap1\n      pop\n        /* \"#utility.yul\":5231:5302   */\n      tag_146\n        /* \"#utility.yul\":5299:5300   */\n      0x00\n        /* \"#utility.yul\":5288:5297   */\n      dup4\n        /* \"#utility.yul\":5284:5301   */\n      add\n        /* \"#utility.yul\":5275:5281   */\n      dup5\n        /* \"#utility.yul\":5231:5302   */\n      tag_65\n      jump\t// in\n    tag_146:\n        /* \"#utility.yul\":5087:5309   */\n      swap3\n      swap2\n      pop\n      pop\n      jump\t// out\n        /* \"#utility.yul\":5315:5392   */\n    tag_66:\n        /* \"#utility.yul\":5352:5359   */\n      0x00\n        /* \"#utility.yul\":5381:5386   */\n      dup2\n        /* \"#utility.yul\":5370:5386   */\n      swap1\n      pop\n        /* \"#utility.yul\":5315:5392   */\n      swap2\n      swap1\n      pop\n      jump\t// out\n        /* \"#utility.yul\":5398:5520   */\n    tag_67:\n        /* \"#utility.yul\":5471:5495   */\n      tag_149\n        /* \"#utility.yul\":5489:5494   */\n      dup2\n        /* \"#utility.yul\":5471:5495   */\n      tag_66\n      jump\t// in\n    tag_149:\n        /* \"#utility.yul\":5464:5469   */\n      dup2\n        /* \"#utility.yul\":5461:5496   */\n      eq\n        /* \"#utility.yul\":5451:5514   */\n      tag_150\n      jumpi\n        /* \"#utility.yul\":5510:5511   */\n      0x00\n        /* \"#utility.yul\":5507:5508   */\n      dup1\n        /* \"#utility.yul\":5500:5512   */\n      revert\n        /* \"#utility.yul\":5451:5514   */\n    tag_150:\n        /* \"#utility.yul\":5398:5520   */\n      pop\n      jump\t// out\n        /* \"#utility.yul\":5526:5665   */\n    tag_68:\n        /* \"#utility.yul\":5572:5577   */\n      0x00\n        /* \"#utility.yul\":5610:5616   */\n      dup2\n        /* \"#utility.yul\":5597:5617   */\n      calldataload\n        /* \"#utility.yul\":5588:5617   */\n      swap1\n      pop\n        /* \"#utility.yul\":5626:5659   */\n      tag_152\n        /* \"#utility.yul\":5653:5658   */\n      dup2\n        /* \"#utility.yul\":5626:5659   */\n      tag_67\n      jump\t// in\n    tag_152:\n        /* \"#utility.yul\":5526:5665   */\n      swap3\n      swap2\n      pop\n      pop\n      jump\t// out\n        /* \"#utility.yul\":5671:6000   */\n    tag_27:\n        /* \"#utility.yul\":5730:5736   */\n      0x00\n        /* \"#utility.yul\":5779:5781   */\n      0x20\n        /* \"#utility.yul\":5767:5776   */\n      dup3\n        /* \"#utility.yul\":5758:5765   */\n      dup5\n        /* \"#utility.yul\":5754:5777   */\n      sub\n        /* \"#utility.yul\":5750:5782   */\n      slt\n        /* \"#utility.yul\":5747:5866   */\n      iszero\n      tag_154\n      jumpi\n        /* \"#utility.yul\":5785:5864   */\n      tag_155\n      tag_52\n      jump\t// in\n    tag_155:\n        /* \"#utility.yul\":5747:5866   */\n    tag_154:\n        /* \"#utility.yul\":5905:5906   */\n      0x00\n        /* \"#utility.yul\":5930:5983   */\n      tag_156\n        /* \"#utility.yul\":5975:5982   */\n      dup5\n        /* \"#utility.yul\":5966:5972   */\n      dup3\n        /* \"#utility.yul\":5955:5964   */\n      dup6\n        /* \"#utility.yul\":5951:5973   */\n      add\n        /* \"#utility.yul\":5930:5983   */\n      tag_68\n      jump\t// in\n    tag_156:\n        /* \"#utility.yul\":5920:5983   */\n      swap2\n      pop\n        /* \"#utility.yul\":5876:5993   */\n      pop\n        /* \"#utility.yul\":5671:6000   */\n      swap3\n      swap2\n      pop\n      pop\n      jump\t// out\n        /* \"#utility.yul\":6006:6124   */\n    tag_69:\n        /* \"#utility.yul\":6093:6117   */\n      tag_158\n        /* \"#utility.yul\":6111:6116   */\n      dup2\n        /* \"#utility.yul\":6093:6117   */\n      tag_66\n      jump\t// in\n    tag_158:\n        /* \"#utility.yul\":6088:6091   */\n      dup3\n        /* \"#utility.yul\":6081:6118   */\n      mstore\n        /* \"#utility.yul\":6006:6124   */\n      pop\n      pop\n      jump\t// out\n        /* \"#utility.yul\":6130:6352   */\n    tag_32:\n        /* \"#utility.yul\":6223:6227   */\n      0x00\n        /* \"#utility.yul\":6261:6263   */\n      0x20\n        /* \"#utility.yul\":6250:6259   */\n      dup3\n        /* \"#utility.yul\":6246:6264   */\n      add\n        /* \"#utility.yul\":6238:6264   */\n      swap1\n      pop\n        /* \"#utility.yul\":6274:6345   */\n      tag_160\n        /* \"#utility.yul\":6342:6343   */\n      0x00\n        /* \"#utility.yul\":6331:6340   */\n      dup4\n        /* \"#utility.yul\":6327:6344   */\n      add\n        /* \"#utility.yul\":6318:6324   */\n      dup5\n        /* \"#utility.yul\":6274:6345   */\n      tag_69\n      jump\t// in\n    tag_160:\n        /* \"#utility.yul\":6130:6352   */\n      swap3\n      swap2\n      pop\n      pop\n      jump\t// out\n        /* \"#utility.yul\":6358:6538   */\n    tag_70:\n        /* \"#utility.yul\":6406:6483   */\n      0x4e487b7100000000000000000000000000000000000000000000000000000000\n        /* \"#utility.yul\":6403:6404   */\n      0x00\n        /* \"#utility.yul\":6396:6484   */\n      mstore\n        /* \"#utility.yul\":6503:6507   */\n      0x22\n        /* \"#utility.yul\":6500:6501   */\n      0x04\n        /* \"#utility.yul\":6493:6508   */\n      mstore\n        /* \"#utility.yul\":6527:6531   */\n      0x24\n        /* \"#utility.yul\":6524:6525   */\n      0x00\n        /* \"#utility.yul\":6517:6532   */\n      revert\n        /* \"#utility.yul\":6544:6864   */\n    tag_34:\n        /* \"#utility.yul\":6588:6594   */\n      0x00\n        /* \"#utility.yul\":6625:6626   */\n      0x02\n        /* \"#utility.yul\":6619:6623   */\n      dup3\n        /* \"#utility.yul\":6615:6627   */\n      div\n        /* \"#utility.yul\":6605:6627   */\n      swap1\n      pop\n        /* \"#utility.yul\":6672:6673   */\n      0x01\n        /* \"#utility.yul\":6666:6670   */\n      dup3\n        /* \"#utility.yul\":6662:6674   */\n      and\n        /* \"#utility.yul\":6693:6711   */\n      dup1\n        /* \"#utility.yul\":6683:6764   */\n      tag_163\n      jumpi\n        /* \"#utility.yul\":6749:6753   */\n      0x7f\n        /* \"#utility.yul\":6741:6747   */\n      dup3\n        /* \"#utility.yul\":6737:6754   */\n      and\n        /* \"#utility.yul\":6727:6754   */\n      swap2\n      pop\n        /* \"#utility.yul\":6683:6764   */\n    tag_163:\n        /* \"#utility.yul\":6811:6813   */\n      0x20\n        /* \"#utility.yul\":6803:6809   */\n      dup3\n        /* \"#utility.yul\":6800:6814   */\n      lt\n        /* \"#utility.yul\":6780:6798   */\n      dup2\n        /* \"#utility.yul\":6777:6815   */\n      sub\n        /* \"#utility.yul\":6774:6858   */\n      tag_164\n      jumpi\n        /* \"#utility.yul\":6830:6848   */\n      tag_165\n      tag_70\n      jump\t// in\n    tag_165:\n        /* \"#utility.yul\":6774:6858   */\n    tag_164:\n        /* \"#utility.yul\":6595:6864   */\n      pop\n        /* \"#utility.yul\":6544:6864   */\n      swap2\n      swap1\n      pop\n      jump\t// out\n        /* \"#utility.yul\":6870:7011   */\n    tag_71:\n        /* \"#utility.yul\":6919:6923   */\n      0x00\n        /* \"#utility.yul\":6942:6945   */\n      dup2\n        /* \"#utility.yul\":6934:6945   */\n      swap1\n      pop\n        /* \"#utility.yul\":6965:6968   */\n      dup2\n        /* \"#utility.yul\":6962:6963   */\n      0x00\n        /* \"#utility.yul\":6955:6969   */\n      mstore\n        /* \"#utility.yul\":6999:7003   */\n      0x20\n        /* \"#utility.yul\":6996:6997   */\n      0x00\n        /* \"#utility.yul\":6986:7004   */\n      keccak256\n        /* \"#utility.yul\":6978:7004   */\n      swap1\n      pop\n        /* \"#utility.yul\":6870:7011   */\n      swap2\n      swap1\n      pop\n      jump\t// out\n        /* \"#utility.yul\":7017:7110   */\n    tag_72:\n        /* \"#utility.yul\":7054:7060   */\n      0x00\n        /* \"#utility.yul\":7101:7103   */\n      0x20\n        /* \"#utility.yul\":7096:7098   */\n      0x1f\n        /* \"#utility.yul\":7089:7094   */\n      dup4\n        /* \"#utility.yul\":7085:7099   */\n      add\n        /* \"#utility.yul\":7081:7104   */\n      div\n        /* \"#utility.yul\":7071:7104   */\n      swap1\n      pop\n        /* \"#utility.yul\":7017:7110   */\n      swap2\n      swap1\n      pop\n      jump\t// out\n        /* \"#utility.yul\":7116:7223   */\n    tag_73:\n        /* \"#utility.yul\":7160:7168   */\n      0x00\n        /* \"#utility.yul\":7210:7215   */\n      dup3\n        /* \"#utility.yul\":7204:7208   */\n      dup3\n        /* \"#utility.yul\":7200:7216   */\n      shl\n        /* \"#utility.yul\":7179:7216   */\n      swap1\n      pop\n        /* \"#utility.yul\":7116:7223   */\n      swap3\n      swap2\n      pop\n      pop\n      jump\t// out\n        /* \"#utility.yul\":7229:7622   */\n    tag_74:\n        /* \"#utility.yul\":7298:7304   */\n      0x00\n        /* \"#utility.yul\":7348:7349   */\n      0x08\n        /* \"#utility.yul\":7336:7346   */\n      dup4\n        /* \"#utility.yul\":7332:7350   */\n      mul\n        /* \"#utility.yul\":7371:7468   */\n      tag_170\n        /* \"#utility.yul\":7401:7467   */\n      0xffffffffffffffffffffffffffffffffffffffffffffffffffffffffffffffff\n        /* \"#utility.yul\":7390:7399   */\n      dup3\n        /* \"#utility.yul\":7371:7468   */\n      tag_73\n      jump\t// in\n    tag_170:\n        /* \"#utility.yul\":7489:7528   */\n      tag_171\n        /* \"#utility.yul\":7519:7527   */\n      dup7\n        /* \"#utility.yul\":7508:7517   */\n      dup4\n        /* \"#utility.yul\":7489:7528   */\n      tag_73\n      jump\t// in\n    tag_171:\n        /* \"#utility.yul\":7477:7528   */\n      swap6\n      pop\n        /* \"#utility.yul\":7561:7565   */\n      dup1\n        /* \"#utility.yul\":7557:7566   */\n      not\n        /* \"#utility.yul\":7550:7555   */\n      dup5\n        /* \"#utility.yul\":7546:7567   */\n      and\n        /* \"#utility.yul\":7537:7567   */\n      swap4\n      pop\n        /* \"#utility.yul\":7610:7614   */\n      dup1\n        /* \"#utility.yul\":7600:7608   */\n      dup7\n        /* \"#utility.yul\":7596:7615   */\n      and\n        /* \"#utility.yul\":7589:7594   */\n      dup5\n        /* \"#utility.yul\":7586:7616   */\n      or\n        /* \"#utility.yul\":7576:7616   */\n      swap3\n      pop\n        /* \"#utility.yul\":7305:7622   */\n      pop\n      pop\n        /* \"#utility.yul\":7229:7622   */\n      swap4\n      swap3\n      pop\n      pop\n      pop\n      jump\t// out\n        /* \"#utility.yul\":7628:7688   */\n    tag_75:\n        /* \"#utility.yul\":7656:7659   */\n      0x00\n        /* \"#utility.yul\":7677:7682   */\n      dup2\n        /* \"#utility.yul\":7670:7682   */\n      swap1\n      pop\n        /* \"#utility.yul\":7628:7688   */\n      swap2\n      swap1\n      pop\n      jump\t// out\n        /* \"#utility.yul\":7694:7836   */\n    tag_76:\n        /* \"#utility.yul\":7744:7753   */\n      0x00\n        /* \"#utility.yul\":7777:7830   */\n      tag_174\n        /* \"#utility.yul\":7795:7829   */\n      tag_175\n        /* \"#utility.yul\":7804:7828   */\n      tag_176\n        /* \"#utility.yul\":7822:7827   */\n      dup5\n        /* \"#utility.yul\":7804:7828   */\n      tag_66\n      jump\t// in\n    tag_176:\n        /* \"#utility.yul\":7795:7829   */\n      tag_75\n      jump\t// in\n    tag_175:\n        /* \"#utility.yul\":7777:7830   */\n      tag_66\n      jump\t// in\n    tag_174:\n        /* \"#utility.yul\":7764:7830   */\n      swap1\n      pop\n        /* \"#utility.yul\":7694:7836   */\n      swap2\n      swap1\n      pop\n      jump\t// out\n        /* \"#utility.yul\":7842:7917   */\n    tag_77:\n        /* \"#utility.yul\":7885:7888   */\n      0x00\n        /* \"#utility.yul\":7906:7911   */\n      dup2\n        /* \"#utility.yul\":7899:7911   */\n      swap1\n      pop\n        /* \"#utility.yul\":7842:7917   */\n      swap2\n      swap1\n      pop\n      jump\t// out\n        /* \"#utility.yul\":7923:8192   */\n    tag_78:\n        /* \"#utility.yul\":8033:8072   */\n      tag_179\n        /* \"#utility.yul\":8064:8071   */\n      dup4\n        /* \"#utility.yul\":8033:8072   */\n      tag_76\n      jump\t// in\n    tag_179:\n        /* \"#utility.yul\":8094:8185   */\n      tag_180\n        /* \"#utility.yul\":8143:8184   */\n      tag_181\n        /* \"#utility.yul\":8167:8183   */\n      dup3\n        /* \"#utility.yul\":8143:8184   */\n      tag_77\n      jump\t// in\n    tag_181:\n        /* \"#utility.yul\":8135:8141   */\n      dup5\n        /* \"#utility.yul\":8128:8132   */\n      dup5\n        /* \"#utility.yul\":8122:8133   */\n      sload\n        /* \"#utility.yul\":8094:8185   */\n      tag_74\n      jump\t// in\n    tag_180:\n        /* \"#utility.yul\":8088:8092   */\n      dup3\n        /* \"#utility.yul\":8081:8186   */\n      sstore\n        /* \"#utility.yul\":7999:8192   */\n      pop\n        /* \"#utility.yul\":7923:8192   */\n      pop\n      pop\n      pop\n      jump\t// out\n        /* \"#utility.yul\":8198:8271   */\n    tag_79:\n        /* \"#utility.yul\":8243:8246   */\n      0x00\n        /* \"#utility.yul\":8198:8271   */\n      swap1\n      jump\t// out\n        /* \"#utility.yul\":8277:8466   */\n    tag_80:\n        /* \"#utility.yul\":8354:8386   */\n      tag_184\n      tag_79\n      jump\t// in\n    tag_184:\n        /* \"#utility.yul\":8395:8460   */\n      tag_185\n        /* \"#utility.yul\":8453:8459   */\n      dup2\n        /* \"#utility.yul\":8445:8451   */\n      dup5\n        /* \"#utility.yul\":8439:8443   */\n      dup5\n        /* \"#utility.yul\":8395:8460   */\n      tag_78\n      jump\t// in\n    tag_185:\n        /* \"#utility.yul\":8330:8466   */\n      pop\n        /* \"#utility.yul\":8277:8466   */\n      pop\n      pop\n      jump\t// out\n        /* \"#utility.yul\":8472:8658   */\n    tag_81:\n        /* \"#utility.yul\":8532:8652   */\n    tag_187:\n        /* \"#utility.yul\":8549:8552   */\n      dup2\n        /* \"#utility.yul\":8542:8547   */\n      dup2\n        /* \"#utility.yul\":8539:8553   */\n      lt\n        /* \"#utility.yul\":8532:8652   */\n      iszero\n      tag_189\n      jumpi\n        /* \"#utility.yul\":8603:8642   */\n      tag_190\n        /* \"#utility.yul\":8640:8641   */\n      0x00\n        /* \"#utility.yul\":8633:8638   */\n      dup3\n        /* \"#utility.yul\":8603:8642   */\n      tag_80\n      jump\t// in\n    tag_190:\n        /* \"#utility.yul\":8576:8577   */\n      0x01\n        /* \"#utility.yul\":8569:8574   */\n      dup2\n        /* \"#utility.yul\":8565:8578   */\n      add\n        /* \"#utility.yul\":8556:8578   */\n      swap1\n      pop\n        /* \"#utility.yul\":8532:8652   */\n      jump(tag_187)\n    tag_189:\n        /* \"#utility.yul\":8472:8658   */\n      pop\n      pop\n      jump\t// out\n        /* \"#utility.yul\":8664:9207   */\n    tag_82:\n        /* \"#utility.yul\":8765:8767   */\n      0x1f\n        /* \"#utility.yul\":8760:8763   */\n      dup3\n        /* \"#utility.yul\":8757:8768   */\n      gt\n        /* \"#utility.yul\":8754:9200   */\n      iszero\n      tag_192\n      jumpi\n        /* \"#utility.yul\":8799:8837   */\n      tag_193\n        /* \"#utility.yul\":8831:8836   */\n      dup2\n        /* \"#utility.yul\":8799:8837   */\n      tag_71\n      jump\t// in\n    tag_193:\n        /* \"#utility.yul\":8883:8912   */\n      tag_194\n        /* \"#utility.yul\":8901:8911   */\n      dup5\n        /* \"#utility.yul\":8883:8912   */\n      tag_72\n      jump\t// in\n    tag_194:\n        /* \"#utility.yul\":8873:8881   */\n      dup2\n        /* \"#utility.yul\":8869:8913   */\n      add\n        /* \"#utility.yul\":9066:9068   */\n      0x20\n        /* \"#utility.yul\":9054:9064   */\n      dup6\n        /* \"#utility.yul\":9051:9069   */\n      lt\n        /* \"#utility.yul\":9048:9097   */\n      iszero\n      tag_195\n      jumpi\n        /* \"#utility.yul\":9087:9095   */\n      dup2\n        /* \"#utility.yul\":9072:9095   */\n      swap1\n      pop\n        /* \"#utility.yul\":9048:9097   */\n    tag_195:\n        /* \"#utility.yul\":9110:9190   */\n      tag_196\n        /* \"#utility.yul\":9166:9188   */\n      tag_197\n        /* \"#utility.yul\":9184:9187   */\n      dup6\n        /* \"#utility.yul\":9166:9188   */\n      tag_72\n      jump\t// in\n    tag_197:\n        /* \"#utility.yul\":9156:9164   */\n      dup4\n        /* \"#utility.yul\":9152:9189   */\n      add\n        /* \"#utility.yul\":9139:9150   */\n      dup3\n        /* \"#utility.yul\":9110:9190   */\n      tag_81\n      jump\t// in\n    tag_196:\n        /* \"#utility.yul\":8769:9200   */\n      pop\n      pop\n        /* \"#utility.yul\":8754:9200   */\n    tag_192:\n        /* \"#utility.yul\":8664:9207   */\n      pop\n      pop\n      pop\n      jump\t// out\n        /* \"#utility.yul\":9213:9330   */\n    tag_83:\n        /* \"#utility.yul\":9267:9275   */\n      0x00\n        /* \"#utility.yul\":9317:9322   */\n      dup3\n        /* \"#utility.yul\":9311:9315   */\n      dup3\n        /* \"#utility.yul\":9307:9323   */\n      shr\n        /* \"#utility.yul\":9286:9323   */\n      swap1\n      pop\n        /* \"#utility.yul\":9213:9330   */\n      swap3\n      swap2\n      pop\n      pop\n      jump\t// out\n        /* \"#utility.yul\":9336:9505   */\n    tag_84:\n        /* \"#utility.yul\":9380:9386   */\n      0x00\n        /* \"#utility.yul\":9413:9464   */\n      tag_200\n        /* \"#utility.yul\":9461:9462   */\n      0x00\n        /* \"#utility.yul\":9457:9463   */\n      not\n        /* \"#utility.yul\":9449:9454   */\n      dup5\n        /* \"#utility.yul\":9446:9447   */\n      0x08\n        /* \"#utility.yul\":9442:9455   */\n      mul\n        /* \"#utility.yul\":9413:9464   */\n      tag_83\n      jump\t// in\n    tag_200:\n        /* \"#utility.yul\":9409:9465   */\n      not\n        /* \"#utility.yul\":9494:9498   */\n      dup1\n        /* \"#utility.yul\":9488:9492   */\n      dup4\n        /* \"#utility.yul\":9484:9499   */\n      and\n        /* \"#utility.yul\":9474:9499   */\n      swap2\n      pop\n        /* \"#utility.yul\":9387:9505   */\n      pop\n        /* \"#utility.yul\":9336:9505   */\n      swap3\n      swap2\n      pop\n      pop\n      jump\t// out\n        /* \"#utility.yul\":9510:9805   */\n    tag_85:\n        /* \"#utility.yul\":9586:9590   */\n      0x00\n        /* \"#utility.yul\":9732:9761   */\n      tag_202\n        /* \"#utility.yul\":9757:9760   */\n      dup4\n        /* \"#utility.yul\":9751:9755   */\n      dup4\n        /* \"#utility.yul\":9732:9761   */\n      tag_84\n      jump\t// in\n    tag_202:\n        /* \"#utility.yul\":9724:9761   */\n      swap2\n      pop\n        /* \"#utility.yul\":9794:9797   */\n      dup3\n        /* \"#utility.yul\":9791:9792   */\n      0x02\n        /* \"#utility.yul\":9787:9798   */\n      mul\n        /* \"#utility.yul\":9781:9785   */\n      dup3\n        /* \"#utility.yul\":9778:9799   */\n      or\n        /* \"#utility.yul\":9770:9799   */\n      swap1\n      pop\n        /* \"#utility.yul\":9510:9805   */\n      swap3\n      swap2\n      pop\n      pop\n      jump\t// out\n        /* \"#utility.yul\":9810:11205   */\n    tag_41:\n        /* \"#utility.yul\":9927:9964   */\n      tag_204\n        /* \"#utility.yul\":9960:9963   */\n      dup3\n        /* \"#utility.yul\":9927:9964   */\n      tag_46\n      jump\t// in\n    tag_204:\n        /* \"#utility.yul\":10029:10047   */\n      0xffffffffffffffff\n        /* \"#utility.yul\":10021:10027   */\n      dup2\n        /* \"#utility.yul\":10018:10048   */\n      gt\n        /* \"#utility.yul\":10015:10071   */\n      iszero\n      tag_205\n      jumpi\n        /* \"#utility.yul\":10051:10069   */\n      tag_206\n      tag_56\n      jump\t// in\n    tag_206:\n        /* \"#utility.yul\":10015:10071   */\n    tag_205:\n        /* \"#utility.yul\":10095:10133   */\n      tag_207\n        /* \"#utility.yul\":10127:10131   */\n      dup3\n        /* \"#utility.yul\":10121:10132   */\n      sload\n        /* \"#utility.yul\":10095:10133   */\n      tag_34\n      jump\t// in\n    tag_207:\n        /* \"#utility.yul\":10180:10247   */\n      tag_208\n        /* \"#utility.yul\":10240:10246   */\n      dup3\n        /* \"#utility.yul\":10232:10238   */\n      dup3\n        /* \"#utility.yul\":10226:10230   */\n      dup6\n        /* \"#utility.yul\":10180:10247   */\n      tag_82\n      jump\t// in\n    tag_208:\n        /* \"#utility.yul\":10274:10275   */\n      0x00\n        /* \"#utility.yul\":10298:10302   */\n      0x20\n        /* \"#utility.yul\":10285:10302   */\n      swap1\n      pop\n        /* \"#utility.yul\":10330:10332   */\n      0x1f\n        /* \"#utility.yul\":10322:10328   */\n      dup4\n        /* \"#utility.yul\":10319:10333   */\n      gt\n        /* \"#utility.yul\":10347:10348   */\n      0x01\n        /* \"#utility.yul\":10342:10960   */\n      dup2\n      eq\n      tag_210\n      jumpi\n        /* \"#utility.yul\":11004:11005   */\n      0x00\n        /* \"#utility.yul\":11021:11027   */\n      dup5\n        /* \"#utility.yul\":11018:11095   */\n      iszero\n      tag_211\n      jumpi\n        /* \"#utility.yul\":11070:11079   */\n      dup3\n        /* \"#utility.yul\":11065:11068   */\n      dup8\n        /* \"#utility.yul\":11061:11080   */\n      add\n        /* \"#utility.yul\":11055:11081   */\n      mload\n        /* \"#utility.yul\":11046:11081   */\n      swap1\n      pop\n        /* \"#utility.yul\":11018:11095   */\n    tag_211:\n        /* \"#utility.yul\":11121:11188   */\n      tag_212\n        /* \"#utility.yul\":11181:11187   */\n      dup6\n        /* \"#utility.yul\":11174:11179   */\n      dup3\n        /* \"#utility.yul\":11121:11188   */\n      tag_85\n      jump\t// in\n    tag_212:\n        /* \"#utility.yul\":11115:11119   */\n      dup7\n        /* \"#utility.yul\":11108:11189   */\n      sstore\n        /* \"#utility.yul\":10977:11199   */\n      pop\n        /* \"#utility.yul\":10312:11199   */\n      jump(tag_209)\n        /* \"#utility.yul\":10342:10960   */\n    tag_210:\n        /* \"#utility.yul\":10394:10398   */\n      0x1f\n        /* \"#utility.yul\":10390:10399   */\n      not\n        /* \"#utility.yul\":10382:10388   */\n      dup5\n        /* \"#utility.yul\":10378:10400   */\n      and\n        /* \"#utility.yul\":10428:10465   */\n      tag_213\n        /* \"#utility.yul\":10460:10464   */\n      dup7\n        /* \"#utility.yul\":10428:10465   */\n      tag_71\n      jump\t// in\n    tag_213:\n        /* \"#utility.yul\":10487:10488   */\n      0x00\n        /* \"#utility.yul\":10501:10709   */\n    tag_214:\n        /* \"#utility.yul\":10515:10522   */\n      dup3\n        /* \"#utility.yul\":10512:10513   */\n      dup2\n        /* \"#utility.yul\":10509:10523   */\n      lt\n        /* \"#utility.yul\":10501:10709   */\n      iszero\n      tag_216\n      jumpi\n        /* \"#utility.yul\":10594:10603   */\n      dup5\n        /* \"#utility.yul\":10589:10592   */\n      dup10\n        /* \"#utility.yul\":10585:10604   */\n      add\n        /* \"#utility.yul\":10579:10605   */\n      mload\n        /* \"#utility.yul\":10571:10577   */\n      dup3\n        /* \"#utility.yul\":10564:10606   */\n      sstore\n        /* \"#utility.yul\":10645:10646   */\n      0x01\n        /* \"#utility.yul\":10637:10643   */\n      dup3\n        /* \"#utility.yul\":10633:10647   */\n      add\n        /* \"#utility.yul\":10623:10647   */\n      swap2\n      pop\n        /* \"#utility.yul\":10692:10694   */\n      0x20\n        /* \"#utility.yul\":10681:10690   */\n      dup6\n        /* \"#utility.yul\":10677:10695   */\n      add\n        /* \"#utility.yul\":10664:10695   */\n      swap5\n      pop\n        /* \"#utility.yul\":10538:10542   */\n      0x20\n        /* \"#utility.yul\":10535:10536   */\n      dup2\n        /* \"#utility.yul\":10531:10543   */\n      add\n        /* \"#utility.yul\":10526:10543   */\n      swap1\n      pop\n        /* \"#utility.yul\":10501:10709   */\n      jump(tag_214)\n    tag_216:\n        /* \"#utility.yul\":10737:10743   */\n      dup7\n        /* \"#utility.yul\":10728:10735   */\n      dup4\n        /* \"#utility.yul\":10725:10744   */\n      lt\n        /* \"#utility.yul\":10722:10901   */\n      iszero\n      tag_217\n      jumpi\n        /* \"#utility.yul\":10795:10804   */\n      dup5\n        /* \"#utility.yul\":10790:10793   */\n      dup10\n        /* \"#utility.yul\":10786:10805   */\n      add\n        /* \"#utility.yul\":10780:10806   */\n      mload\n        /* \"#utility.yul\":10838:10886   */\n      tag_218\n        /* \"#utility.yul\":10880:10884   */\n      0x1f\n        /* \"#utility.yul\":10872:10878   */\n      dup10\n        /* \"#utility.yul\":10868:10885   */\n      and\n        /* \"#utility.yul\":10857:10866   */\n      dup3\n        /* \"#utility.yul\":10838:10886   */\n      tag_84\n      jump\t// in\n    tag_218:\n        /* \"#utility.yul\":10830:10836   */\n      dup4\n        /* \"#utility.yul\":10823:10887   */\n      sstore\n        /* \"#utility.yul\":10745:10901   */\n      pop\n        /* \"#utility.yul\":10722:10901   */\n    tag_217:\n        /* \"#utility.yul\":10947:10948   */\n      0x01\n        /* \"#utility.yul\":10943:10944   */\n      0x02\n        /* \"#utility.yul\":10935:10941   */\n      dup9\n        /* \"#utility.yul\":10931:10945   */\n      mul\n        /* \"#utility.yul\":10927:10949   */\n      add\n        /* \"#utility.yul\":10921:10925   */\n      dup9\n        /* \"#utility.yul\":10914:10950   */\n      sstore\n        /* \"#utility.yul\":10349:10960   */\n      pop\n      pop\n      pop\n        /* \"#utility.yul\":10312:11199   */\n    tag_209:\n      pop\n        /* \"#utility.yul\":9902:11205   */\n      pop\n      pop\n      pop\n        /* \"#utility.yul\":9810:11205   */\n      pop\n      pop\n      jump\t// out\n\n    auxdata: 0xa264697066735822122083d82b56fe111f96243520ce71b4c975d9febcaae67d750dd7d07c407ce9408764736f6c63430008120033\n}\n",
				"bytecode": {
					"linkReferences": {},
					"object": "60a06040523480156200001157600080fd5b5060405162000e8438038062000e8483398181016040528101906200003791906200025a565b8160008190555080600190816200004f919062000501565b503373ffffffffffffffffffffffffffffffffffffffff1660808173ffffffffffffffffffffffffffffffffffffffff16815250505050620005e8565b6000604051905090565b600080fd5b600080fd5b6000819050919050565b620000b581620000a0565b8114620000c157600080fd5b50565b600081519050620000d581620000aa565b92915050565b600080fd5b600080fd5b6000601f19601f8301169050919050565b7f4e487b7100000000000000000000000000000000000000000000000000000000600052604160045260246000fd5b6200013082620000e5565b810181811067ffffffffffffffff82111715620001525762000151620000f6565b5b80604052505050565b6000620001676200008c565b905062000175828262000125565b919050565b600067ffffffffffffffff821115620001985762000197620000f6565b5b620001a382620000e5565b9050602081019050919050565b60005b83811015620001d0578082015181840152602081019050620001b3565b60008484015250505050565b6000620001f3620001ed846200017a565b6200015b565b905082815260208101848484011115620002125762000211620000e0565b5b6200021f848285620001b0565b509392505050565b600082601f8301126200023f576200023e620000db565b5b815162000251848260208601620001dc565b91505092915050565b6000806040838503121562000274576200027362000096565b5b60006200028485828601620000c4565b925050602083015167ffffffffffffffff811115620002a857620002a76200009b565b5b620002b68582860162000227565b9150509250929050565b600081519050919050565b7f4e487b7100000000000000000000000000000000000000000000000000000000600052602260045260246000fd5b600060028204905060018216806200031357607f821691505b602082108103620003295762000328620002cb565b5b50919050565b60008190508160005260206000209050919050565b60006020601f8301049050919050565b600082821b905092915050565b600060088302620003937fffffffffffffffffffffffffffffffffffffffffffffffffffffffffffffffff8262000354565b6200039f868362000354565b95508019841693508086168417925050509392505050565b6000819050919050565b6000620003e2620003dc620003d684620000a0565b620003b7565b620000a0565b9050919050565b6000819050919050565b620003fe83620003c1565b620004166200040d82620003e9565b84845462000361565b825550505050565b600090565b6200042d6200041e565b6200043a818484620003f3565b505050565b5b8181101562000462576200045660008262000423565b60018101905062000440565b5050565b601f821115620004b1576200047b816200032f565b620004868462000344565b8101602085101562000496578190505b620004ae620004a58562000344565b8301826200043f565b50505b505050565b600082821c905092915050565b6000620004d660001984600802620004b6565b1980831691505092915050565b6000620004f18383620004c3565b9150826002028217905092915050565b6200050c82620002c0565b67ffffffffffffffff811115620005285762000527620000f6565b5b620005348254620002fa565b6200054182828562000466565b600060209050601f83116001811462000579576000841562000564578287015190505b620005708582620004e3565b865550620005e0565b601f19841662000589866200032f565b60005b82811015620005b3578489015182556001820191506020850194506020810190506200058c565b86831015620005d35784890151620005cf601f891682620004c3565b8355505b6001600288020188555050505b505050505050565b6080516108806200060460003960006101cd01526108806000f3fe608060405234801561001057600080fd5b50600436106100625760003560e01c806302c7e7af14610067578063516f279e14610085578063827bfbdf146100a35780638da5cb5b146100bf57806391b7f5ed146100dd57806398d5fdca146100f9575b600080fd5b61006f610117565b60405161007c9190610224565b60405180910390f35b61008d61012a565b60405161009a91906102cf565b60405180910390f35b6100bd60048036038101906100b8919061043a565b6101b8565b005b6100c76101cb565b6040516100d491906104c4565b60405180910390f35b6100f760048036038101906100f29190610515565b6101ef565b005b610101610200565b60405161010e9190610551565b60405180910390f35b600260009054906101000a900460ff1681565b600180546101379061059b565b80601f01602080910402602001604051908101604052809291908181526020018280546101639061059b565b80156101b05780601f10610185576101008083540402835291602001916101b0565b820191906000526020600020905b81548152906001019060200180831161019357829003601f168201915b505050505081565b80600190816101c79190610778565b5050565b7f000000000000000000000000000000000000000000000000000000000000000081565b6000600a9050816000819055505050565b60008054905090565b60008115159050919050565b61021e81610209565b82525050565b60006020820190506102396000830184610215565b92915050565b600081519050919050565b600082825260208201905092915050565b60005b8381101561027957808201518184015260208101905061025e565b60008484015250505050565b6000601f19601f8301169050919050565b60006102a18261023f565b6102ab818561024a565b93506102bb81856020860161025b565b6102c481610285565b840191505092915050565b600060208201905081810360008301526102e98184610296565b905092915050565b6000604051905090565b600080fd5b600080fd5b600080fd5b600080fd5b7f4e487b7100000000000000000000000000000000000000000000000000000000600052604160045260246000fd5b61034782610285565b810181811067ffffffffffffffff821117156103665761036561030f565b5b80604052505050565b60006103796102f1565b9050610385828261033e565b919050565b600067ffffffffffffffff8211156103a5576103a461030f565b5b6103ae82610285565b9050602081019050919050565b82818337600083830152505050565b60006103dd6103d88461038a565b61036f565b9050828152602081018484840111156103f9576103f861030a565b5b6104048482856103bb565b509392505050565b600082601f83011261042157610420610305565b5b81356104318482602086016103ca565b91505092915050565b6000602082840312156104505761044f6102fb565b5b600082013567ffffffffffffffff81111561046e5761046d610300565b5b61047a8482850161040c565b91505092915050565b600073ffffffffffffffffffffffffffffffffffffffff82169050919050565b60006104ae82610483565b9050919050565b6104be816104a3565b82525050565b60006020820190506104d960008301846104b5565b92915050565b6000819050919050565b6104f2816104df565b81146104fd57600080fd5b50565b60008135905061050f816104e9565b92915050565b60006020828403121561052b5761052a6102fb565b5b600061053984828501610500565b91505092915050565b61054b816104df565b82525050565b60006020820190506105666000830184610542565b92915050565b7f4e487b7100000000000000000000000000000000000000000000000000000000600052602260045260246000fd5b600060028204905060018216806105b357607f821691505b6020821081036105c6576105c561056c565b5b50919050565b60008190508160005260206000209050919050565b60006020601f8301049050919050565b600082821b905092915050565b60006008830261062e7fffffffffffffffffffffffffffffffffffffffffffffffffffffffffffffffff826105f1565b61063886836105f1565b95508019841693508086168417925050509392505050565b6000819050919050565b600061067561067061066b846104df565b610650565b6104df565b9050919050565b6000819050919050565b61068f8361065a565b6106a361069b8261067c565b8484546105fe565b825550505050565b600090565b6106b86106ab565b6106c3818484610686565b505050565b5b818110156106e7576106dc6000826106b0565b6001810190506106c9565b5050565b601f82111561072c576106fd816105cc565b610706846105e1565b81016020851015610715578190505b610729610721856105e1565b8301826106c8565b50505b505050565b600082821c905092915050565b600061074f60001984600802610731565b1980831691505092915050565b6000610768838361073e565b9150826002028217905092915050565b6107818261023f565b67ffffffffffffffff81111561079a5761079961030f565b5b6107a4825461059b565b6107af8282856106eb565b600060209050601f8311600181146107e257600084156107d0578287015190505b6107da858261075c565b865550610842565b601f1984166107f0866105cc565b60005b82811015610818578489015182556001820191506020850194506020810190506107f3565b868310156108355784890151610831601f89168261073e565b8355505b6001600288020188555050505b50505050505056fea264697066735822122083d82b56fe111f96243520ce71b4c975d9febcaae67d750dd7d07c407ce9408764736f6c63430008120033",
					"opcodes": "PUSH1 0xA0 PUSH1 0x40 MSTORE CALLVALUE DUP1 ISZERO PUSH3 0x11 JUMPI PUSH1 0x0 DUP1 REVERT JUMPDEST POP PUSH1 0x40 MLOAD PUSH3 0xE84 CODESIZE SUB DUP1 PUSH3 0xE84 DUP4 CODECOPY DUP2 DUP2 ADD PUSH1 0x40 MSTORE DUP2 ADD SWAP1 PUSH3 0x37 SWAP2 SWAP1 PUSH3 0x25A JUMP JUMPDEST DUP2 PUSH1 0x0 DUP2 SWAP1 SSTORE POP DUP1 PUSH1 0x1 SWAP1 DUP2 PUSH3 0x4F SWAP2 SWAP1 PUSH3 0x501 JUMP JUMPDEST POP CALLER PUSH20 0xFFFFFFFFFFFFFFFFFFFFFFFFFFFFFFFFFFFFFFFF AND PUSH1 0x80 DUP2 PUSH20 0xFFFFFFFFFFFFFFFFFFFFFFFFFFFFFFFFFFFFFFFF AND DUP2 MSTORE POP POP POP POP PUSH3 0x5E8 JUMP JUMPDEST PUSH1 0x0 PUSH1 0x40 MLOAD SWAP1 POP SWAP1 JUMP JUMPDEST PUSH1 0x0 DUP1 REVERT JUMPDEST PUSH1 0x0 DUP1 REVERT JUMPDEST PUSH1 0x0 DUP2 SWAP1 POP SWAP2 SWAP1 POP JUMP JUMPDEST PUSH3 0xB5 DUP2 PUSH3 0xA0 JUMP JUMPDEST DUP2 EQ PUSH3 0xC1 JUMPI PUSH1 0x0 DUP1 REVERT JUMPDEST POP JUMP JUMPDEST PUSH1 0x0 DUP2 MLOAD SWAP1 POP PUSH3 0xD5 DUP2 PUSH3 0xAA JUMP JUMPDEST SWAP3 SWAP2 POP POP JUMP JUMPDEST PUSH1 0x0 DUP1 REVERT JUMPDEST PUSH1 0x0 DUP1 REVERT JUMPDEST PUSH1 0x0 PUSH1 0x1F NOT PUSH1 0x1F DUP4 ADD AND SWAP1 POP SWAP2 SWAP1 POP JUMP JUMPDEST PUSH32 0x4E487B7100000000000000000000000000000000000000000000000000000000 PUSH1 0x0 MSTORE PUSH1 0x41 PUSH1 0x4 MSTORE PUSH1 0x24 PUSH1 0x0 REVERT JUMPDEST PUSH3 0x130 DUP3 PUSH3 0xE5 JUMP JUMPDEST DUP2 ADD DUP2 DUP2 LT PUSH8 0xFFFFFFFFFFFFFFFF DUP3 GT OR ISZERO PUSH3 0x152 JUMPI PUSH3 0x151 PUSH3 0xF6 JUMP JUMPDEST JUMPDEST DUP1 PUSH1 0x40 MSTORE POP POP POP JUMP JUMPDEST PUSH1 0x0 PUSH3 0x167 PUSH3 0x8C JUMP JUMPDEST SWAP1 POP PUSH3 0x175 DUP3 DUP3 PUSH3 0x125 JUMP JUMPDEST SWAP2 SWAP1 POP JUMP JUMPDEST PUSH1 0x0 PUSH8 0xFFFFFFFFFFFFFFFF DUP3 GT ISZERO PUSH3 0x198 JUMPI PUSH3 0x197 PUSH3 0xF6 JUMP JUMPDEST JUMPDEST PUSH3 0x1A3 DUP3 PUSH3 0xE5 JUMP JUMPDEST SWAP1 POP PUSH1 0x20 DUP2 ADD SWAP1 POP SWAP2 SWAP1 POP JUMP JUMPDEST PUSH1 0x0 JUMPDEST DUP4 DUP2 LT ISZERO PUSH3 0x1D0 JUMPI DUP1 DUP3 ADD MLOAD DUP2 DUP5 ADD MSTORE PUSH1 0x20 DUP2 ADD SWAP1 POP PUSH3 0x1B3 JUMP JUMPDEST PUSH1 0x0 DUP5 DUP5 ADD MSTORE POP POP POP POP JUMP JUMPDEST PUSH1 0x0 PUSH3 0x1F3 PUSH3 0x1ED DUP5 PUSH3 0x17A JUMP JUMPDEST PUSH3 0x15B JUMP JUMPDEST SWAP1 POP DUP3 DUP2 MSTORE PUSH1 0x20 DUP2 ADD DUP5 DUP5 DUP5 ADD GT ISZERO PUSH3 0x212 JUMPI PUSH3 0x211 PUSH3 0xE0 JUMP JUMPDEST JUMPDEST PUSH3 0x21F DUP5 DUP3 DUP6 PUSH3 0x1B0 JUMP JUMPDEST POP SWAP4 SWAP3 POP POP POP JUMP JUMPDEST PUSH1 0x0 DUP3 PUSH1 0x1F DUP4 ADD SLT PUSH3 0x23F JUMPI PUSH3 0x23E PUSH3 0xDB JUMP JUMPDEST JUMPDEST DUP2 MLOAD PUSH3 0x251 DUP5 DUP3 PUSH1 0x20 DUP7 ADD PUSH3 0x1DC JUMP JUMPDEST SWAP2 POP POP SWAP3 SWAP2 POP POP JUMP JUMPDEST PUSH1 0x0 DUP1 PUSH1 0x40 DUP4 DUP6 SUB SLT ISZERO PUSH3 0x274 JUMPI PUSH3 0x273 PUSH3 0x96 JUMP JUMPDEST JUMPDEST PUSH1 0x0 PUSH3 0x284 DUP6 DUP3 DUP7 ADD PUSH3 0xC4 JUMP JUMPDEST SWAP3 POP POP PUSH1 0x20 DUP4 ADD MLOAD PUSH8 0xFFFFFFFFFFFFFFFF DUP2 GT ISZERO PUSH3 0x2A8 JUMPI PUSH3 0x2A7 PUSH3 0x9B JUMP JUMPDEST JUMPDEST PUSH3 0x2B6 DUP6 DUP3 DUP7 ADD PUSH3 0x227 JUMP JUMPDEST SWAP2 POP POP SWAP3 POP SWAP3 SWAP1 POP JUMP JUMPDEST PUSH1 0x0 DUP2 MLOAD SWAP1 POP SWAP2 SWAP1 POP JUMP JUMPDEST PUSH32 0x4E487B7100000000000000000000000000000000000000000000000000000000 PUSH1 0x0 MSTORE PUSH1 0x22 PUSH1 0x4 MSTORE PUSH1 0x24 PUSH1 0x0 REVERT JUMPDEST PUSH1 0x0 PUSH1 0x2 DUP3 DIV SWAP1 POP PUSH1 0x1 DUP3 AND DUP1 PUSH3 0x313 JUMPI PUSH1 0x7F DUP3 AND SWAP2 POP JUMPDEST PUSH1 0x20 DUP3 LT DUP2 SUB PUSH3 0x329 JUMPI PUSH3 0x328 PUSH3 0x2CB JUMP JUMPDEST JUMPDEST POP SWAP2 SWAP1 POP JUMP JUMPDEST PUSH1 0x0 DUP2 SWAP1 POP DUP2 PUSH1 0x0 MSTORE PUSH1 0x20 PUSH1 0x0 KECCAK256 SWAP1 POP SWAP2 SWAP1 POP JUMP JUMPDEST PUSH1 0x0 PUSH1 0x20 PUSH1 0x1F DUP4 ADD DIV SWAP1 POP SWAP2 SWAP1 POP JUMP JUMPDEST PUSH1 0x0 DUP3 DUP3 SHL SWAP1 POP SWAP3 SWAP2 POP POP JUMP JUMPDEST PUSH1 0x0 PUSH1 0x8 DUP4 MUL PUSH3 0x393 PUSH32 0xFFFFFFFFFFFFFFFFFFFFFFFFFFFFFFFFFFFFFFFFFFFFFFFFFFFFFFFFFFFFFFFF DUP3 PUSH3 0x354 JUMP JUMPDEST PUSH3 0x39F DUP7 DUP4 PUSH3 0x354 JUMP JUMPDEST SWAP6 POP DUP1 NOT DUP5 AND SWAP4 POP DUP1 DUP7 AND DUP5 OR SWAP3 POP POP POP SWAP4 SWAP3 POP POP POP JUMP JUMPDEST PUSH1 0x0 DUP2 SWAP1 POP SWAP2 SWAP1 POP JUMP JUMPDEST PUSH1 0x0 PUSH3 0x3E2 PUSH3 0x3DC PUSH3 0x3D6 DUP5 PUSH3 0xA0 JUMP JUMPDEST PUSH3 0x3B7 JUMP JUMPDEST PUSH3 0xA0 JUMP JUMPDEST SWAP1 POP SWAP2 SWAP1 POP JUMP JUMPDEST PUSH1 0x0 DUP2 SWAP1 POP SWAP2 SWAP1 POP JUMP JUMPDEST PUSH3 0x3FE DUP4 PUSH3 0x3C1 JUMP JUMPDEST PUSH3 0x416 PUSH3 0x40D DUP3 PUSH3 0x3E9 JUMP JUMPDEST DUP5 DUP5 SLOAD PUSH3 0x361 JUMP JUMPDEST DUP3 SSTORE POP POP POP POP JUMP JUMPDEST PUSH1 0x0 SWAP1 JUMP JUMPDEST PUSH3 0x42D PUSH3 0x41E JUMP JUMPDEST PUSH3 0x43A DUP2 DUP5 DUP5 PUSH3 0x3F3 JUMP JUMPDEST POP POP POP JUMP JUMPDEST JUMPDEST DUP2 DUP2 LT ISZERO PUSH3 0x462 JUMPI PUSH3 0x456 PUSH1 0x0 DUP3 PUSH3 0x423 JUMP JUMPDEST PUSH1 0x1 DUP2 ADD SWAP1 POP PUSH3 0x440 JUMP JUMPDEST POP POP JUMP JUMPDEST PUSH1 0x1F DUP3 GT ISZERO PUSH3 0x4B1 JUMPI PUSH3 0x47B DUP2 PUSH3 0x32F JUMP JUMPDEST PUSH3 0x486 DUP5 PUSH3 0x344 JUMP JUMPDEST DUP2 ADD PUSH1 0x20 DUP6 LT ISZERO PUSH3 0x496 JUMPI DUP2 SWAP1 POP JUMPDEST PUSH3 0x4AE PUSH3 0x4A5 DUP6 PUSH3 0x344 JUMP JUMPDEST DUP4 ADD DUP3 PUSH3 0x43F JUMP JUMPDEST POP POP JUMPDEST POP POP POP JUMP JUMPDEST PUSH1 0x0 DUP3 DUP3 SHR SWAP1 POP SWAP3 SWAP2 POP POP JUMP JUMPDEST PUSH1 0x0 PUSH3 0x4D6 PUSH1 0x0 NOT DUP5 PUSH1 0x8 MUL PUSH3 0x4B6 JUMP JUMPDEST NOT DUP1 DUP4 AND SWAP2 POP POP SWAP3 SWAP2 POP POP JUMP JUMPDEST PUSH1 0x0 PUSH3 0x4F1 DUP4 DUP4 PUSH3 0x4C3 JUMP JUMPDEST SWAP2 POP DUP3 PUSH1 0x2 MUL DUP3 OR SWAP1 POP SWAP3 SWAP2 POP POP JUMP JUMPDEST PUSH3 0x50C DUP3 PUSH3 0x2C0 JUMP JUMPDEST PUSH8 0xFFFFFFFFFFFFFFFF DUP2 GT ISZERO PUSH3 0x528 JUMPI PUSH3 0x527 PUSH3 0xF6 JUMP JUMPDEST JUMPDEST PUSH3 0x534 DUP3 SLOAD PUSH3 0x2FA JUMP JUMPDEST PUSH3 0x541 DUP3 DUP3 DUP6 PUSH3 0x466 JUMP JUMPDEST PUSH1 0x0 PUSH1 0x20 SWAP1 POP PUSH1 0x1F DUP4 GT PUSH1 0x1 DUP2 EQ PUSH3 0x579 JUMPI PUSH1 0x0 DUP5 ISZERO PUSH3 0x564 JUMPI DUP3 DUP8 ADD MLOAD SWAP1 POP JUMPDEST PUSH3 0x570 DUP6 DUP3 PUSH3 0x4E3 JUMP JUMPDEST DUP7 SSTORE POP PUSH3 0x5E0 JUMP JUMPDEST PUSH1 0x1F NOT DUP5 AND PUSH3 0x589 DUP7 PUSH3 0x32F JUMP JUMPDEST PUSH1 0x0 JUMPDEST DUP3 DUP2 LT ISZERO PUSH3 0x5B3 JUMPI DUP5 DUP10 ADD MLOAD DUP3 SSTORE PUSH1 0x1 DUP3 ADD SWAP2 POP PUSH1 0x20 DUP6 ADD SWAP5 POP PUSH1 0x20 DUP2 ADD SWAP1 POP PUSH3 0x58C JUMP JUMPDEST DUP7 DUP4 LT ISZERO PUSH3 0x5D3 JUMPI DUP5 DUP10 ADD MLOAD PUSH3 0x5CF PUSH1 0x1F DUP10 AND DUP3 PUSH3 0x4C3 JUMP JUMPDEST DUP4 SSTORE POP JUMPDEST PUSH1 0x1 PUSH1 0x2 DUP9 MUL ADD DUP9 SSTORE POP POP POP JUMPDEST POP POP POP POP POP POP JUMP JUMPDEST PUSH1 0x80 MLOAD PUSH2 0x880 PUSH3 0x604 PUSH1 0x0 CODECOPY PUSH1 0x0 PUSH2 0x1CD ADD MSTORE PUSH2 0x880 PUSH1 0x0 RETURN INVALID PUSH1 0x80 PUSH1 0x40 MSTORE CALLVALUE DUP1 ISZERO PUSH2 0x10 JUMPI PUSH1 0x0 DUP1 REVERT JUMPDEST POP PUSH1 0x4 CALLDATASIZE LT PUSH2 0x62 JUMPI PUSH1 0x0 CALLDATALOAD PUSH1 0xE0 SHR DUP1 PUSH4 0x2C7E7AF EQ PUSH2 0x67 JUMPI DUP1 PUSH4 0x516F279E EQ PUSH2 0x85 JUMPI DUP1 PUSH4 0x827BFBDF EQ PUSH2 0xA3 JUMPI DUP1 PUSH4 0x8DA5CB5B EQ PUSH2 0xBF JUMPI DUP1 PUSH4 0x91B7F5ED EQ PUSH2 0xDD JUMPI DUP1 PUSH4 0x98D5FDCA EQ PUSH2 0xF9 JUMPI JUMPDEST PUSH1 0x0 DUP1 REVERT JUMPDEST PUSH2 0x6F PUSH2 0x117 JUMP JUMPDEST PUSH1 0x40 MLOAD PUSH2 0x7C SWAP2 SWAP1 PUSH2 0x224 JUMP JUMPDEST PUSH1 0x40 MLOAD DUP1 SWAP2 SUB SWAP1 RETURN JUMPDEST PUSH2 0x8D PUSH2 0x12A JUMP JUMPDEST PUSH1 0x40 MLOAD PUSH2 0x9A SWAP2 SWAP1 PUSH2 0x2CF JUMP JUMPDEST PUSH1 0x40 MLOAD DUP1 SWAP2 SUB SWAP1 RETURN JUMPDEST PUSH2 0xBD PUSH1 0x4 DUP1 CALLDATASIZE SUB DUP2 ADD SWAP1 PUSH2 0xB8 SWAP2 SWAP1 PUSH2 0x43A JUMP JUMPDEST PUSH2 0x1B8 JUMP JUMPDEST STOP JUMPDEST PUSH2 0xC7 PUSH2 0x1CB JUMP JUMPDEST PUSH1 0x40 MLOAD PUSH2 0xD4 SWAP2 SWAP1 PUSH2 0x4C4 JUMP JUMPDEST PUSH1 0x40 MLOAD DUP1 SWAP2 SUB SWAP1 RETURN JUMPDEST PUSH2 0xF7 PUSH1 0x4 DUP1 CALLDATASIZE SUB DUP2 ADD SWAP1 PUSH2 0xF2 SWAP2 SWAP1 PUSH2 0x515 JUMP JUMPDEST PUSH2 0x1EF JUMP JUMPDEST STOP JUMPDEST PUSH2 0x101 PUSH2 0x200 JUMP JUMPDEST PUSH1 0x40 MLOAD PUSH2 0x10E SWAP2 SWAP1 PUSH2 0x551 JUMP JUMPDEST PUSH1 0x40 MLOAD DUP1 SWAP2 SUB SWAP1 RETURN JUMPDEST PUSH1 0x2 PUSH1 0x0 SWAP1 SLOAD SWAP1 PUSH2 0x100 EXP SWAP1 DIV PUSH1 0xFF AND DUP2 JUMP JUMPDEST PUSH1 0x1 DUP1 SLOAD PUSH2 0x137 SWAP1 PUSH2 0x59B JUMP JUMPDEST DUP1 PUSH1 0x1F ADD PUSH1 0x20 DUP1 SWAP2 DIV MUL PUSH1 0x20 ADD PUSH1 0x40 MLOAD SWAP1 DUP2 ADD PUSH1 0x40 MSTORE DUP1 SWAP3 SWAP2 SWAP1 DUP2 DUP2 MSTORE PUSH1 0x20 ADD DUP3 DUP1 SLOAD PUSH2 0x163 SWAP1 PUSH2 0x59B JUMP JUMPDEST DUP1 ISZERO PUSH2 0x1B0 JUMPI DUP1 PUSH1 0x1F LT PUSH2 0x185 JUMPI PUSH2 0x100 DUP1 DUP4 SLOAD DIV MUL DUP4 MSTORE SWAP2 PUSH1 0x20 ADD SWAP2 PUSH2 0x1B0 JUMP JUMPDEST DUP3 ADD SWAP2 SWAP1 PUSH1 0x0 MSTORE PUSH1 0x20 PUSH1 0x0 KECCAK256 SWAP1 JUMPDEST DUP2 SLOAD DUP2 MSTORE SWAP1 PUSH1 0x1 ADD SWAP1 PUSH1 0x20 ADD DUP1 DUP4 GT PUSH2 0x193 JUMPI DUP3 SWAP1 SUB PUSH1 0x1F AND DUP3 ADD SWAP2 JUMPDEST POP POP POP POP POP DUP2 JUMP JUMPDEST DUP1 PUSH1 0x1 SWAP1 DUP2 PUSH2 0x1C7 SWAP2 SWAP1 PUSH2 0x778 JUMP JUMPDEST POP POP JUMP JUMPDEST PUSH32 0x0 DUP2 JUMP JUMPDEST PUSH1 0x0 PUSH1 0xA SWAP1 POP DUP2 PUSH1 0x0 DUP2 SWAP1 SSTORE POP POP POP JUMP JUMPDEST PUSH1 0x0 DUP1 SLOAD SWAP1 POP SWAP1 JUMP JUMPDEST PUSH1 0x0 DUP2 ISZERO ISZERO SWAP1 POP SWAP2 SWAP1 POP JUMP JUMPDEST PUSH2 0x21E DUP2 PUSH2 0x209 JUMP JUMPDEST DUP3 MSTORE POP POP JUMP JUMPDEST PUSH1 0x0 PUSH1 0x20 DUP3 ADD SWAP1 POP PUSH2 0x239 PUSH1 0x0 DUP4 ADD DUP5 PUSH2 0x215 JUMP JUMPDEST SWAP3 SWAP2 POP POP JUMP JUMPDEST PUSH1 0x0 DUP2 MLOAD SWAP1 POP SWAP2 SWAP1 POP JUMP JUMPDEST PUSH1 0x0 DUP3 DUP3 MSTORE PUSH1 0x20 DUP3 ADD SWAP1 POP SWAP3 SWAP2 POP POP JUMP JUMPDEST PUSH1 0x0 JUMPDEST DUP4 DUP2 LT ISZERO PUSH2 0x279 JUMPI DUP1 DUP3 ADD MLOAD DUP2 DUP5 ADD MSTORE PUSH1 0x20 DUP2 ADD SWAP1 POP PUSH2 0x25E JUMP JUMPDEST PUSH1 0x0 DUP5 DUP5 ADD MSTORE POP POP POP POP JUMP JUMPDEST PUSH1 0x0 PUSH1 0x1F NOT PUSH1 0x1F DUP4 ADD AND SWAP1 POP SWAP2 SWAP1 POP JUMP JUMPDEST PUSH1 0x0 PUSH2 0x2A1 DUP3 PUSH2 0x23F JUMP JUMPDEST PUSH2 0x2AB DUP2 DUP6 PUSH2 0x24A JUMP JUMPDEST SWAP4 POP PUSH2 0x2BB DUP2 DUP6 PUSH1 0x20 DUP7 ADD PUSH2 0x25B JUMP JUMPDEST PUSH2 0x2C4 DUP2 PUSH2 0x285 JUMP JUMPDEST DUP5 ADD SWAP2 POP POP SWAP3 SWAP2 POP POP JUMP JUMPDEST PUSH1 0x0 PUSH1 0x20 DUP3 ADD SWAP1 POP DUP2 DUP2 SUB PUSH1 0x0 DUP4 ADD MSTORE PUSH2 0x2E9 DUP2 DUP5 PUSH2 0x296 JUMP JUMPDEST SWAP1 POP SWAP3 SWAP2 POP POP JUMP JUMPDEST PUSH1 0x0 PUSH1 0x40 MLOAD SWAP1 POP SWAP1 JUMP JUMPDEST PUSH1 0x0 DUP1 REVERT JUMPDEST PUSH1 0x0 DUP1 REVERT JUMPDEST PUSH1 0x0 DUP1 REVERT JUMPDEST PUSH1 0x0 DUP1 REVERT JUMPDEST PUSH32 0x4E487B7100000000000000000000000000000000000000000000000000000000 PUSH1 0x0 MSTORE PUSH1 0x41 PUSH1 0x4 MSTORE PUSH1 0x24 PUSH1 0x0 REVERT JUMPDEST PUSH2 0x347 DUP3 PUSH2 0x285 JUMP JUMPDEST DUP2 ADD DUP2 DUP2 LT PUSH8 0xFFFFFFFFFFFFFFFF DUP3 GT OR ISZERO PUSH2 0x366 JUMPI PUSH2 0x365 PUSH2 0x30F JUMP JUMPDEST JUMPDEST DUP1 PUSH1 0x40 MSTORE POP POP POP JUMP JUMPDEST PUSH1 0x0 PUSH2 0x379 PUSH2 0x2F1 JUMP JUMPDEST SWAP1 POP PUSH2 0x385 DUP3 DUP3 PUSH2 0x33E JUMP JUMPDEST SWAP2 SWAP1 POP JUMP JUMPDEST PUSH1 0x0 PUSH8 0xFFFFFFFFFFFFFFFF DUP3 GT ISZERO PUSH2 0x3A5 JUMPI PUSH2 0x3A4 PUSH2 0x30F JUMP JUMPDEST JUMPDEST PUSH2 0x3AE DUP3 PUSH2 0x285 JUMP JUMPDEST SWAP1 POP PUSH1 0x20 DUP2 ADD SWAP1 POP SWAP2 SWAP1 POP JUMP JUMPDEST DUP3 DUP2 DUP4 CALLDATACOPY PUSH1 0x0 DUP4 DUP4 ADD MSTORE POP POP POP JUMP JUMPDEST PUSH1 0x0 PUSH2 0x3DD PUSH2 0x3D8 DUP5 PUSH2 0x38A JUMP JUMPDEST PUSH2 0x36F JUMP JUMPDEST SWAP1 POP DUP3 DUP2 MSTORE PUSH1 0x20 DUP2 ADD DUP5 DUP5 DUP5 ADD GT ISZERO PUSH2 0x3F9 JUMPI PUSH2 0x3F8 PUSH2 0x30A JUMP JUMPDEST JUMPDEST PUSH2 0x404 DUP5 DUP3 DUP6 PUSH2 0x3BB JUMP JUMPDEST POP SWAP4 SWAP3 POP POP POP JUMP JUMPDEST PUSH1 0x0 DUP3 PUSH1 0x1F DUP4 ADD SLT PUSH2 0x421 JUMPI PUSH2 0x420 PUSH2 0x305 JUMP JUMPDEST JUMPDEST DUP2 CALLDATALOAD PUSH2 0x431 DUP5 DUP3 PUSH1 0x20 DUP7 ADD PUSH2 0x3CA JUMP JUMPDEST SWAP2 POP POP SWAP3 SWAP2 POP POP JUMP JUMPDEST PUSH1 0x0 PUSH1 0x20 DUP3 DUP5 SUB SLT ISZERO PUSH2 0x450 JUMPI PUSH2 0x44F PUSH2 0x2FB JUMP JUMPDEST JUMPDEST PUSH1 0x0 DUP3 ADD CALLDATALOAD PUSH8 0xFFFFFFFFFFFFFFFF DUP2 GT ISZERO PUSH2 0x46E JUMPI PUSH2 0x46D PUSH2 0x300 JUMP JUMPDEST JUMPDEST PUSH2 0x47A DUP5 DUP3 DUP6 ADD PUSH2 0x40C JUMP JUMPDEST SWAP2 POP POP SWAP3 SWAP2 POP POP JUMP JUMPDEST PUSH1 0x0 PUSH20 0xFFFFFFFFFFFFFFFFFFFFFFFFFFFFFFFFFFFFFFFF DUP3 AND SWAP1 POP SWAP2 SWAP1 POP JUMP JUMPDEST PUSH1 0x0 PUSH2 0x4AE DUP3 PUSH2 0x483 JUMP JUMPDEST SWAP1 POP SWAP2 SWAP1 POP JUMP JUMPDEST PUSH2 0x4BE DUP2 PUSH2 0x4A3 JUMP JUMPDEST DUP3 MSTORE POP POP JUMP JUMPDEST PUSH1 0x0 PUSH1 0x20 DUP3 ADD SWAP1 POP PUSH2 0x4D9 PUSH1 0x0 DUP4 ADD DUP5 PUSH2 0x4B5 JUMP JUMPDEST SWAP3 SWAP2 POP POP JUMP JUMPDEST PUSH1 0x0 DUP2 SWAP1 POP SWAP2 SWAP1 POP JUMP JUMPDEST PUSH2 0x4F2 DUP2 PUSH2 0x4DF JUMP JUMPDEST DUP2 EQ PUSH2 0x4FD JUMPI PUSH1 0x0 DUP1 REVERT JUMPDEST POP JUMP JUMPDEST PUSH1 0x0 DUP2 CALLDATALOAD SWAP1 POP PUSH2 0x50F DUP2 PUSH2 0x4E9 JUMP JUMPDEST SWAP3 SWAP2 POP POP JUMP JUMPDEST PUSH1 0x0 PUSH1 0x20 DUP3 DUP5 SUB SLT ISZERO PUSH2 0x52B JUMPI PUSH2 0x52A PUSH2 0x2FB JUMP JUMPDEST JUMPDEST PUSH1 0x0 PUSH2 0x539 DUP5 DUP3 DUP6 ADD PUSH2 0x500 JUMP JUMPDEST SWAP2 POP POP SWAP3 SWAP2 POP POP JUMP JUMPDEST PUSH2 0x54B DUP2 PUSH2 0x4DF JUMP JUMPDEST DUP3 MSTORE POP POP JUMP JUMPDEST PUSH1 0x0 PUSH1 0x20 DUP3 ADD SWAP1 POP PUSH2 0x566 PUSH1 0x0 DUP4 ADD DUP5 PUSH2 0x542 JUMP JUMPDEST SWAP3 SWAP2 POP POP JUMP JUMPDEST PUSH32 0x4E487B7100000000000000000000000000000000000000000000000000000000 PUSH1 0x0 MSTORE PUSH1 0x22 PUSH1 0x4 MSTORE PUSH1 0x24 PUSH1 0x0 REVERT JUMPDEST PUSH1 0x0 PUSH1 0x2 DUP3 DIV SWAP1 POP PUSH1 0x1 DUP3 AND DUP1 PUSH2 0x5B3 JUMPI PUSH1 0x7F DUP3 AND SWAP2 POP JUMPDEST PUSH1 0x20 DUP3 LT DUP2 SUB PUSH2 0x5C6 JUMPI PUSH2 0x5C5 PUSH2 0x56C JUMP JUMPDEST JUMPDEST POP SWAP2 SWAP1 POP JUMP JUMPDEST PUSH1 0x0 DUP2 SWAP1 POP DUP2 PUSH1 0x0 MSTORE PUSH1 0x20 PUSH1 0x0 KECCAK256 SWAP1 POP SWAP2 SWAP1 POP JUMP JUMPDEST PUSH1 0x0 PUSH1 0x20 PUSH1 0x1F DUP4 ADD DIV SWAP1 POP SWAP2 SWAP1 POP JUMP JUMPDEST PUSH1 0x0 DUP3 DUP3 SHL SWAP1 POP SWAP3 SWAP2 POP POP JUMP JUMPDEST PUSH1 0x0 PUSH1 0x8 DUP4 MUL PUSH2 0x62E PUSH32 0xFFFFFFFFFFFFFFFFFFFFFFFFFFFFFFFFFFFFFFFFFFFFFFFFFFFFFFFFFFFFFFFF DUP3 PUSH2 0x5F1 JUMP JUMPDEST PUSH2 0x638 DUP7 DUP4 PUSH2 0x5F1 JUMP JUMPDEST SWAP6 POP DUP1 NOT DUP5 AND SWAP4 POP DUP1 DUP7 AND DUP5 OR SWAP3 POP POP POP SWAP4 SWAP3 POP POP POP JUMP JUMPDEST PUSH1 0x0 DUP2 SWAP1 POP SWAP2 SWAP1 POP JUMP JUMPDEST PUSH1 0x0 PUSH2 0x675 PUSH2 0x670 PUSH2 0x66B DUP5 PUSH2 0x4DF JUMP JUMPDEST PUSH2 0x650 JUMP JUMPDEST PUSH2 0x4DF JUMP JUMPDEST SWAP1 POP SWAP2 SWAP1 POP JUMP JUMPDEST PUSH1 0x0 DUP2 SWAP1 POP SWAP2 SWAP1 POP JUMP JUMPDEST PUSH2 0x68F DUP4 PUSH2 0x65A JUMP JUMPDEST PUSH2 0x6A3 PUSH2 0x69B DUP3 PUSH2 0x67C JUMP JUMPDEST DUP5 DUP5 SLOAD PUSH2 0x5FE JUMP JUMPDEST DUP3 SSTORE POP POP POP POP JUMP JUMPDEST PUSH1 0x0 SWAP1 JUMP JUMPDEST PUSH2 0x6B8 PUSH2 0x6AB JUMP JUMPDEST PUSH2 0x6C3 DUP2 DUP5 DUP5 PUSH2 0x686 JUMP JUMPDEST POP POP POP JUMP JUMPDEST JUMPDEST DUP2 DUP2 LT ISZERO PUSH2 0x6E7 JUMPI PUSH2 0x6DC PUSH1 0x0 DUP3 PUSH2 0x6B0 JUMP JUMPDEST PUSH1 0x1 DUP2 ADD SWAP1 POP PUSH2 0x6C9 JUMP JUMPDEST POP POP JUMP JUMPDEST PUSH1 0x1F DUP3 GT ISZERO PUSH2 0x72C JUMPI PUSH2 0x6FD DUP2 PUSH2 0x5CC JUMP JUMPDEST PUSH2 0x706 DUP5 PUSH2 0x5E1 JUMP JUMPDEST DUP2 ADD PUSH1 0x20 DUP6 LT ISZERO PUSH2 0x715 JUMPI DUP2 SWAP1 POP JUMPDEST PUSH2 0x729 PUSH2 0x721 DUP6 PUSH2 0x5E1 JUMP JUMPDEST DUP4 ADD DUP3 PUSH2 0x6C8 JUMP JUMPDEST POP POP JUMPDEST POP POP POP JUMP JUMPDEST PUSH1 0x0 DUP3 DUP3 SHR SWAP1 POP SWAP3 SWAP2 POP POP JUMP JUMPDEST PUSH1 0x0 PUSH2 0x74F PUSH1 0x0 NOT DUP5 PUSH1 0x8 MUL PUSH2 0x731 JUMP JUMPDEST NOT DUP1 DUP4 AND SWAP2 POP POP SWAP3 SWAP2 POP POP JUMP JUMPDEST PUSH1 0x0 PUSH2 0x768 DUP4 DUP4 PUSH2 0x73E JUMP JUMPDEST SWAP2 POP DUP3 PUSH1 0x2 MUL DUP3 OR SWAP1 POP SWAP3 SWAP2 POP POP JUMP JUMPDEST PUSH2 0x781 DUP3 PUSH2 0x23F JUMP JUMPDEST PUSH8 0xFFFFFFFFFFFFFFFF DUP2 GT ISZERO PUSH2 0x79A JUMPI PUSH2 0x799 PUSH2 0x30F JUMP JUMPDEST JUMPDEST PUSH2 0x7A4 DUP3 SLOAD PUSH2 0x59B JUMP JUMPDEST PUSH2 0x7AF DUP3 DUP3 DUP6 PUSH2 0x6EB JUMP JUMPDEST PUSH1 0x0 PUSH1 0x20 SWAP1 POP PUSH1 0x1F DUP4 GT PUSH1 0x1 DUP2 EQ PUSH2 0x7E2 JUMPI PUSH1 0x0 DUP5 ISZERO PUSH2 0x7D0 JUMPI DUP3 DUP8 ADD MLOAD SWAP1 POP JUMPDEST PUSH2 0x7DA DUP6 DUP3 PUSH2 0x75C JUMP JUMPDEST DUP7 SSTORE POP PUSH2 0x842 JUMP JUMPDEST PUSH1 0x1F NOT DUP5 AND PUSH2 0x7F0 DUP7 PUSH2 0x5CC JUMP JUMPDEST PUSH1 0x0 JUMPDEST DUP3 DUP2 LT ISZERO PUSH2 0x818 JUMPI DUP5 DUP10 ADD MLOAD DUP3 SSTORE PUSH1 0x1 DUP3 ADD SWAP2 POP PUSH1 0x20 DUP6 ADD SWAP5 POP PUSH1 0x20 DUP2 ADD SWAP1 POP PUSH2 0x7F3 JUMP JUMPDEST DUP7 DUP4 LT ISZERO PUSH2 0x835 JUMPI DUP5 DUP10 ADD MLOAD PUSH2 0x831 PUSH1 0x1F DUP10 AND DUP3 PUSH2 0x73E JUMP JUMPDEST DUP4 SSTORE POP JUMPDEST PUSH1 0x1 PUSH1 0x2 DUP9 MUL ADD DUP9 SSTORE POP POP POP JUMPDEST POP POP POP POP POP POP JUMP INVALID LOG2 PUSH5 0x6970667358 0x22 SLT KECCAK256 DUP4 0xD8 0x2B JUMP INVALID GT 0x1F SWAP7 0x24 CALLDATALOAD KECCAK256 0xCE PUSH18 0xB4C975D9FEBCAAE67D750DD7D07C407CE940 DUP8 PUSH5 0x736F6C6343 STOP ADDMOD SLT STOP CALLER "
				},
				"gasEstimates": {
					"creation": {
						"codeDepositCost": "435200",
						"executionCost": "infinite",
						"totalCost": "infinite"
					},
					"external": {
						"getPrice()": "2525",
						"location()": "infinite",
						"owner()": "infinite",
						"setLocation(string)": "infinite",
						"setPrice(uint256)": "22599",
						"sold()": "2449"
					}
				},
				"methodIdentifiers": {
					"getPrice()": "98d5fdca",
					"location()": "516f279e",
					"owner()": "8da5cb5b",
					"setLocation(string)": "827bfbdf",
					"setPrice(uint256)": "91b7f5ed",
					"sold()": "02c7e7af"
				}
			},
			"storageLayout": {
				"storage": [
					{
						"astId": 3,
						"contract": "contracts/03_Constructuor.sol:Property",
						"label": "price",
						"offset": 0,
						"slot": "0",
						"type": "t_uint256"
					},
					{
						"astId": 5,
						"contract": "contracts/03_Constructuor.sol:Property",
						"label": "location",
						"offset": 0,
						"slot": "1",
						"type": "t_string_storage"
					},
					{
						"astId": 7,
						"contract": "contracts/03_Constructuor.sol:Property",
						"label": "sold",
						"offset": 0,
						"slot": "2",
						"type": "t_bool"
					}
				],
				"types": {
					"t_bool": {
						"encoding": "inplace",
						"label": "bool",
						"numberOfBytes": "1"
					},
					"t_string_storage": {
						"encoding": "bytes",
						"label": "string",
						"numberOfBytes": "32"
					},
					"t_uint256": {
						"encoding": "inplace",
						"label": "uint256",
						"numberOfBytes": "32"
					}
				}
			},
			"userdoc": {
				"kind": "user",
				"methods": {},
				"version": 1
			}
		}
	}
}