{
	"Challenges/Challenge 6/Solution 6.sol": {
		"Deposit": {
			"abi": [
				{
					"inputs": [],
					"stateMutability": "nonpayable",
					"type": "constructor"
				},
				{
					"inputs": [],
					"name": "getBalance",
					"outputs": [
						{
							"internalType": "uint256",
							"name": "",
							"type": "uint256"
						}
					],
					"stateMutability": "view",
					"type": "function"
				},
				{
					"inputs": [
						{
							"internalType": "address payable",
							"name": "recipient",
							"type": "address"
						}
					],
					"name": "transferBalance",
					"outputs": [],
					"stateMutability": "nonpayable",
					"type": "function"
				},
				{
					"stateMutability": "payable",
					"type": "receive"
				}
			],
			"devdoc": {
				"kind": "dev",
				"methods": {},
				"version": 1
			},
			"evm": {
				"assembly": "    /* \"Challenges/Challenge 6/Solution 6.sol\":71:491  contract Deposit{... */\n  mstore(0x40, 0xa0)\n    /* \"Challenges/Challenge 6/Solution 6.sol\":158:206  constructor(){... */\n  callvalue\n  dup1\n  iszero\n  tag_1\n  jumpi\n  0x00\n  dup1\n  revert\ntag_1:\n  pop\n    /* \"Challenges/Challenge 6/Solution 6.sol\":189:199  msg.sender */\n  caller\n    /* \"Challenges/Challenge 6/Solution 6.sol\":181:199  admin = msg.sender */\n  0xffffffffffffffffffffffffffffffffffffffff\n  and\n  0x80\n  dup2\n  0xffffffffffffffffffffffffffffffffffffffff\n  and\n  dup2\n  mstore\n  pop\n  pop\n    /* \"Challenges/Challenge 6/Solution 6.sol\":71:491  contract Deposit{... */\n  mload(0x80)\n  codecopy(0x00, dataOffset(sub_0), dataSize(sub_0))\n  0x00\n  assignImmutable(\"0x52f1a9b320cab38e5da8a8f97989383aab0a49165fc91c737310e4f7e9821021\")\n  return(0x00, dataSize(sub_0))\nstop\n\nsub_0: assembly {\n        /* \"Challenges/Challenge 6/Solution 6.sol\":71:491  contract Deposit{... */\n      mstore(0x40, 0x80)\n      jumpi(tag_1, lt(calldatasize, 0x04))\n      shr(0xe0, calldataload(0x00))\n      dup1\n      0x12065fe0\n      eq\n      tag_3\n      jumpi\n      dup1\n      0x63b6b31f\n      eq\n      tag_4\n      jumpi\n      jump(tag_2)\n    tag_1:\n      jumpi(tag_2, calldatasize)\n      stop\n    tag_2:\n      0x00\n      dup1\n      revert\n        /* \"Challenges/Challenge 6/Solution 6.sol\":212:306  function getBalance() public view returns (uint) {... */\n    tag_3:\n      callvalue\n      dup1\n      iszero\n      tag_7\n      jumpi\n      0x00\n      dup1\n      revert\n    tag_7:\n      pop\n      tag_8\n      tag_9\n      jump\t// in\n    tag_8:\n      mload(0x40)\n      tag_10\n      swap2\n      swap1\n      tag_11\n      jump\t// in\n    tag_10:\n      mload(0x40)\n      dup1\n      swap2\n      sub\n      swap1\n      return\n        /* \"Challenges/Challenge 6/Solution 6.sol\":312:489  function transferBalance(address payable recipient) public{... */\n    tag_4:\n      callvalue\n      dup1\n      iszero\n      tag_12\n      jumpi\n      0x00\n      dup1\n      revert\n    tag_12:\n      pop\n      tag_13\n      0x04\n      dup1\n      calldatasize\n      sub\n      dup2\n      add\n      swap1\n      tag_14\n      swap2\n      swap1\n      tag_15\n      jump\t// in\n    tag_14:\n      tag_16\n      jump\t// in\n    tag_13:\n      stop\n        /* \"Challenges/Challenge 6/Solution 6.sol\":212:306  function getBalance() public view returns (uint) {... */\n    tag_9:\n        /* \"Challenges/Challenge 6/Solution 6.sol\":255:259  uint */\n      0x00\n        /* \"Challenges/Challenge 6/Solution 6.sol\":278:299  address(this).balance */\n      selfbalance\n        /* \"Challenges/Challenge 6/Solution 6.sol\":271:299  return address(this).balance */\n      swap1\n      pop\n        /* \"Challenges/Challenge 6/Solution 6.sol\":212:306  function getBalance() public view returns (uint) {... */\n      swap1\n      jump\t// out\n        /* \"Challenges/Challenge 6/Solution 6.sol\":312:489  function transferBalance(address payable recipient) public{... */\n    tag_16:\n        /* \"Challenges/Challenge 6/Solution 6.sol\":402:407  admin */\n      immutable(\"0x52f1a9b320cab38e5da8a8f97989383aab0a49165fc91c737310e4f7e9821021\")\n        /* \"Challenges/Challenge 6/Solution 6.sol\":388:407  msg.sender == admin */\n      0xffffffffffffffffffffffffffffffffffffffff\n      and\n        /* \"Challenges/Challenge 6/Solution 6.sol\":388:398  msg.sender */\n      caller\n        /* \"Challenges/Challenge 6/Solution 6.sol\":388:407  msg.sender == admin */\n      0xffffffffffffffffffffffffffffffffffffffff\n      and\n      eq\n        /* \"Challenges/Challenge 6/Solution 6.sol\":380:408  require(msg.sender == admin) */\n      tag_19\n      jumpi\n      0x00\n      dup1\n      revert\n    tag_19:\n        /* \"Challenges/Challenge 6/Solution 6.sol\":418:430  uint balance */\n      0x00\n        /* \"Challenges/Challenge 6/Solution 6.sol\":433:445  getBalance() */\n      tag_20\n        /* \"Challenges/Challenge 6/Solution 6.sol\":433:443  getBalance */\n      tag_9\n        /* \"Challenges/Challenge 6/Solution 6.sol\":433:445  getBalance() */\n      jump\t// in\n    tag_20:\n        /* \"Challenges/Challenge 6/Solution 6.sol\":418:445  uint balance = getBalance() */\n      swap1\n      pop\n        /* \"Challenges/Challenge 6/Solution 6.sol\":455:464  recipient */\n      dup2\n        /* \"Challenges/Challenge 6/Solution 6.sol\":455:473  recipient.transfer */\n      0xffffffffffffffffffffffffffffffffffffffff\n      and\n        /* \"Challenges/Challenge 6/Solution 6.sol\":455:482  recipient.transfer(balance) */\n      0x08fc\n        /* \"Challenges/Challenge 6/Solution 6.sol\":474:481  balance */\n      dup3\n        /* \"Challenges/Challenge 6/Solution 6.sol\":455:482  recipient.transfer(balance) */\n      swap1\n      dup2\n      iszero\n      mul\n      swap1\n      mload(0x40)\n      0x00\n      mload(0x40)\n      dup1\n      dup4\n      sub\n      dup2\n      dup6\n      dup9\n      dup9\n      call\n      swap4\n      pop\n      pop\n      pop\n      pop\n      iszero\n      dup1\n      iszero\n      tag_22\n      jumpi\n      returndatasize\n      0x00\n      dup1\n      returndatacopy\n      revert(0x00, returndatasize)\n    tag_22:\n      pop\n        /* \"Challenges/Challenge 6/Solution 6.sol\":370:489  {... */\n      pop\n        /* \"Challenges/Challenge 6/Solution 6.sol\":312:489  function transferBalance(address payable recipient) public{... */\n      pop\n      jump\t// out\n        /* \"#utility.yul\":7:84   */\n    tag_23:\n        /* \"#utility.yul\":44:51   */\n      0x00\n        /* \"#utility.yul\":73:78   */\n      dup2\n        /* \"#utility.yul\":62:78   */\n      swap1\n      pop\n        /* \"#utility.yul\":7:84   */\n      swap2\n      swap1\n      pop\n      jump\t// out\n        /* \"#utility.yul\":90:208   */\n    tag_24:\n        /* \"#utility.yul\":177:201   */\n      tag_35\n        /* \"#utility.yul\":195:200   */\n      dup2\n        /* \"#utility.yul\":177:201   */\n      tag_23\n      jump\t// in\n    tag_35:\n        /* \"#utility.yul\":172:175   */\n      dup3\n        /* \"#utility.yul\":165:202   */\n      mstore\n        /* \"#utility.yul\":90:208   */\n      pop\n      pop\n      jump\t// out\n        /* \"#utility.yul\":214:436   */\n    tag_11:\n        /* \"#utility.yul\":307:311   */\n      0x00\n        /* \"#utility.yul\":345:347   */\n      0x20\n        /* \"#utility.yul\":334:343   */\n      dup3\n        /* \"#utility.yul\":330:348   */\n      add\n        /* \"#utility.yul\":322:348   */\n      swap1\n      pop\n        /* \"#utility.yul\":358:429   */\n      tag_37\n        /* \"#utility.yul\":426:427   */\n      0x00\n        /* \"#utility.yul\":415:424   */\n      dup4\n        /* \"#utility.yul\":411:428   */\n      add\n        /* \"#utility.yul\":402:408   */\n      dup5\n        /* \"#utility.yul\":358:429   */\n      tag_24\n      jump\t// in\n    tag_37:\n        /* \"#utility.yul\":214:436   */\n      swap3\n      swap2\n      pop\n      pop\n      jump\t// out\n        /* \"#utility.yul\":523:640   */\n    tag_26:\n        /* \"#utility.yul\":632:633   */\n      0x00\n        /* \"#utility.yul\":629:630   */\n      dup1\n        /* \"#utility.yul\":622:634   */\n      revert\n        /* \"#utility.yul\":769:895   */\n    tag_28:\n        /* \"#utility.yul\":806:813   */\n      0x00\n        /* \"#utility.yul\":846:888   */\n      0xffffffffffffffffffffffffffffffffffffffff\n        /* \"#utility.yul\":839:844   */\n      dup3\n        /* \"#utility.yul\":835:889   */\n      and\n        /* \"#utility.yul\":824:889   */\n      swap1\n      pop\n        /* \"#utility.yul\":769:895   */\n      swap2\n      swap1\n      pop\n      jump\t// out\n        /* \"#utility.yul\":901:1005   */\n    tag_29:\n        /* \"#utility.yul\":946:953   */\n      0x00\n        /* \"#utility.yul\":975:999   */\n      tag_43\n        /* \"#utility.yul\":993:998   */\n      dup3\n        /* \"#utility.yul\":975:999   */\n      tag_28\n      jump\t// in\n    tag_43:\n        /* \"#utility.yul\":964:999   */\n      swap1\n      pop\n        /* \"#utility.yul\":901:1005   */\n      swap2\n      swap1\n      pop\n      jump\t// out\n        /* \"#utility.yul\":1011:1149   */\n    tag_30:\n        /* \"#utility.yul\":1092:1124   */\n      tag_45\n        /* \"#utility.yul\":1118:1123   */\n      dup2\n        /* \"#utility.yul\":1092:1124   */\n      tag_29\n      jump\t// in\n    tag_45:\n        /* \"#utility.yul\":1085:1090   */\n      dup2\n        /* \"#utility.yul\":1082:1125   */\n      eq\n        /* \"#utility.yul\":1072:1143   */\n      tag_46\n      jumpi\n        /* \"#utility.yul\":1139:1140   */\n      0x00\n        /* \"#utility.yul\":1136:1137   */\n      dup1\n        /* \"#utility.yul\":1129:1141   */\n      revert\n        /* \"#utility.yul\":1072:1143   */\n    tag_46:\n        /* \"#utility.yul\":1011:1149   */\n      pop\n      jump\t// out\n        /* \"#utility.yul\":1155:1310   */\n    tag_31:\n        /* \"#utility.yul\":1209:1214   */\n      0x00\n        /* \"#utility.yul\":1247:1253   */\n      dup2\n        /* \"#utility.yul\":1234:1254   */\n      calldataload\n        /* \"#utility.yul\":1225:1254   */\n      swap1\n      pop\n        /* \"#utility.yul\":1263:1304   */\n      tag_48\n        /* \"#utility.yul\":1298:1303   */\n      dup2\n        /* \"#utility.yul\":1263:1304   */\n      tag_30\n      jump\t// in\n    tag_48:\n        /* \"#utility.yul\":1155:1310   */\n      swap3\n      swap2\n      pop\n      pop\n      jump\t// out\n        /* \"#utility.yul\":1316:1661   */\n    tag_15:\n        /* \"#utility.yul\":1383:1389   */\n      0x00\n        /* \"#utility.yul\":1432:1434   */\n      0x20\n        /* \"#utility.yul\":1420:1429   */\n      dup3\n        /* \"#utility.yul\":1411:1418   */\n      dup5\n        /* \"#utility.yul\":1407:1430   */\n      sub\n        /* \"#utility.yul\":1403:1435   */\n      slt\n        /* \"#utility.yul\":1400:1519   */\n      iszero\n      tag_50\n      jumpi\n        /* \"#utility.yul\":1438:1517   */\n      tag_51\n      tag_26\n      jump\t// in\n    tag_51:\n        /* \"#utility.yul\":1400:1519   */\n    tag_50:\n        /* \"#utility.yul\":1558:1559   */\n      0x00\n        /* \"#utility.yul\":1583:1644   */\n      tag_52\n        /* \"#utility.yul\":1636:1643   */\n      dup5\n        /* \"#utility.yul\":1627:1633   */\n      dup3\n        /* \"#utility.yul\":1616:1625   */\n      dup6\n        /* \"#utility.yul\":1612:1634   */\n      add\n        /* \"#utility.yul\":1583:1644   */\n      tag_31\n      jump\t// in\n    tag_52:\n        /* \"#utility.yul\":1573:1644   */\n      swap2\n      pop\n        /* \"#utility.yul\":1529:1654   */\n      pop\n        /* \"#utility.yul\":1316:1661   */\n      swap3\n      swap2\n      pop\n      pop\n      jump\t// out\n\n    auxdata: 0xa2646970667358221220f1321feef536643262d794ecf86e31d8734287d8c2093342916accf0a616157a64736f6c63430008120033\n}\n",
				"bytecode": {
					"linkReferences": {},
					"object": "60a060405234801561001057600080fd5b503373ffffffffffffffffffffffffffffffffffffffff1660808173ffffffffffffffffffffffffffffffffffffffff168152505060805161023e61005f60003960006097015261023e6000f3fe60806040526004361061002d5760003560e01c806312065fe01461003957806363b6b31f1461006457610034565b3661003457005b600080fd5b34801561004557600080fd5b5061004e61008d565b60405161005b919061015d565b60405180910390f35b34801561007057600080fd5b5061008b600480360381019061008691906101db565b610095565b005b600047905090565b7f000000000000000000000000000000000000000000000000000000000000000073ffffffffffffffffffffffffffffffffffffffff163373ffffffffffffffffffffffffffffffffffffffff16146100ed57600080fd5b60006100f761008d565b90508173ffffffffffffffffffffffffffffffffffffffff166108fc829081150290604051600060405180830381858888f1935050505015801561013f573d6000803e3d6000fd5b505050565b6000819050919050565b61015781610144565b82525050565b6000602082019050610172600083018461014e565b92915050565b600080fd5b600073ffffffffffffffffffffffffffffffffffffffff82169050919050565b60006101a88261017d565b9050919050565b6101b88161019d565b81146101c357600080fd5b50565b6000813590506101d5816101af565b92915050565b6000602082840312156101f1576101f0610178565b5b60006101ff848285016101c6565b9150509291505056fea2646970667358221220f1321feef536643262d794ecf86e31d8734287d8c2093342916accf0a616157a64736f6c63430008120033",
					"opcodes": "PUSH1 0xA0 PUSH1 0x40 MSTORE CALLVALUE DUP1 ISZERO PUSH2 0x10 JUMPI PUSH1 0x0 DUP1 REVERT JUMPDEST POP CALLER PUSH20 0xFFFFFFFFFFFFFFFFFFFFFFFFFFFFFFFFFFFFFFFF AND PUSH1 0x80 DUP2 PUSH20 0xFFFFFFFFFFFFFFFFFFFFFFFFFFFFFFFFFFFFFFFF AND DUP2 MSTORE POP POP PUSH1 0x80 MLOAD PUSH2 0x23E PUSH2 0x5F PUSH1 0x0 CODECOPY PUSH1 0x0 PUSH1 0x97 ADD MSTORE PUSH2 0x23E PUSH1 0x0 RETURN INVALID PUSH1 0x80 PUSH1 0x40 MSTORE PUSH1 0x4 CALLDATASIZE LT PUSH2 0x2D JUMPI PUSH1 0x0 CALLDATALOAD PUSH1 0xE0 SHR DUP1 PUSH4 0x12065FE0 EQ PUSH2 0x39 JUMPI DUP1 PUSH4 0x63B6B31F EQ PUSH2 0x64 JUMPI PUSH2 0x34 JUMP JUMPDEST CALLDATASIZE PUSH2 0x34 JUMPI STOP JUMPDEST PUSH1 0x0 DUP1 REVERT JUMPDEST CALLVALUE DUP1 ISZERO PUSH2 0x45 JUMPI PUSH1 0x0 DUP1 REVERT JUMPDEST POP PUSH2 0x4E PUSH2 0x8D JUMP JUMPDEST PUSH1 0x40 MLOAD PUSH2 0x5B SWAP2 SWAP1 PUSH2 0x15D JUMP JUMPDEST PUSH1 0x40 MLOAD DUP1 SWAP2 SUB SWAP1 RETURN JUMPDEST CALLVALUE DUP1 ISZERO PUSH2 0x70 JUMPI PUSH1 0x0 DUP1 REVERT JUMPDEST POP PUSH2 0x8B PUSH1 0x4 DUP1 CALLDATASIZE SUB DUP2 ADD SWAP1 PUSH2 0x86 SWAP2 SWAP1 PUSH2 0x1DB JUMP JUMPDEST PUSH2 0x95 JUMP JUMPDEST STOP JUMPDEST PUSH1 0x0 SELFBALANCE SWAP1 POP SWAP1 JUMP JUMPDEST PUSH32 0x0 PUSH20 0xFFFFFFFFFFFFFFFFFFFFFFFFFFFFFFFFFFFFFFFF AND CALLER PUSH20 0xFFFFFFFFFFFFFFFFFFFFFFFFFFFFFFFFFFFFFFFF AND EQ PUSH2 0xED JUMPI PUSH1 0x0 DUP1 REVERT JUMPDEST PUSH1 0x0 PUSH2 0xF7 PUSH2 0x8D JUMP JUMPDEST SWAP1 POP DUP2 PUSH20 0xFFFFFFFFFFFFFFFFFFFFFFFFFFFFFFFFFFFFFFFF AND PUSH2 0x8FC DUP3 SWAP1 DUP2 ISZERO MUL SWAP1 PUSH1 0x40 MLOAD PUSH1 0x0 PUSH1 0x40 MLOAD DUP1 DUP4 SUB DUP2 DUP6 DUP9 DUP9 CALL SWAP4 POP POP POP POP ISZERO DUP1 ISZERO PUSH2 0x13F JUMPI RETURNDATASIZE PUSH1 0x0 DUP1 RETURNDATACOPY RETURNDATASIZE PUSH1 0x0 REVERT JUMPDEST POP POP POP JUMP JUMPDEST PUSH1 0x0 DUP2 SWAP1 POP SWAP2 SWAP1 POP JUMP JUMPDEST PUSH2 0x157 DUP2 PUSH2 0x144 JUMP JUMPDEST DUP3 MSTORE POP POP JUMP JUMPDEST PUSH1 0x0 PUSH1 0x20 DUP3 ADD SWAP1 POP PUSH2 0x172 PUSH1 0x0 DUP4 ADD DUP5 PUSH2 0x14E JUMP JUMPDEST SWAP3 SWAP2 POP POP JUMP JUMPDEST PUSH1 0x0 DUP1 REVERT JUMPDEST PUSH1 0x0 PUSH20 0xFFFFFFFFFFFFFFFFFFFFFFFFFFFFFFFFFFFFFFFF DUP3 AND SWAP1 POP SWAP2 SWAP1 POP JUMP JUMPDEST PUSH1 0x0 PUSH2 0x1A8 DUP3 PUSH2 0x17D JUMP JUMPDEST SWAP1 POP SWAP2 SWAP1 POP JUMP JUMPDEST PUSH2 0x1B8 DUP2 PUSH2 0x19D JUMP JUMPDEST DUP2 EQ PUSH2 0x1C3 JUMPI PUSH1 0x0 DUP1 REVERT JUMPDEST POP JUMP JUMPDEST PUSH1 0x0 DUP2 CALLDATALOAD SWAP1 POP PUSH2 0x1D5 DUP2 PUSH2 0x1AF JUMP JUMPDEST SWAP3 SWAP2 POP POP JUMP JUMPDEST PUSH1 0x0 PUSH1 0x20 DUP3 DUP5 SUB SLT ISZERO PUSH2 0x1F1 JUMPI PUSH2 0x1F0 PUSH2 0x178 JUMP JUMPDEST JUMPDEST PUSH1 0x0 PUSH2 0x1FF DUP5 DUP3 DUP6 ADD PUSH2 0x1C6 JUMP JUMPDEST SWAP2 POP POP SWAP3 SWAP2 POP POP JUMP INVALID LOG2 PUSH5 0x6970667358 0x22 SLT KECCAK256 CALL ORIGIN 0x1F 0xEE CREATE2 CALLDATASIZE PUSH5 0x3262D794EC 0xF8 PUSH15 0x31D8734287D8C2093342916ACCF0A6 AND ISZERO PUSH27 0x64736F6C6343000812003300000000000000000000000000000000 "
				},
				"gasEstimates": {
					"creation": {
						"codeDepositCost": "114800",
						"executionCost": "infinite",
						"totalCost": "infinite"
					},
					"external": {
						"getBalance()": "317",
						"transferBalance(address)": "infinite"
					}
				},
				"methodIdentifiers": {
					"getBalance()": "12065fe0",
					"transferBalance(address)": "63b6b31f"
				}
			},
			"storageLayout": {
				"storage": [],
				"types": null
			},
			"userdoc": {
				"kind": "user",
				"methods": {},
				"version": 1
			}
		}
	}
}