{
	"data": {
		"bytecode": {
			"linkReferences": {},
			"object": "608060405234801561000f575f80fd5b506103b88061001d5f395ff3fe608060405234801561000f575f80fd5b5060043610610029575f3560e01c806305846f0d1461002d575b5f80fd5b610047600480360381019061004291906101c9565b610049565b005b5f808273ffffffffffffffffffffffffffffffffffffffff166005600a60405160240161007792919061027b565b6040516020818303038152906040527f771602f7000000000000000000000000000000000000000000000000000000007bffffffffffffffffffffffffffffffffffffffffffffffffffffffff19166020820180517bffffffffffffffffffffffffffffffffffffffffffffffffffffffff8381831617835250505050604051610101919061030e565b5f604051808303815f865af19150503d805f811461013a576040519150601f19603f3d011682016040523d82523d5f602084013e61013f565b606091505b50915091508161014d575f80fd5b808060200190518101906101619190610357565b5f81905550505050565b5f80fd5b5f73ffffffffffffffffffffffffffffffffffffffff82169050919050565b5f6101988261016f565b9050919050565b6101a88161018e565b81146101b2575f80fd5b50565b5f813590506101c38161019f565b92915050565b5f602082840312156101de576101dd61016b565b5b5f6101eb848285016101b5565b91505092915050565b5f819050919050565b5f60ff82169050919050565b5f819050919050565b5f61022c610227610222846101f4565b610209565b6101fd565b9050919050565b61023c81610212565b82525050565b5f819050919050565b5f61026561026061025b84610242565b610209565b6101fd565b9050919050565b6102758161024b565b82525050565b5f60408201905061028e5f830185610233565b61029b602083018461026c565b9392505050565b5f81519050919050565b5f81905092915050565b5f5b838110156102d35780820151818401526020810190506102b8565b5f8484015250505050565b5f6102e8826102a2565b6102f281856102ac565b93506103028185602086016102b6565b80840191505092915050565b5f61031982846102de565b915081905092915050565b5f819050919050565b61033681610324565b8114610340575f80fd5b50565b5f815190506103518161032d565b92915050565b5f6020828403121561036c5761036b61016b565b5b5f61037984828501610343565b9150509291505056fea2646970667358221220f7c0261b7a552d24784bf0b1ecc0b72c7b10361f46264c07833e7abb67bce95464736f6c63430008140033",
			"opcodes": "PUSH1 0x80 PUSH1 0x40 MSTORE CALLVALUE DUP1 ISZERO PUSH2 0xF JUMPI PUSH0 DUP1 REVERT JUMPDEST POP PUSH2 0x3B8 DUP1 PUSH2 0x1D PUSH0 CODECOPY PUSH0 RETURN INVALID PUSH1 0x80 PUSH1 0x40 MSTORE CALLVALUE DUP1 ISZERO PUSH2 0xF JUMPI PUSH0 DUP1 REVERT JUMPDEST POP PUSH1 0x4 CALLDATASIZE LT PUSH2 0x29 JUMPI PUSH0 CALLDATALOAD PUSH1 0xE0 SHR DUP1 PUSH4 0x5846F0D EQ PUSH2 0x2D JUMPI JUMPDEST PUSH0 DUP1 REVERT JUMPDEST PUSH2 0x47 PUSH1 0x4 DUP1 CALLDATASIZE SUB DUP2 ADD SWAP1 PUSH2 0x42 SWAP2 SWAP1 PUSH2 0x1C9 JUMP JUMPDEST PUSH2 0x49 JUMP JUMPDEST STOP JUMPDEST PUSH0 DUP1 DUP3 PUSH20 0xFFFFFFFFFFFFFFFFFFFFFFFFFFFFFFFFFFFFFFFF AND PUSH1 0x5 PUSH1 0xA PUSH1 0x40 MLOAD PUSH1 0x24 ADD PUSH2 0x77 SWAP3 SWAP2 SWAP1 PUSH2 0x27B JUMP JUMPDEST PUSH1 0x40 MLOAD PUSH1 0x20 DUP2 DUP4 SUB SUB DUP2 MSTORE SWAP1 PUSH1 0x40 MSTORE PUSH32 0x771602F700000000000000000000000000000000000000000000000000000000 PUSH28 0xFFFFFFFFFFFFFFFFFFFFFFFFFFFFFFFFFFFFFFFFFFFFFFFFFFFFFFFF NOT AND PUSH1 0x20 DUP3 ADD DUP1 MLOAD PUSH28 0xFFFFFFFFFFFFFFFFFFFFFFFFFFFFFFFFFFFFFFFFFFFFFFFFFFFFFFFF DUP4 DUP2 DUP4 AND OR DUP4 MSTORE POP POP POP POP PUSH1 0x40 MLOAD PUSH2 0x101 SWAP2 SWAP1 PUSH2 0x30E JUMP JUMPDEST PUSH0 PUSH1 0x40 MLOAD DUP1 DUP4 SUB DUP2 PUSH0 DUP7 GAS CALL SWAP2 POP POP RETURNDATASIZE DUP1 PUSH0 DUP2 EQ PUSH2 0x13A JUMPI PUSH1 0x40 MLOAD SWAP2 POP PUSH1 0x1F NOT PUSH1 0x3F RETURNDATASIZE ADD AND DUP3 ADD PUSH1 0x40 MSTORE RETURNDATASIZE DUP3 MSTORE RETURNDATASIZE PUSH0 PUSH1 0x20 DUP5 ADD RETURNDATACOPY PUSH2 0x13F JUMP JUMPDEST PUSH1 0x60 SWAP2 POP JUMPDEST POP SWAP2 POP SWAP2 POP DUP2 PUSH2 0x14D JUMPI PUSH0 DUP1 REVERT JUMPDEST DUP1 DUP1 PUSH1 0x20 ADD SWAP1 MLOAD DUP2 ADD SWAP1 PUSH2 0x161 SWAP2 SWAP1 PUSH2 0x357 JUMP JUMPDEST PUSH0 DUP2 SWAP1 SSTORE POP POP POP POP JUMP JUMPDEST PUSH0 DUP1 REVERT JUMPDEST PUSH0 PUSH20 0xFFFFFFFFFFFFFFFFFFFFFFFFFFFFFFFFFFFFFFFF DUP3 AND SWAP1 POP SWAP2 SWAP1 POP JUMP JUMPDEST PUSH0 PUSH2 0x198 DUP3 PUSH2 0x16F JUMP JUMPDEST SWAP1 POP SWAP2 SWAP1 POP JUMP JUMPDEST PUSH2 0x1A8 DUP2 PUSH2 0x18E JUMP JUMPDEST DUP2 EQ PUSH2 0x1B2 JUMPI PUSH0 DUP1 REVERT JUMPDEST POP JUMP JUMPDEST PUSH0 DUP2 CALLDATALOAD SWAP1 POP PUSH2 0x1C3 DUP2 PUSH2 0x19F JUMP JUMPDEST SWAP3 SWAP2 POP POP JUMP JUMPDEST PUSH0 PUSH1 0x20 DUP3 DUP5 SUB SLT ISZERO PUSH2 0x1DE JUMPI PUSH2 0x1DD PUSH2 0x16B JUMP JUMPDEST JUMPDEST PUSH0 PUSH2 0x1EB DUP5 DUP3 DUP6 ADD PUSH2 0x1B5 JUMP JUMPDEST SWAP2 POP POP SWAP3 SWAP2 POP POP JUMP JUMPDEST PUSH0 DUP2 SWAP1 POP SWAP2 SWAP1 POP JUMP JUMPDEST PUSH0 PUSH1 0xFF DUP3 AND SWAP1 POP SWAP2 SWAP1 POP JUMP JUMPDEST PUSH0 DUP2 SWAP1 POP SWAP2 SWAP1 POP JUMP JUMPDEST PUSH0 PUSH2 0x22C PUSH2 0x227 PUSH2 0x222 DUP5 PUSH2 0x1F4 JUMP JUMPDEST PUSH2 0x209 JUMP JUMPDEST PUSH2 0x1FD JUMP JUMPDEST SWAP1 POP SWAP2 SWAP1 POP JUMP JUMPDEST PUSH2 0x23C DUP2 PUSH2 0x212 JUMP JUMPDEST DUP3 MSTORE POP POP JUMP JUMPDEST PUSH0 DUP2 SWAP1 POP SWAP2 SWAP1 POP JUMP JUMPDEST PUSH0 PUSH2 0x265 PUSH2 0x260 PUSH2 0x25B DUP5 PUSH2 0x242 JUMP JUMPDEST PUSH2 0x209 JUMP JUMPDEST PUSH2 0x1FD JUMP JUMPDEST SWAP1 POP SWAP2 SWAP1 POP JUMP JUMPDEST PUSH2 0x275 DUP2 PUSH2 0x24B JUMP JUMPDEST DUP3 MSTORE POP POP JUMP JUMPDEST PUSH0 PUSH1 0x40 DUP3 ADD SWAP1 POP PUSH2 0x28E PUSH0 DUP4 ADD DUP6 PUSH2 0x233 JUMP JUMPDEST PUSH2 0x29B PUSH1 0x20 DUP4 ADD DUP5 PUSH2 0x26C JUMP JUMPDEST SWAP4 SWAP3 POP POP POP JUMP JUMPDEST PUSH0 DUP2 MLOAD SWAP1 POP SWAP2 SWAP1 POP JUMP JUMPDEST PUSH0 DUP2 SWAP1 POP SWAP3 SWAP2 POP POP JUMP JUMPDEST PUSH0 JUMPDEST DUP4 DUP2 LT ISZERO PUSH2 0x2D3 JUMPI DUP1 DUP3 ADD MLOAD DUP2 DUP5 ADD MSTORE PUSH1 0x20 DUP2 ADD SWAP1 POP PUSH2 0x2B8 JUMP JUMPDEST PUSH0 DUP5 DUP5 ADD MSTORE POP POP POP POP JUMP JUMPDEST PUSH0 PUSH2 0x2E8 DUP3 PUSH2 0x2A2 JUMP JUMPDEST PUSH2 0x2F2 DUP2 DUP6 PUSH2 0x2AC JUMP JUMPDEST SWAP4 POP PUSH2 0x302 DUP2 DUP6 PUSH1 0x20 DUP7 ADD PUSH2 0x2B6 JUMP JUMPDEST DUP1 DUP5 ADD SWAP2 POP POP SWAP3 SWAP2 POP POP JUMP JUMPDEST PUSH0 PUSH2 0x319 DUP3 DUP5 PUSH2 0x2DE JUMP JUMPDEST SWAP2 POP DUP2 SWAP1 POP SWAP3 SWAP2 POP POP JUMP JUMPDEST PUSH0 DUP2 SWAP1 POP SWAP2 SWAP1 POP JUMP JUMPDEST PUSH2 0x336 DUP2 PUSH2 0x324 JUMP JUMPDEST DUP2 EQ PUSH2 0x340 JUMPI PUSH0 DUP1 REVERT JUMPDEST POP JUMP JUMPDEST PUSH0 DUP2 MLOAD SWAP1 POP PUSH2 0x351 DUP2 PUSH2 0x32D JUMP JUMPDEST SWAP3 SWAP2 POP POP JUMP JUMPDEST PUSH0 PUSH1 0x20 DUP3 DUP5 SUB SLT ISZERO PUSH2 0x36C JUMPI PUSH2 0x36B PUSH2 0x16B JUMP JUMPDEST JUMPDEST PUSH0 PUSH2 0x379 DUP5 DUP3 DUP6 ADD PUSH2 0x343 JUMP JUMPDEST SWAP2 POP POP SWAP3 SWAP2 POP POP JUMP INVALID LOG2 PUSH5 0x6970667358 0x22 SLT KECCAK256 0xF7 0xC0 0x26 SHL PUSH27 0x552D24784BF0B1ECC0B72C7B10361F46264C07833E7ABB67BCE954 PUSH5 0x736F6C6343 STOP ADDMOD EQ STOP CALLER "
		},
		"gasEstimates": {
			"creation": {
				"codeDepositCost": "190400",
				"executionCost": "230",
				"totalCost": "190630"
			},
			"external": {
				"storeSum(address)": "infinite"
			}
		},
		"methodIdentifiers": {
			"storeSum(address)": "05846f0d"
		}
	},
	"abi": [
		{
			"inputs": [
				{
					"internalType": "address",
					"name": "b",
					"type": "address"
				}
			],
			"name": "storeSum",
			"outputs": [],
			"stateMutability": "nonpayable",
			"type": "function"
		}
	]
}