{
	"Alchemy University/Targetting Functions.sol": {
		"A": {
			"abi": [
				{
					"inputs": [
						{
							"internalType": "address",
							"name": "b",
							"type": "address"
						}
					],
					"name": "storeSum",
					"outputs": [],
					"stateMutability": "nonpayable",
					"type": "function"
				}
			],
			"devdoc": {
				"kind": "dev",
				"methods": {},
				"version": 1
			},
			"evm": {
				"assembly": "    /* \"Alchemy University/Targetting Functions.sol\":190:498  contract A{... */\n  mstore(0x40, 0x80)\n  callvalue\n  dup1\n  iszero\n  tag_1\n  jumpi\n  0x00\n  dup1\n  revert\ntag_1:\n  pop\n  dataSize(sub_0)\n  dup1\n  dataOffset(sub_0)\n  0x00\n  codecopy\n  0x00\n  return\nstop\n\nsub_0: assembly {\n        /* \"Alchemy University/Targetting Functions.sol\":190:498  contract A{... */\n      mstore(0x40, 0x80)\n      callvalue\n      dup1\n      iszero\n      tag_1\n      jumpi\n      0x00\n      dup1\n      revert\n    tag_1:\n      pop\n      jumpi(tag_2, lt(calldatasize, 0x04))\n      shr(0xe0, calldataload(0x00))\n      dup1\n      0x05846f0d\n      eq\n      tag_3\n      jumpi\n    tag_2:\n      0x00\n      dup1\n      revert\n        /* \"Alchemy University/Targetting Functions.sol\":220:496  function storeSum(address b) external {... */\n    tag_3:\n      tag_4\n      0x04\n      dup1\n      calldatasize\n      sub\n      dup2\n      add\n      swap1\n      tag_5\n      swap2\n      swap1\n      tag_6\n      jump\t// in\n    tag_5:\n      tag_7\n      jump\t// in\n    tag_4:\n      stop\n    tag_7:\n        /* \"Alchemy University/Targetting Functions.sol\":477:478  b */\n      dup1\n        /* \"Alchemy University/Targetting Functions.sol\":475:483  B(b).add */\n      0xffffffffffffffffffffffffffffffffffffffff\n      and\n      0x771602f7\n        /* \"Alchemy University/Targetting Functions.sol\":484:485  5 */\n      0x05\n        /* \"Alchemy University/Targetting Functions.sol\":486:488  10 */\n      0x0a\n        /* \"Alchemy University/Targetting Functions.sol\":475:489  B(b).add(5,10) */\n      mload(0x40)\n      dup4\n      0xffffffff\n      and\n      0xe0\n      shl\n      dup2\n      mstore\n      0x04\n      add\n      tag_9\n      swap3\n      swap2\n      swap1\n      tag_10\n      jump\t// in\n    tag_9:\n      0x20\n      mload(0x40)\n      dup1\n      dup4\n      sub\n      dup2\n      dup7\n      gas\n      staticcall\n      iszero\n      dup1\n      iszero\n      tag_12\n      jumpi\n      returndatasize\n      0x00\n      dup1\n      returndatacopy\n      revert(0x00, returndatasize)\n    tag_12:\n      pop\n      pop\n      pop\n      pop\n      mload(0x40)\n      returndatasize\n      not(0x1f)\n      0x1f\n      dup3\n      add\n      and\n      dup3\n      add\n      dup1\n      0x40\n      mstore\n      pop\n      dup2\n      add\n      swap1\n      tag_13\n      swap2\n      swap1\n      tag_14\n      jump\t// in\n    tag_13:\n        /* \"Alchemy University/Targetting Functions.sol\":469:472  sum */\n      0x00\n        /* \"Alchemy University/Targetting Functions.sol\":469:489  sum = B(b).add(5,10) */\n      dup2\n      swap1\n      sstore\n      pop\n        /* \"Alchemy University/Targetting Functions.sol\":220:496  function storeSum(address b) external {... */\n      pop\n      jump\t// out\n        /* \"#utility.yul\":88:205   */\n    tag_16:\n        /* \"#utility.yul\":197:198   */\n      0x00\n        /* \"#utility.yul\":194:195   */\n      dup1\n        /* \"#utility.yul\":187:199   */\n      revert\n        /* \"#utility.yul\":334:460   */\n    tag_18:\n        /* \"#utility.yul\":371:378   */\n      0x00\n        /* \"#utility.yul\":411:453   */\n      0xffffffffffffffffffffffffffffffffffffffff\n        /* \"#utility.yul\":404:409   */\n      dup3\n        /* \"#utility.yul\":400:454   */\n      and\n        /* \"#utility.yul\":389:454   */\n      swap1\n      pop\n        /* \"#utility.yul\":334:460   */\n      swap2\n      swap1\n      pop\n      jump\t// out\n        /* \"#utility.yul\":466:562   */\n    tag_19:\n        /* \"#utility.yul\":503:510   */\n      0x00\n        /* \"#utility.yul\":532:556   */\n      tag_38\n        /* \"#utility.yul\":550:555   */\n      dup3\n        /* \"#utility.yul\":532:556   */\n      tag_18\n      jump\t// in\n    tag_38:\n        /* \"#utility.yul\":521:556   */\n      swap1\n      pop\n        /* \"#utility.yul\":466:562   */\n      swap2\n      swap1\n      pop\n      jump\t// out\n        /* \"#utility.yul\":568:690   */\n    tag_20:\n        /* \"#utility.yul\":641:665   */\n      tag_40\n        /* \"#utility.yul\":659:664   */\n      dup2\n        /* \"#utility.yul\":641:665   */\n      tag_19\n      jump\t// in\n    tag_40:\n        /* \"#utility.yul\":634:639   */\n      dup2\n        /* \"#utility.yul\":631:666   */\n      eq\n        /* \"#utility.yul\":621:684   */\n      tag_41\n      jumpi\n        /* \"#utility.yul\":680:681   */\n      0x00\n        /* \"#utility.yul\":677:678   */\n      dup1\n        /* \"#utility.yul\":670:682   */\n      revert\n        /* \"#utility.yul\":621:684   */\n    tag_41:\n        /* \"#utility.yul\":568:690   */\n      pop\n      jump\t// out\n        /* \"#utility.yul\":696:835   */\n    tag_21:\n        /* \"#utility.yul\":742:747   */\n      0x00\n        /* \"#utility.yul\":780:786   */\n      dup2\n        /* \"#utility.yul\":767:787   */\n      calldataload\n        /* \"#utility.yul\":758:787   */\n      swap1\n      pop\n        /* \"#utility.yul\":796:829   */\n      tag_43\n        /* \"#utility.yul\":823:828   */\n      dup2\n        /* \"#utility.yul\":796:829   */\n      tag_20\n      jump\t// in\n    tag_43:\n        /* \"#utility.yul\":696:835   */\n      swap3\n      swap2\n      pop\n      pop\n      jump\t// out\n        /* \"#utility.yul\":841:1170   */\n    tag_6:\n        /* \"#utility.yul\":900:906   */\n      0x00\n        /* \"#utility.yul\":949:951   */\n      0x20\n        /* \"#utility.yul\":937:946   */\n      dup3\n        /* \"#utility.yul\":928:935   */\n      dup5\n        /* \"#utility.yul\":924:947   */\n      sub\n        /* \"#utility.yul\":920:952   */\n      slt\n        /* \"#utility.yul\":917:1036   */\n      iszero\n      tag_45\n      jumpi\n        /* \"#utility.yul\":955:1034   */\n      tag_46\n      tag_16\n      jump\t// in\n    tag_46:\n        /* \"#utility.yul\":917:1036   */\n    tag_45:\n        /* \"#utility.yul\":1075:1076   */\n      0x00\n        /* \"#utility.yul\":1100:1153   */\n      tag_47\n        /* \"#utility.yul\":1145:1152   */\n      dup5\n        /* \"#utility.yul\":1136:1142   */\n      dup3\n        /* \"#utility.yul\":1125:1134   */\n      dup6\n        /* \"#utility.yul\":1121:1143   */\n      add\n        /* \"#utility.yul\":1100:1153   */\n      tag_21\n      jump\t// in\n    tag_47:\n        /* \"#utility.yul\":1090:1153   */\n      swap2\n      pop\n        /* \"#utility.yul\":1046:1163   */\n      pop\n        /* \"#utility.yul\":841:1170   */\n      swap3\n      swap2\n      pop\n      pop\n      jump\t// out\n        /* \"#utility.yul\":1176:1261   */\n    tag_22:\n        /* \"#utility.yul\":1221:1228   */\n      0x00\n        /* \"#utility.yul\":1250:1255   */\n      dup2\n        /* \"#utility.yul\":1239:1255   */\n      swap1\n      pop\n        /* \"#utility.yul\":1176:1261   */\n      swap2\n      swap1\n      pop\n      jump\t// out\n        /* \"#utility.yul\":1267:1344   */\n    tag_23:\n        /* \"#utility.yul\":1304:1311   */\n      0x00\n        /* \"#utility.yul\":1333:1338   */\n      dup2\n        /* \"#utility.yul\":1322:1338   */\n      swap1\n      pop\n        /* \"#utility.yul\":1267:1344   */\n      swap2\n      swap1\n      pop\n      jump\t// out\n        /* \"#utility.yul\":1350:1410   */\n    tag_24:\n        /* \"#utility.yul\":1378:1381   */\n      0x00\n        /* \"#utility.yul\":1399:1404   */\n      dup2\n        /* \"#utility.yul\":1392:1404   */\n      swap1\n      pop\n        /* \"#utility.yul\":1350:1410   */\n      swap2\n      swap1\n      pop\n      jump\t// out\n        /* \"#utility.yul\":1416:1574   */\n    tag_25:\n        /* \"#utility.yul\":1474:1483   */\n      0x00\n        /* \"#utility.yul\":1507:1568   */\n      tag_52\n        /* \"#utility.yul\":1525:1567   */\n      tag_53\n        /* \"#utility.yul\":1534:1566   */\n      tag_54\n        /* \"#utility.yul\":1560:1565   */\n      dup5\n        /* \"#utility.yul\":1534:1566   */\n      tag_22\n      jump\t// in\n    tag_54:\n        /* \"#utility.yul\":1525:1567   */\n      tag_24\n      jump\t// in\n    tag_53:\n        /* \"#utility.yul\":1507:1568   */\n      tag_23\n      jump\t// in\n    tag_52:\n        /* \"#utility.yul\":1494:1568   */\n      swap1\n      pop\n        /* \"#utility.yul\":1416:1574   */\n      swap2\n      swap1\n      pop\n      jump\t// out\n        /* \"#utility.yul\":1580:1727   */\n    tag_26:\n        /* \"#utility.yul\":1675:1720   */\n      tag_56\n        /* \"#utility.yul\":1714:1719   */\n      dup2\n        /* \"#utility.yul\":1675:1720   */\n      tag_25\n      jump\t// in\n    tag_56:\n        /* \"#utility.yul\":1670:1673   */\n      dup3\n        /* \"#utility.yul\":1663:1721   */\n      mstore\n        /* \"#utility.yul\":1580:1727   */\n      pop\n      pop\n      jump\t// out\n        /* \"#utility.yul\":1733:1819   */\n    tag_27:\n        /* \"#utility.yul\":1779:1786   */\n      0x00\n        /* \"#utility.yul\":1808:1813   */\n      dup2\n        /* \"#utility.yul\":1797:1813   */\n      swap1\n      pop\n        /* \"#utility.yul\":1733:1819   */\n      swap2\n      swap1\n      pop\n      jump\t// out\n        /* \"#utility.yul\":1825:1985   */\n    tag_28:\n        /* \"#utility.yul\":1884:1893   */\n      0x00\n        /* \"#utility.yul\":1917:1979   */\n      tag_59\n        /* \"#utility.yul\":1935:1978   */\n      tag_60\n        /* \"#utility.yul\":1944:1977   */\n      tag_61\n        /* \"#utility.yul\":1971:1976   */\n      dup5\n        /* \"#utility.yul\":1944:1977   */\n      tag_27\n      jump\t// in\n    tag_61:\n        /* \"#utility.yul\":1935:1978   */\n      tag_24\n      jump\t// in\n    tag_60:\n        /* \"#utility.yul\":1917:1979   */\n      tag_23\n      jump\t// in\n    tag_59:\n        /* \"#utility.yul\":1904:1979   */\n      swap1\n      pop\n        /* \"#utility.yul\":1825:1985   */\n      swap2\n      swap1\n      pop\n      jump\t// out\n        /* \"#utility.yul\":1991:2140   */\n    tag_29:\n        /* \"#utility.yul\":2087:2133   */\n      tag_63\n        /* \"#utility.yul\":2127:2132   */\n      dup2\n        /* \"#utility.yul\":2087:2133   */\n      tag_28\n      jump\t// in\n    tag_63:\n        /* \"#utility.yul\":2082:2085   */\n      dup3\n        /* \"#utility.yul\":2075:2134   */\n      mstore\n        /* \"#utility.yul\":1991:2140   */\n      pop\n      pop\n      jump\t// out\n        /* \"#utility.yul\":2146:2512   */\n    tag_10:\n        /* \"#utility.yul\":2284:2288   */\n      0x00\n        /* \"#utility.yul\":2322:2324   */\n      0x40\n        /* \"#utility.yul\":2311:2320   */\n      dup3\n        /* \"#utility.yul\":2307:2325   */\n      add\n        /* \"#utility.yul\":2299:2325   */\n      swap1\n      pop\n        /* \"#utility.yul\":2335:2414   */\n      tag_65\n        /* \"#utility.yul\":2411:2412   */\n      0x00\n        /* \"#utility.yul\":2400:2409   */\n      dup4\n        /* \"#utility.yul\":2396:2413   */\n      add\n        /* \"#utility.yul\":2387:2393   */\n      dup6\n        /* \"#utility.yul\":2335:2414   */\n      tag_26\n      jump\t// in\n    tag_65:\n        /* \"#utility.yul\":2424:2505   */\n      tag_66\n        /* \"#utility.yul\":2501:2503   */\n      0x20\n        /* \"#utility.yul\":2490:2499   */\n      dup4\n        /* \"#utility.yul\":2486:2504   */\n      add\n        /* \"#utility.yul\":2477:2483   */\n      dup5\n        /* \"#utility.yul\":2424:2505   */\n      tag_29\n      jump\t// in\n    tag_66:\n        /* \"#utility.yul\":2146:2512   */\n      swap4\n      swap3\n      pop\n      pop\n      pop\n      jump\t// out\n        /* \"#utility.yul\":2518:2640   */\n    tag_30:\n        /* \"#utility.yul\":2591:2615   */\n      tag_68\n        /* \"#utility.yul\":2609:2614   */\n      dup2\n        /* \"#utility.yul\":2591:2615   */\n      tag_23\n      jump\t// in\n    tag_68:\n        /* \"#utility.yul\":2584:2589   */\n      dup2\n        /* \"#utility.yul\":2581:2616   */\n      eq\n        /* \"#utility.yul\":2571:2634   */\n      tag_69\n      jumpi\n        /* \"#utility.yul\":2630:2631   */\n      0x00\n        /* \"#utility.yul\":2627:2628   */\n      dup1\n        /* \"#utility.yul\":2620:2632   */\n      revert\n        /* \"#utility.yul\":2571:2634   */\n    tag_69:\n        /* \"#utility.yul\":2518:2640   */\n      pop\n      jump\t// out\n        /* \"#utility.yul\":2646:2789   */\n    tag_31:\n        /* \"#utility.yul\":2703:2708   */\n      0x00\n        /* \"#utility.yul\":2734:2740   */\n      dup2\n        /* \"#utility.yul\":2728:2741   */\n      mload\n        /* \"#utility.yul\":2719:2741   */\n      swap1\n      pop\n        /* \"#utility.yul\":2750:2783   */\n      tag_71\n        /* \"#utility.yul\":2777:2782   */\n      dup2\n        /* \"#utility.yul\":2750:2783   */\n      tag_30\n      jump\t// in\n    tag_71:\n        /* \"#utility.yul\":2646:2789   */\n      swap3\n      swap2\n      pop\n      pop\n      jump\t// out\n        /* \"#utility.yul\":2795:3146   */\n    tag_14:\n        /* \"#utility.yul\":2865:2871   */\n      0x00\n        /* \"#utility.yul\":2914:2916   */\n      0x20\n        /* \"#utility.yul\":2902:2911   */\n      dup3\n        /* \"#utility.yul\":2893:2900   */\n      dup5\n        /* \"#utility.yul\":2889:2912   */\n      sub\n        /* \"#utility.yul\":2885:2917   */\n      slt\n        /* \"#utility.yul\":2882:3001   */\n      iszero\n      tag_73\n      jumpi\n        /* \"#utility.yul\":2920:2999   */\n      tag_74\n      tag_16\n      jump\t// in\n    tag_74:\n        /* \"#utility.yul\":2882:3001   */\n    tag_73:\n        /* \"#utility.yul\":3040:3041   */\n      0x00\n        /* \"#utility.yul\":3065:3129   */\n      tag_75\n        /* \"#utility.yul\":3121:3128   */\n      dup5\n        /* \"#utility.yul\":3112:3118   */\n      dup3\n        /* \"#utility.yul\":3101:3110   */\n      dup6\n        /* \"#utility.yul\":3097:3119   */\n      add\n        /* \"#utility.yul\":3065:3129   */\n      tag_31\n      jump\t// in\n    tag_75:\n        /* \"#utility.yul\":3055:3129   */\n      swap2\n      pop\n        /* \"#utility.yul\":3011:3139   */\n      pop\n        /* \"#utility.yul\":2795:3146   */\n      swap3\n      swap2\n      pop\n      pop\n      jump\t// out\n\n    auxdata: 0xa264697066735822122053678f837233a59ac693f6d2f402de86dc3c97e8e41e278eb1e72df2b31f9a8e64736f6c63430008140033\n}\n",
				"bytecode": {
					"linkReferences": {},
					"object": "608060405234801561000f575f80fd5b5061028c8061001d5f395ff3fe608060405234801561000f575f80fd5b5060043610610029575f3560e01c806305846f0d1461002d575b5f80fd5b6100476004803603810190610042919061012b565b610049565b005b8073ffffffffffffffffffffffffffffffffffffffff1663771602f76005600a6040518363ffffffff1660e01b81526004016100869291906101da565b602060405180830381865afa1580156100a1573d5f803e3d5ffd5b505050506040513d601f19601f820116820180604052508101906100c5919061022b565b5f8190555050565b5f80fd5b5f73ffffffffffffffffffffffffffffffffffffffff82169050919050565b5f6100fa826100d1565b9050919050565b61010a816100f0565b8114610114575f80fd5b50565b5f8135905061012581610101565b92915050565b5f602082840312156101405761013f6100cd565b5b5f61014d84828501610117565b91505092915050565b5f819050919050565b5f819050919050565b5f819050919050565b5f61018b61018661018184610156565b610168565b61015f565b9050919050565b61019b81610171565b82525050565b5f819050919050565b5f6101c46101bf6101ba846101a1565b610168565b61015f565b9050919050565b6101d4816101aa565b82525050565b5f6040820190506101ed5f830185610192565b6101fa60208301846101cb565b9392505050565b61020a8161015f565b8114610214575f80fd5b50565b5f8151905061022581610201565b92915050565b5f602082840312156102405761023f6100cd565b5b5f61024d84828501610217565b9150509291505056fea264697066735822122053678f837233a59ac693f6d2f402de86dc3c97e8e41e278eb1e72df2b31f9a8e64736f6c63430008140033",
					"opcodes": "PUSH1 0x80 PUSH1 0x40 MSTORE CALLVALUE DUP1 ISZERO PUSH2 0xF JUMPI PUSH0 DUP1 REVERT JUMPDEST POP PUSH2 0x28C DUP1 PUSH2 0x1D PUSH0 CODECOPY PUSH0 RETURN INVALID PUSH1 0x80 PUSH1 0x40 MSTORE CALLVALUE DUP1 ISZERO PUSH2 0xF JUMPI PUSH0 DUP1 REVERT JUMPDEST POP PUSH1 0x4 CALLDATASIZE LT PUSH2 0x29 JUMPI PUSH0 CALLDATALOAD PUSH1 0xE0 SHR DUP1 PUSH4 0x5846F0D EQ PUSH2 0x2D JUMPI JUMPDEST PUSH0 DUP1 REVERT JUMPDEST PUSH2 0x47 PUSH1 0x4 DUP1 CALLDATASIZE SUB DUP2 ADD SWAP1 PUSH2 0x42 SWAP2 SWAP1 PUSH2 0x12B JUMP JUMPDEST PUSH2 0x49 JUMP JUMPDEST STOP JUMPDEST DUP1 PUSH20 0xFFFFFFFFFFFFFFFFFFFFFFFFFFFFFFFFFFFFFFFF AND PUSH4 0x771602F7 PUSH1 0x5 PUSH1 0xA PUSH1 0x40 MLOAD DUP4 PUSH4 0xFFFFFFFF AND PUSH1 0xE0 SHL DUP2 MSTORE PUSH1 0x4 ADD PUSH2 0x86 SWAP3 SWAP2 SWAP1 PUSH2 0x1DA JUMP JUMPDEST PUSH1 0x20 PUSH1 0x40 MLOAD DUP1 DUP4 SUB DUP2 DUP7 GAS STATICCALL ISZERO DUP1 ISZERO PUSH2 0xA1 JUMPI RETURNDATASIZE PUSH0 DUP1 RETURNDATACOPY RETURNDATASIZE PUSH0 REVERT JUMPDEST POP POP POP POP PUSH1 0x40 MLOAD RETURNDATASIZE PUSH1 0x1F NOT PUSH1 0x1F DUP3 ADD AND DUP3 ADD DUP1 PUSH1 0x40 MSTORE POP DUP2 ADD SWAP1 PUSH2 0xC5 SWAP2 SWAP1 PUSH2 0x22B JUMP JUMPDEST PUSH0 DUP2 SWAP1 SSTORE POP POP JUMP JUMPDEST PUSH0 DUP1 REVERT JUMPDEST PUSH0 PUSH20 0xFFFFFFFFFFFFFFFFFFFFFFFFFFFFFFFFFFFFFFFF DUP3 AND SWAP1 POP SWAP2 SWAP1 POP JUMP JUMPDEST PUSH0 PUSH2 0xFA DUP3 PUSH2 0xD1 JUMP JUMPDEST SWAP1 POP SWAP2 SWAP1 POP JUMP JUMPDEST PUSH2 0x10A DUP2 PUSH2 0xF0 JUMP JUMPDEST DUP2 EQ PUSH2 0x114 JUMPI PUSH0 DUP1 REVERT JUMPDEST POP JUMP JUMPDEST PUSH0 DUP2 CALLDATALOAD SWAP1 POP PUSH2 0x125 DUP2 PUSH2 0x101 JUMP JUMPDEST SWAP3 SWAP2 POP POP JUMP JUMPDEST PUSH0 PUSH1 0x20 DUP3 DUP5 SUB SLT ISZERO PUSH2 0x140 JUMPI PUSH2 0x13F PUSH2 0xCD JUMP JUMPDEST JUMPDEST PUSH0 PUSH2 0x14D DUP5 DUP3 DUP6 ADD PUSH2 0x117 JUMP JUMPDEST SWAP2 POP POP SWAP3 SWAP2 POP POP JUMP JUMPDEST PUSH0 DUP2 SWAP1 POP SWAP2 SWAP1 POP JUMP JUMPDEST PUSH0 DUP2 SWAP1 POP SWAP2 SWAP1 POP JUMP JUMPDEST PUSH0 DUP2 SWAP1 POP SWAP2 SWAP1 POP JUMP JUMPDEST PUSH0 PUSH2 0x18B PUSH2 0x186 PUSH2 0x181 DUP5 PUSH2 0x156 JUMP JUMPDEST PUSH2 0x168 JUMP JUMPDEST PUSH2 0x15F JUMP JUMPDEST SWAP1 POP SWAP2 SWAP1 POP JUMP JUMPDEST PUSH2 0x19B DUP2 PUSH2 0x171 JUMP JUMPDEST DUP3 MSTORE POP POP JUMP JUMPDEST PUSH0 DUP2 SWAP1 POP SWAP2 SWAP1 POP JUMP JUMPDEST PUSH0 PUSH2 0x1C4 PUSH2 0x1BF PUSH2 0x1BA DUP5 PUSH2 0x1A1 JUMP JUMPDEST PUSH2 0x168 JUMP JUMPDEST PUSH2 0x15F JUMP JUMPDEST SWAP1 POP SWAP2 SWAP1 POP JUMP JUMPDEST PUSH2 0x1D4 DUP2 PUSH2 0x1AA JUMP JUMPDEST DUP3 MSTORE POP POP JUMP JUMPDEST PUSH0 PUSH1 0x40 DUP3 ADD SWAP1 POP PUSH2 0x1ED PUSH0 DUP4 ADD DUP6 PUSH2 0x192 JUMP JUMPDEST PUSH2 0x1FA PUSH1 0x20 DUP4 ADD DUP5 PUSH2 0x1CB JUMP JUMPDEST SWAP4 SWAP3 POP POP POP JUMP JUMPDEST PUSH2 0x20A DUP2 PUSH2 0x15F JUMP JUMPDEST DUP2 EQ PUSH2 0x214 JUMPI PUSH0 DUP1 REVERT JUMPDEST POP JUMP JUMPDEST PUSH0 DUP2 MLOAD SWAP1 POP PUSH2 0x225 DUP2 PUSH2 0x201 JUMP JUMPDEST SWAP3 SWAP2 POP POP JUMP JUMPDEST PUSH0 PUSH1 0x20 DUP3 DUP5 SUB SLT ISZERO PUSH2 0x240 JUMPI PUSH2 0x23F PUSH2 0xCD JUMP JUMPDEST JUMPDEST PUSH0 PUSH2 0x24D DUP5 DUP3 DUP6 ADD PUSH2 0x217 JUMP JUMPDEST SWAP2 POP POP SWAP3 SWAP2 POP POP JUMP INVALID LOG2 PUSH5 0x6970667358 0x22 SLT KECCAK256 MSTORE8 PUSH8 0x8F837233A59AC693 0xF6 0xD2 DELEGATECALL MUL 0xDE DUP7 0xDC EXTCODECOPY SWAP8 0xE8 0xE4 0x1E 0x27 DUP15 0xB1 0xE7 0x2D CALLCODE 0xB3 0x1F SWAP11 DUP15 PUSH5 0x736F6C6343 STOP ADDMOD EQ STOP CALLER "
				},
				"gasEstimates": {
					"creation": {
						"codeDepositCost": "130400",
						"executionCost": "175",
						"totalCost": "130575"
					},
					"external": {
						"storeSum(address)": "infinite"
					}
				},
				"methodIdentifiers": {
					"storeSum(address)": "05846f0d"
				}
			},
			"storageLayout": {
				"storage": [
					{
						"astId": 3,
						"contract": "Alchemy University/Targetting Functions.sol:A",
						"label": "sum",
						"offset": 0,
						"slot": "0",
						"type": "t_uint256"
					}
				],
				"types": {
					"t_uint256": {
						"encoding": "inplace",
						"label": "uint256",
						"numberOfBytes": "32"
					}
				}
			},
			"userdoc": {
				"kind": "user",
				"methods": {},
				"version": 1
			}
		}
	}
}